:020000040800F2
:1000000000000220F9110008031000080510000884
:1000100007100008091000080B100008000000007D
:100020000000000000000000000000000D100008AB
:100030000F10000800000000111000081310000845
:100040004912000849120008491200084912000824
:100050004912000849120008491200084912000814
:100060004912000849120008491200084912000804
:1000700049120008491200084912000849120008F4
:1000800049120008491200084912000849120008E4
:1000900049120008491200084912000849120008D4
:1000A00049120008491200084912000849120008C4
:1000B00049120008211000084912000849120008DE
:1000C00049120008491200084912000849120008A4
:1000D0004912000849120008491200084912000894
:1000E0004912000849120008491200084912000884
:1000F0004912000849120008491200084912000874
:100100004912000849120008491200084912000863
:100110004912000849120008491200084912000853
:100120004912000849120008491200084912000843
:100130004912000849120008491200084912000833
:100140004912000849120008491200084912000823
:100150004912000849120008491200084912000813
:100160004912000849120008491200084912000803
:100170004912000849120008491200080000000056
:080180004912000849120008B1
:1001880010B5054C237833B9044B13B10448AFF3C9
:1001980000800123237010BD04000020000000002F
:1001A8009412000808B5034B1BB103490348AFF389
:1001B800008008BD0000000008000020941200081C
:1001C80010B5084B044618684FF47A73B0FBF3F087
:1001D80000F084F8002221464FF0FF3000F03EF88E
:1001E800002010BD0000002008B50B4B1A6842F42F
:1001F80000721A601A6842F480621A601A6842F43F
:1002080080721A60032000F017F80020FFF7D8FF6B
:1002180000F0C3FE002008BD003C0240024A1368FB
:1002280001331360704700BF20000020014B18689D
:10023800704700BF20000020074AD36823F4E0631A
:100248001B041B0C43F0BF63000243F4003300F4AB
:10025800E0600343D360704700ED00E0174B30B512
:10026800DC68C4F30224C4F10703251D042B28BF4E
:100278000423062D4FF0010505FA03F303F1FF33BC
:100288008CBF033C00241940A14005FA04F4013C4A
:100298002240002842EA01024FEA0212AFBF00F1F1
:1002A800604000F00F00064BD2B2A5BF00F56140D8
:1002B800D2B21A5480F8002330BD00BF00ED00E030
:1002C80014ED00E04209012300F01F0003FA00F0DA
:1002D800014B43F82200704700E100E00138B0F11B
:1002E800807F0AD2064B074A5860F02182F8231013
:1002F8000020072298601A6070470120704700BFED
:1003080010E000E000ED00E0044B1A6804280CBF80
:1003180042F0040222F004021A60704710E000E084
:10032800704708B5FFF7FCFF08BD00002DE9F04F46
:1003380085B00B68DFF8AC81684ADFF8AC910193AF
:1003480000234FF0010E019C0EFA03FE0EEA04068C
:10035800B64540F0AE804C6824F01007022F16D145
:100368004FEAD30A00EB8A0A03F0070BDAF82050A9
:100378004FEA8B0B4FF00F0C0CFA0BFC25EA0C0C18
:100388000D6905FA0BF545EA0C05CAF820504FEA45
:10039800430A0325D0F800B005FA0AF5ED4304F046
:1003A800030C0BEA050B0CFA0AFC013F4CEA0B0C98
:1003B800012FC0F800C011D8876807EA050BCF687D
:1003C80007FA0AFC4CEA0B078760476827EA0E0E13
:1003D800C4F300179F4047EA0E074760C7683D40CF
:1003E8008F6807FA0AF73D43C560E50061D54FF00D
:1003F800000BCDF80CB0D8F84470394D47F480475D
:10040800C8F84470D8F8447007F480470397039FEE
:1004180023F0030707F1804707F59C3703F0030C27
:10042800D7F808A04FEA8C0C4FF00F0E0EFA0CFE0E
:10043800A8422AEA0E0E43D005F58065A84241D0AD
:1004480005F58065A8423FD005F58065A8423DD0F6
:1004580005F58065A8423BD048453BD005F50065C9
:10046800A84239D005F58065A84214BF082507259C
:1004780005FA0CF545EA0E05BD601568F74314F456
:10048800803F0CBF3D4035431560556814F4003F6C
:100498000CBF3D4035435560956814F4801F0CBF70
:1004A8003D4035439560D568A40254BF3D4035436F
:1004B800D5600133102B7FF444AF05B0BDE8F08F51
:1004C8005D46D5E70125D3E70225D1E70325CFE728
:1004D8000425CDE70525CBE70625C9E7003C014003
:1004E8000000024000380240001402400AB1816155
:1004F80070470904FBE700000368F7B50446D8070E
:100508003BD42368990700F1868023681E0700F111
:10051800D18023685D072AD5002301938E4B8F4D28
:100528001A6C42F080521A641B6C03F080530193DA
:10053800019B2B6843F480732B60FFF777FE064618
:100548002B68DA0540F1D880A368834D012B40F071
:10055800DA802B6F43F001032B67FFF767FE7E4DB0
:10056800064641F288372B6F9B0740F1ED80A26960
:10057800002A40F0F980002015E0774B9A6802F0D5
:100588000C02042A07D09A6802F00C02082A0CD13F
:100598005B685A0209D5704B1B689B03B1D5636829
:1005A800002BAED1012003B0F0BD63686A4DB3F5EE
:1005B800803F11D12B6843F480332B60FFF736FE60
:1005C800654D06462B689F039BD4FFF72FFE801BC3
:1005D8006428F7D90320E6E7B3F5A02F04D12B68E8
:1005E80043F480232B60E5E72A6822F480322A60EE
:1005F8002A6822F480222A60002BDFD1FFF716FE3A
:1006080006462B6898037FF57CAFFFF70FFE801B2B
:100618006428F6D9DEE7504B9A6812F00C0F07D021
:100628009A6802F00C02082A16D15B68590213D4A2
:10063800494B1A68920702D5E268012AB2D11868B4
:10064800F82292FAA2F2B2FA82F122698A4020F0E4
:10065800F8010A431A6058E7E268414BDAB101220F
:100668001A60FFF7E3FD3C4D06462B689B070CD547
:100678002968F82393FAA3F3B3FA83F22369934022
:1006880021F0F80213432B603FE7FFF7CFFD801BF3
:100698000228EAD99EE71A60FFF7C8FD2E4D0646E4
:1006A8002B689F077FF531AFFFF7C0FD801B02283D
:1006B800F6D98FE762692B4B7AB101221A60FFF7EE
:1006C800B5FD254D06466B6F98073FF522AFFFF73E
:1006D800ADFD801B0228F6D97CE71A60FFF7A6FD5E
:1006E8001D4D06466B6F99077FF513AFFFF79EFD0B
:1006F800801B0228F6D96DE7FFF798FD801B0228BA
:100708007FF61EAF66E7052B04D12B6F43F0040379
:100718002B671EE72A6F22F001022A672A6F22F050
:1007280004022A67002B7FF418AFFFF77FFD41F220
:10073800883706462B6F98077FF519AFFFF776FDC8
:10074800801BB842F6D945E7FFF770FD801BB84219
:100758007FF609AF3EE700BF003802400070004056
:1007680000004742800E47422B4DAB6803F00C0354
:10077800082B3FF417AF294E0023022A33603ED1DD
:10078800FFF754FD07462B68990132D447F6C07726
:1007980097FAA7F74FF44032B7FA87F792FAA2F21E
:1007A8004FF07061B2FA82F091FAA1F1226AE3691E
:1007B8001343626A02FA07F7A26A5208013A8240B2
:1007C8003B431343E26A144CB1FA81F102FA01F196
:1007D8000B436B6001233360FFF728FD0546236850
:1007E8009A013FF5C8AEFFF721FD401B0228F6D954
:1007F800F0E6FFF71BFDC01B0228C4D9EAE6FFF7A5
:1008080015FD04462B689B017FF5B5AEFFF70EFD7D
:10081800001B0228F6D9DDE6003802406000474296
:10082800194A936803F00C03042B10B503D0082B66
:1008380003D0164810BD164810BD5168536801F022
:100848003F0113F4800F47F6C074536894FAA4F07C
:10085800B0FA80F003EA040323FA00F314BF0C484B
:100868000A48B0FBF1F05843074B4FF440325B683D
:1008780092FAA2F2B2FA82F203F44033D34001337F
:100888005B00B0FBF3F010BD003802400024F40018
:1008980040787D01564B1A6802F00F028A422DE912
:1008A800F04105460E4630D32A68940737D4D0075E
:1008B8003DD44F4B1A6802F00F029642C0F0888070
:1008C8002A68510700F18C80130707D5494A29691E
:1008D800936823F4604343EAC1039360FFF7A0FFE2
:1008E800444BF0229B6892FAA2F2B2FA82F203F029
:1008F800F003D340404AD35CD840404B18600020F6
:10090800FFF75EFC0020BDE8F081CAB21A701B68D0
:1009180003F00F039942C7D00120BDE8F0813549A3
:10092800A8688B6823F0F00303438B60BFE76A680D
:10093800304B012A1ED11B6813F4003FECD02D4C1C
:10094800A36823F003031343A360FFF76FFC6B68EE
:10095800012B074641F2883816D1A36803F00C032F
:10096800042BA6D0FFF762FCC01B4045F5D9032035
:10097800BDE8F081911E01291B6802D813F0007FA1
:10098800DCE713F0020FD9E7022B0AD1A36803F0C2
:100998000C03082B8DD0FFF749FCC01B4045F5D947
:1009A800E5E7032B0FD1A36803F00C030C2B80D0D1
:1009B800FFF73CFCC01B4045F5D9D8E7FFF736FCEC
:1009C800C01B4045D3D8A36813F00C0FF6D170E7CD
:1009D800F2B21A701B6803F00F039E429CD16FE7B6
:1009E8000449E8688B6823F4E05303438B606BE7A2
:1009F800003C024000380240AC1200080000002011
:100A0800014B1868704700BF000000200368DA68CF
:100A180042F00102DA601A6842F001021A6000200E
:100A2800704790F83830012B70B54FF002031CD096
:100A380080F839300368012280F838209A6822F457
:100A48007F4222F077029A600A68402A79D019D842
:100A5800102A00F093800AD8002A00F08980012328
:100A680080F83930002380F83830184670BD202AC5
:100A780000F08A80302AF2D19A6822F0700242F09F
:100A8800370236E0702A36D01BD8502A42D0602A66
:100A9800E5D11C6A4D68CE6824F010041C6299697F
:100AA8001A6A21F4704122F0A00242EA051241EAD2
:100AB800063199611A629A6822F0700242F0670260
:100AC80017E0B2F5805F11D0B2F5005FC7D18A6830
:100AD8004D689C68C9682A4324F47F4442EA01228D
:100AE80022439A609A6842F4804202E09A6822F0AF
:100AF80007029A60B3E78A684D689C68C9682A4308
:100B080024F47F4442EA012222439A609A6842F020
:100B18007702EEE74C68CE68196A1D6A25F0010570
:100B28001D629A6921F00A0122F0F00242EA0612D7
:100B380021439A6119629A6822F0700242F05702C2
:100B4800D7E74C68CE68196A1D6A25F001051D6251
:100B58009A6921F00A0122F0F00242EA06122143C2
:100B68009A6119629A6822F0700242F04702C0E75F
:100B78009A6822F0700242F00702BAE79A6822F0F7
:100B8800700242F01702B4E79A6822F0700242F04D
:100B98002702AEE770477047704770477047036891
:100BA8001A69910710B504460ED5DA6892070BD575
:100BB8006FF002021A619B6901229B07027677D0C7
:100BC800FFF7EAFF0023237623681A69500710D538
:100BD800DA6851070DD56FF004021A619B69022289
:100BE80013F4407F2276204668D0FFF7D5FF002314
:100BF800237623681A6912070FD5DA6810070CD50F
:100C08006FF008021A61DB690422990722762046F0
:100C18005AD0FFF7C1FF0023237623681A69D2064A
:100C280010D5DA68D0060DD56FF010021A61DB69AD
:100C3800082213F4407F227620464BD0FFF7ACFF02
:100C48000023237623681A69D10708D5DA68D20702
:100C580005D56FF001021A612046FFF79BFF236854
:100C68001A69100608D5DA68110605D56FF08002F2
:100C78001A61204600F0D7F823681A69520608D589
:100C8800DA68500605D56FF040021A612046FFF772
:100C980085FF23681A69910622D5DA6892061FD55E
:100CA8006FF0200220461A61BDE8104000F0BAB883
:100CB800FFF771FF2046FFF770FF83E7FFF76BFF31
:100CC8002046FFF76AFF92E7FFF765FF2046FFF728
:100CD80064FFA0E7FFF75FFF2046FFF75EFFAFE77F
:100CE80010BD00002E4A0368904212D0B0F1804F28
:100CF8000FD0A2F57C4290420BD002F58062904260
:100D080007D002F58062904203D002F57842904203
:100D18001DD14A6823F070031343214A904204D13D
:100D2800CA6823F44073134328E0B0F1804FF7D02A
:100D38001C4A9042F4D002F580629042F0D002F54D
:100D480080629042ECD002F578429042E8D0164A90
:100D58009042E5D002F580629042E1D002F58062CF
:100D68009042DDD0A2F598329042D9D002F5806247
:100D78009042D5D002F580629042D1D003608B6852
:100D8800C3620B688362064B984206D003F5806302
:100D9800984202D00123436170470B690363F9E766
:100DA80000000140000400400040014010B5044626
:100DB800A0B190F8393003F0FF021BB980F8382051
:100DC80000F0F8F9022384F839302068211DFFF774
:100DD80089FF012384F83930002010BD012010BD9F
:100DE80090F83830012B10B54FF0020318D080F876
:100DF800393003680C685A68496822F070025A60F2
:100E08005A6822435A609A6822F080029A609A6867
:100E18000A439A60012380F83930002380F838307B
:100E2800184610BD704770472DE9F04188B000247E
:100E3800284B00941A6BDFF8A880274F274E42F002
:100E480001021A631A6B02F001020092009A0194DF
:100E58001A6B42F004021A631A6B02F00402019240
:100E6800019A02941A6B42F002021A631B6B03F098
:100E780002030293224640460F21029BFFF736FBEE
:100E8800224638463021FFF731FB224630460321FF
:100E9800FFF72CFB01250F2303A940460393049574
:100EA80005940694FFF742FA302303A938460393C2
:100EB800049505940694FFF739FA032303A93046ED
:100EC8000393049505940694FFF730FA08B0BDE83B
:100ED800F08100BF003802400008024000040240D0
:100EE8000000024010B594B00023214A0193116C10
:100EF80041F080511164126C02F080520192019A03
:100F08001C4A0293116841F48041116012680E93E3
:100F180002F480420292029A0222089201220B9263
:100F280008A810220C92FFF7E7FA014600B1FEE785
:100F38000F23049005900690079003A80393FFF7EA
:100F4800A9FC044600B1FEE7FFF75AFD4FF47A7397
:100F5800B0FBF3F0FFF7C2F90420FFF7D5F92246FA
:100F680021464FF0FF30FFF779F914B010BD00BFEC
:100F7800003802400070004008B5FFF735F9FFF768
:100F8800B1FFFFF751FF00F0DDF80248FFF73EFD23
:100F9800FEE700BF24000020FEE708B50320FFF7A6
:100FA8004BF9002211466FF00B00FFF757F90022AA
:100FB80011466FF00A00FFF751F9002211466FF051
:100FC8000900FFF74BF9002211466FF00400FFF704
:100FD80045F9002211466FF00300FFF73FF90022A0
:100FE80011466FF00100FFF739F9002211464FF062
:100FF800FF30BDE80840FFF731B97047FEE7FEE76C
:10100800FEE7FEE770477047704708B5FFF706F937
:10101800BDE80840FFF785B9F8B5334D334F344E76
:10102800344C284600220121FFF760FA28460022A6
:101038000221FFF75BFA284600220421FFF756FA3F
:10104800284600220821FFF751FA384600221021CD
:10105800FFF74CFA384600222021FFF747FA3046BE
:1010680000220121FFF742FA002202213046FFF751
:101078003DFA2046FFF793FD012202212846FFF79B
:1010880035FA2046FFF78BFD012204212846FFF799
:101098002DFA2046FFF783FD012208212846FFF795
:1010A80025FA2046FFF77BFD012210213846FFF77D
:1010B8001DFA2046FFF773FD012220213846FFF76D
:1010C80015FA2046FFF76BFD012211463046FFF75F
:1010D8000DFA2046FFF763FD304601220221BDE8E4
:1010E800F840FFF703BA00BF0000024000080240C2
:1010F80000040240240000200F49D1F8883043F44E
:101108007003C1F888300D4B1A68002042F00102C4
:101118001A6098601A6822F0847222F480321A6089
:10112800074A5A601A6822F480221A60D8604FF081
:1011380000638B60704700BF00ED00E0003802409C
:10114800103000247FB51848184943F67F6380E8BB
:101158000A0040F2E73200238360C2600361FFF7B0
:1011680025FE18B13E211248FFF716FF06A94FF4D5
:10117800805341F8103D0C48FFF753FC18B1442147
:101188000B48FFF709FF20220023694606488DE82F
:101198000C00FFF725FE18B14B210548FFF7FCFEB0
:1011A80007B05DF804FB00BF2400002000040040E5
:1011B800BC12000807B50D4B02689A4213D10022F1
:1011C80003F50D330192196C41F0020119641B6C8F
:1011D80003F0020301931D201146019BFFF73EF81F
:1011E8001D20FFF76FF803B05DF804FB0004004012
:1011F800DFF834D0002103E00C4B5B584350043136
:101208000B480C4B42189A42F6D30B4A02E00023D3
:1012180042F8043B094B9A42F9D3FFF76DFF00F0FF
:1012280011F8FFF7A9FE704700000220D412000849
:1012380000000020040000200400002060000020BE
:10124800FEE7000070B50D4E0D4CA41BA410002540
:10125800A54209D10B4E0C4C00F018F8A41BA410A1
:101268000025A54205D170BD56F8253098470135AF
:10127800EEE756F8253098470135F2E7CC1200081A
:10128800CC120008CC120008D0120008F8B500BF34
:10129800F8BC08BC9E467047F8B500BFF8BC08BC4F
:0412A8009E467047A7
:1012AC00000000000000000001020304060708090A
:1012BC002E2E5C5372635C74696D2E63000000000B
:0412CC00AD01000868
:0412D0008901000888
:0412D4000024F400FE
:04000005080011F9E5
:00000001FF
