:020000040800F2
:1000000000000220851500088F13000891130008D6
:1000100093130008951300089713000800000000D0
:10002000000000000000000000000000991300081C
:100030009B130008000000009D1300089F13000898
:10004000D5150008D5150008D5150008D5150008E8
:10005000D5150008D5150008D5150008D5150008D8
:10006000D5150008D5150008D5150008D5150008C8
:10007000D5150008D5150008D5150008D5150008B8
:10008000D5150008D5150008D5150008D5150008A8
:10009000D5150008D5150008D5150008D515000898
:1000A000D5150008D5150008D5150008D515000888
:1000B000D5150008D5150008D5150008D515000878
:1000C000D5150008D5150008D5150008D515000868
:1000D000D5150008D5150008D5150008D515000858
:1000E000D5150008D5150008D5150008D515000848
:1000F000D5150008D5150008D5150008D515000838
:10010000D5150008D5150008D5150008D515000827
:10011000D5150008D5150008D5150008D515000817
:10012000D5150008D5150008D5150008D515000807
:10013000D5150008D5150008D5150008D5150008F7
:10014000D5150008D5150008D5150008D5150008E7
:10015000D5150008D5150008D5150008D5150008D7
:10016000D5150008D5150008D5150008D5150008C7
:10017000D5150008D5150008D515000800000000A9
:08018000D5150008D515000893
:1001880010B5054C237833B9044B13B10448AFF3C9
:1001980000800123237010BD080500200000000026
:1001A8004827000808B5034B1BB103490348AFF3C0
:1001B800008008BD000000000C050020482700084A
:1001C80010B5084B044618684FF47A73B0FBF3F087
:1001D80000F078F8002221464FF0FF3000F03EF89A
:1001E800002010BD0000002008B50B4B1A6842F42F
:1001F80000721A601A6842F480621A601A6842F43F
:1002080080721A60032000F017F80020FFF7D8FF6B
:1002180001F089F8002008BD003C0240024A13683A
:1002280001331360704700BF5C050020014B18685C
:10023800704700BF5C050020074AD36823F4E063D9
:100248001B041B0C43F0BF63000243F4003300F4AB
:10025800E0600343D360704700ED00E0174B30B512
:10026800DC68C4F30224C4F10703251D042B28BF4E
:100278000423062D4FF0010505FA03F303F1FF33BC
:100288008CBF033C00241940A14005FA04F4013C4A
:100298002240002842EA01024FEA0212AFBF00F1F1
:1002A800604000F00F00064BD2B2A5BF00F56140D8
:1002B800D2B21A5480F8002330BD00BF00ED00E030
:1002C80014ED00E00138B0F1807F0AD2064B074AEE
:1002D8005860F02182F823100020072298601A60E5
:1002E80070470120704700BF10E000E000ED00E01B
:1002F800044B1A6804280CBF42F0040222F00402DE
:100308001A60704710E000E0704708B5FFF7FCFF7F
:1003180008BD00002DE9F04F85B00B68DFF8AC810F
:10032800684ADFF8AC91019300234FF0010E019C5D
:100338000EFA03FE0EEA0406B64540F0AE804C689D
:1003480024F01007022F16D14FEAD30A00EB8A0ACD
:1003580003F0070BDAF820504FEA8B0B4FF00F0C25
:100368000CFA0BFC25EA0C0C0D6905FA0BF545EAAD
:100378000C05CAF820504FEA430A0325D0F800B00C
:1003880005FA0AF5ED4304F0030C0BEA050B0CFA29
:100398000AFC013F4CEA0B0C012FC0F800C011D831
:1003A800876807EA050BCF6807FA0AFC4CEA0B07CF
:1003B8008760476827EA0E0EC4F300179F4047EA94
:1003C8000E074760C7683D408F6807FA0AF73D4344
:1003D800C560E50061D54FF0000BCDF80CB0D8F83A
:1003E8004470394D47F48047C8F84470D8F84470D1
:1003F80007F480470397039F23F0030707F180471B
:1004080007F59C3703F0030CD7F808A04FEA8C0CCB
:100418004FF00F0E0EFA0CFEA8422AEA0E0E43D039
:1004280005F58065A84241D005F58065A8423FD012
:1004380005F58065A8423DD005F58065A8423BD00A
:1004480048453BD005F50065A84239D005F58065DB
:10045800A84214BF0825072505FA0CF545EA0E053C
:10046800BD601568F74314F4803F0CBF3D40354329
:100478001560556814F4003F0CBF3D403543556086
:10048800956814F4801F0CBF3D4035439560D568CE
:10049800A40254BF3D403543D5600133102B7FF48F
:1004A80044AF05B0BDE8F08F5D46D5E70125D3E739
:1004B8000225D1E70325CFE70425CDE70525CBE7BE
:1004C8000625C9E7003C0140000002400038024010
:1004D800001402400368F7B50446D8073BD42368E4
:1004E800990700F1868023681E0700F1D1802368F0
:1004F8005D072AD5002301938E4B8F4D1A6C42F06D
:1005080080521A641B6C03F080530193019B2B6883
:1005180043F480732B60FFF789FE06462B68DA05E3
:1005280040F1D880A368834D012B40F0DA802B6F0F
:1005380043F001032B67FFF779FE7E4D064641F233
:1005480088372B6F9B0740F1ED80A269002A40F0A5
:10055800F980002015E0774B9A6802F00C02042A13
:1005680007D09A6802F00C02082A0CD15B685A027C
:1005780009D5704B1B689B03B1D56368002BAED1BE
:10058800012003B0F0BD63686A4DB3F5803F11D117
:100598002B6843F480332B60FFF748FE654D064611
:1005A8002B689F039BD4FFF741FE801B6428F7D973
:1005B8000320E6E7B3F5A02F04D12B6843F480238A
:1005C8002B60E5E72A6822F480322A602A6822F440
:1005D80080222A60002BDFD1FFF728FE06462B6811
:1005E80098037FF57CAFFFF721FE801B6428F6D9BE
:1005F800DEE7504B9A6812F00C0F07D09A6802F0A9
:100608000C02082A16D15B68590213D4494B1A68A0
:10061800920702D5E268012AB2D11868F82292FA44
:10062800A2F2B2FA82F122698A4020F0F8010A4364
:100638001A6058E7E268414BDAB101221A60FFF705
:10064800F5FD3C4D06462B689B070CD52968F82319
:1006580093FAA3F3B3FA83F22369934021F0F802E3
:1006680013432B603FE7FFF7E1FD801B0228EAD91F
:100678009EE71A60FFF7DAFD2E4D06462B689F07A6
:100688007FF531AFFFF7D2FD801B0228F6D98FE73F
:1006980062692B4B7AB101221A60FFF7C7FD254D1D
:1006A80006466B6F98073FF522AFFFF7BFFD801B2B
:1006B8000228F6D97CE71A60FFF7B8FD1D4D0646FB
:1006C8006B6F99077FF513AFFFF7B0FD801B02280A
:1006D800F6D96DE7FFF7AAFD801B02287FF61EAF4B
:1006E80066E7052B04D12B6F43F004032B671EE745
:1006F8002A6F22F001022A672A6F22F004022A6771
:10070800002B7FF418AFFFF791FD41F288370646BA
:100718002B6F98077FF519AFFFF788FD801BB8424C
:10072800F6D945E7FFF782FD801BB8427FF609AF8F
:100738003EE700BF0038024000700040000047421A
:10074800800E47422B4DAB6803F00C03082B3FF497
:1007580017AF294E0023022A33603ED1FFF766FD0A
:1007680007462B68990132D447F6C07797FAA7F75E
:100778004FF44032B7FA87F792FAA2F24FF070615D
:10078800B2FA82F091FAA1F1226AE3691343626A2C
:1007980002FA07F7A26A5208013A82403B43134320
:1007A800E26A144CB1FA81F102FA01F10B436B6071
:1007B80001233360FFF73AFD054623689A013FF5A8
:1007C800C8AEFFF733FD401B0228F6D9F0E6FFF765
:1007D8002DFDC01B0228C4D9EAE6FFF727FD044611
:1007E8002B689B017FF5B5AEFFF720FD001B0228A3
:1007F800F6D9DDE60038024060004742194A93689E
:1008080003F00C03042B10B503D0082B03D01648B3
:1008180010BD164810BD5168536801F03F0113F42C
:10082800800F47F6C074536894FAA4F0B0FA80F0C9
:1008380003EA040323FA00F314BF0C480A48B0FB88
:10084800F1F05843074B4FF440325B6892FAA2F23A
:10085800B2FA82F203F44033D34001335B00B0FBB9
:10086800F3F010BD003802400024F40040787D0108
:10087800564B1A6802F00F028A422DE9F0410546EC
:100888000E4630D32A68940737D4D0073DD44F4B4F
:100898001A6802F00F029642C0F088802A68510751
:1008A80000F18C80130707D5494A2969936823F416
:1008B800604343EAC1039360FFF7A0FF444BF02273
:1008C8009B6892FAA2F2B2FA82F203F0F003D340E4
:1008D800404AD35CD840404B18600020FFF770FCBA
:1008E8000020BDE8F081CAB21A701B6803F00F033C
:1008F8009942C7D00120BDE8F0813549A8688B68C6
:1009080023F0F00303438B60BFE76A68304B012A8A
:100918001ED11B6813F4003FECD02D4CA36823F0C4
:1009280003031343A360FFF781FC6B68012B0746A1
:1009380041F2883816D1A36803F00C03042BA6D023
:10094800FFF774FCC01B4045F5D90320BDE8F081D2
:10095800911E01291B6802D813F0007FDCE713F011
:10096800020FD9E7022B0AD1A36803F00C03082B66
:100978008DD0FFF75BFCC01B4045F5D9E5E7032B9D
:100988000FD1A36803F00C030C2B80D0FFF74EFCAB
:10099800C01B4045F5D9D8E7FFF748FCC01B4045C8
:1009A800D3D8A36813F00C0FF6D170E7F2B21A701F
:1009B8001B6803F00F039E429CD16FE70449E86867
:1009C8008B6823F4E05303438B606BE7003C0240E1
:1009D800003802406027000800000020014B18681A
:1009E800704700BF00000020084B4FF4E0529B689E
:1009F80092FAA2F2B2FA82F203F4E053D340044A24
:100A0800D35C044A1068D840704700BF00380240E1
:100A18007027000800000020084B4FF460429B68D4
:100A280092FAA2F2B2FA82F203F46043D340044A83
:100A3800D35C044A1068D840704700BF00380240B1
:100A48007027000800000020036A23F001030362F6
:100A5800036A426870B584690D6824F073042543FD
:100A68008C6823F0020323430C4CA04209D004F500
:100A78008064A04205D042604A688561426303628F
:100A880070BDCC688E6923F0080323434C6922F4B7
:100A98004072344323F004032243ECE70000014092
:100AA800036A23F480730362036A426870B5C469F9
:100AB8000D6824F0730425438C6823F4007343EA1B
:100AC80004230E4CA04209D004F58064A04205D04E
:100AD80042604A68C561C263036270BDCC688E69B2
:100AE80023F4006343EA04234C6922F4405234435C
:100AF80023F4806342EA0412EAE700BF00000140E1
:100B0800036A23F48053036230B5046A4368C269F8
:100B18000D6822F4E64242EA05228D6824F4005466
:100B280044EA0534094DA84209D005F58065A84274
:100B380005D043604B68C2610364046230BD4D69EF
:100B480023F4804343EA8513F3E700BF0000014024
:100B5800704790F83830012B70B54FF002031CD065
:100B680080F839300368012280F838209A6822F426
:100B78007F4222F077029A600A68402A79D019D811
:100B8800102A00F093800AD8002A00F089800123F7
:100B980080F83930002380F83830184670BD202A94
:100BA80000F08A80302AF2D19A6822F0700242F06E
:100BB800370236E0702A36D01BD8502A42D0602A35
:100BC800E5D11C6A4D68CE6824F010041C6299694E
:100BD8001A6A21F4704122F0A00242EA051241EAA1
:100BE800063199611A629A6822F0700242F067022F
:100BF80017E0B2F5805F11D0B2F5005FC7D18A68FF
:100C08004D689C68C9682A4324F47F4442EA01225B
:100C180022439A609A6842F4804202E09A6822F07D
:100C280007029A60B3E78A684D689C68C9682A43D6
:100C380024F47F4442EA012222439A609A6842F0EF
:100C48007702EEE74C68CE68196A1D6A25F001053F
:100C58001D629A6921F00A0122F0F00242EA0612A6
:100C680021439A6119629A6822F0700242F0570291
:100C7800D7E74C68CE68196A1D6A25F001051D6220
:100C88009A6921F00A0122F0F00242EA0612214391
:100C98009A6119629A6822F0700242F04702C0E72E
:100CA8009A6822F0700242F00702BAE79A6822F0C6
:100CB800700242F01702B4E79A6822F0700242F01C
:100CC8002702AEE72E4A0368904212D0B0F1804F57
:100CD8000FD0A2F57C4290420BD002F58062904280
:100CE80007D002F58062904203D002F57842904224
:100CF8001DD14A6823F070031343214A904204D15E
:100D0800CA6823F44073134328E0B0F1804FF7D04A
:100D18001C4A9042F4D002F580629042F0D002F56D
:100D280080629042ECD002F578429042E8D0164AB0
:100D38009042E5D002F580629042E1D002F58062EF
:100D48009042DDD0A2F598329042D9D002F5806267
:100D58009042D5D002F580629042D1D003608B6872
:100D6800C3620B688362064B984206D003F5806322
:100D7800984202D00123436170470B690363F9E786
:100D880000000140000400400040014010B5044646
:100D9800A0B190F8393003F0FF021BB980F8382071
:100DA80000F026FB022384F839302068211DFFF764
:100DB80089FF012384F83930002010BD012010BDBF
:100DC80010B50446A0B190F8393003F0FF021BB902
:100DD80080F83820FFF7BCFE022384F839302068F9
:100DE800211DFFF76FFF012384F83930002010BD63
:100DF800012010BD036A23F010030362036A4268EE
:100E080070B584690D6824F4E64444EA05258C68C5
:100E180023F0200343EA04130D4CA04209D004F543
:100E28008064A04205D042604A688561826303629B
:100E380070BDCC688E6923F0800343EA04134C69C3
:100E480022F44062344323F0400342EA8402EAE792
:100E58000000014038B590F83830012B04464FF0B7
:100E6800020025D0012384F8383084F839000C2A90
:100E780018D8DFE802F0071717171E1717172F17CC
:100E8800171740002068FFF7DFFD236809699A6992
:100E980042F008029A619A6922F004029A619A69FA
:100EA8000A439A610123002084F8393084F8380015
:100EB80038BD2068FFF79EFF236809699A6942F4E4
:100EC80000629A619A6922F480629A619A6942EA98
:100ED8000122E6E72068FFF7E3FD23680969DA697C
:100EE80042F00802DA61DA6922F00402DA61DA69AA
:100EF8000A43DA61D6E72068FFF702FE236809692A
:100F0800DA6942F40062DA61DA6922F48062DA614D
:100F1800DA6942EA0122ECE790F83830012B10B583
:100F28004FF0020318D080F8393003680C685A680B
:100F3800496822F070025A605A6822435A609A68D7
:100F480022F080029A609A680A439A60012380F826
:100F58003930002380F83830184610BD2DE9F047A5
:100F68000668C2683369C16923F440531343336187
:100F7800044683680069F2680343606922F41642F4
:100F8800034322F00C020B431343F3607369A26915
:100F980023F440731343B1F5004F73617A4B7CD14E
:100FA8009E4203D003F580639E4244D1FFF734FD8F
:100FB800192505FB00F360684FF064094000B3FB96
:100FC800F0F3B3FBF9F34FEA0318FFF725FD636865
:100FD80068435B00B0FBF3F7FFF71EFD63686843E7
:100FE8005B00B0FBF3F3B3FBF9F309FB1373DB000E
:100FF8003233B3FBF9F35B0003F4F877FFF70CFD2A
:10100800626868435200B0FBF2FAFFF705FD6368B7
:1010180068435B00B0FBF3F3B3FBF9F309FB13A3DD
:10102800DB003233B3FBF9F303F0070343443B44DB
:10103800B360BDE8F087FFF7D7FC192505FB00F37F
:1010480060684FF064094000B3FBF0F3B3FBF9F3B9
:101058004FEA0318FFF7C8FC636868435B00B0FBFE
:10106800F3F7FFF7C1FC636868435B00B0FBF3F379
:10107800B3FBF9F309FB1373DB003233B3FBF9F36A
:101088005B0003F4F877FFF7AFFC6268684352002F
:10109800B0FBF2FAFFF7A8FCB9E79E4202D03B4B3F
:1010A8009E4240D1FFF7B8FC676819254FF06409E4
:1010B80005FB00F3BF00B3FBF7F3B3FBF9F31F0124
:1010C800FFF7AAFC636868439B00B0FBF3F8FFF7DF
:1010D800A3FC636868439B00B0FBF3F3B3FBF9F32D
:1010E80009FB13831B013233B3FBF9F303F0F00858
:1010F800FFF792FC626868439200B0FBF2FAFFF7D0
:101108008BFC636868439B00B0FBF3F3B3FBF9F314
:1011180009FB13A31B013233B3FBF9F303F00F03ED
:1011280043EA080383E7FFF75FFC676819254FF078
:10113800640905FB00F3BF00B3FBF7F3B3FBF9F356
:101148001F01FFF751FC636868439B00B0FBF3F88D
:10115800FFF74AFC636868439B00B0FBF3F3B3FBFB
:10116800F9F309FB13831B013233B3FBF9F303F0E3
:10117800F008FFF739FC626868439200B0FBF2FAA6
:10118800FFF732FCBDE700BF00100140001401402A
:1011980010B5044640B390F8393003F0FF021BB98C
:1011A80080F8382000F0C0F92268242384F8393008
:1011B800D36823F40053D3602046FFF7CFFE23689B
:1011C8001A6922F490421A615A6922F02A025A6175
:1011D800DA6842F40052DA6000202023E06384F8E1
:1011E800393084F83A3010BD012010BD82B00C4B64
:1011F800002100911A6B42F001021A631A6B02F087
:1012080001020092009A01911A6B42F002021A63DD
:101218001B6B03F002030193019B02B0704700BFF0
:101228000038024010B594B00023214A0193116C94
:1012380041F080511164126C02F080520192019ABF
:101248001C4A0293116841F48041116012680E93A0
:1012580002F480420292029A0222089201220B9220
:1012680008A810220C92FFF735F9014600B1FEE7F5
:101278000F23049005900690079003A80393FFF7A7
:10128800F7FA044600B1FEE7FFF7A8FB4FF47A73BC
:10129800B0FBF3F0FFF716F80420FFF729F8224611
:1012A80021464FF0FF30FEF7D9FF14B010BD00BF44
:1012B8000038024000700040F8B5FEF795FF184D61
:1012C800FFF7B0FFFFF792FF00F0BEF800F00CF94F
:1012D8002E460324286841684B68013B002B4B606D
:1012E80015DA00F099F9C1B2306882689368013B59
:1012F800002B936004DA9769BB420DDB0A290BD0F7
:101308001368581C10601970013CE3D1E1E70B68C1
:101318005A1C0A601978E7E700F0AAF9F4E700BF59
:1013280004000020FEE708B50320FEF785FF002231
:1013380011466FF00B00FEF791FF002211466FF087
:101348000A00FEF78BFF002211466FF00900FEF736
:1013580085FF002211466FF00400FEF77FFF002290
:1013680011466FF00300FEF779FF002211466FF077
:101378000100FEF773FF002211464FF0FF30BDE871
:101388000840FEF76BBF7047FEE7FEE7FEE7FEE7A3
:1013980070477047704708B5FEF740FFBDE8084042
:1013A800FEF7B3BF0F49D1F8883043F47003C1F892
:1013B80088300D4B1A68002042F001021A609860CC
:1013C8001A6822F0847222F480321A60074A5A603E
:1013D8001A6822F480221A60D8604FF000638B608C
:1013E800704700BF00ED00E00038024010300024D4
:1013F8000368B3F1804F82B00BD100230193064BF1
:101408001A6C42F001021A641B6C03F00103019389
:10141800019B02B0704700BF003802407FB50368E7
:10142800B3F1804F0BD102220123029201A90022BD
:1014380004480193039204920593FEF76BFF07B0EB
:101448005DF804FB0000024000B52548B1234FF0C9
:1014580080418FB080E80A004FF4E1620023836086
:10146800C2600361FFF792FC18B13F211D48FFF7E6
:1014780059FF0EA94FF4805341F82C3D1848FFF747
:1014880068FB18B145211748FFF74CFF1448FFF7D0
:1014980097FC18B14A211348FFF744FF002301A91C
:1014A8000F4801930293FFF737FD18B151210D48FA
:1014B800FFF738FF0022602307A90948079308921D
:1014C80009920B92FFF7C6FC18B15A210548FFF79D
:1014D80029FF0348FFF7A2FF0FB05DF804FB00BF28
:1014E800600500207827000808B50C480C4B4FF41D
:1014F800E13E80E808400C2200238360C36003615A
:1015080042618361C361FFF743FE28B14221054868
:10151800BDE80840FFF706BF08BD00BF9C050020D6
:1015280000480040852700087FB50268104B9A42A2
:101538001AD1002300930F4B0F481A6C42F48022F3
:101548001A641B6C03F480230093009B4FF44063E0
:10155800019302230293012303930323049301A914
:1015680007230593FEF7D6FE07B05DF804FB00BF1E
:10157800004800400038024000040240DFF834D040
:10158800002103E00C4B5B58435004310B480C4BD3
:1015980042189A42F6D30B4A02E0002342F8043B71
:1015A800094B9A42F9D3FFF7FDFE00F011F8FFF757
:1015B80083FE704700000220002800080000002079
:1015C8000805002008050020EC050020FEE70000C3
:1015D80070B50D4E0D4CA41BA4100025A54209D1D1
:1015E8000B4E0C4C01F0ACF8A41BA4100025A5422E
:1015F80005D170BD56F8253098470135EEE756F805
:10160800253098470135F2E7F8270008F827000841
:10161800F8270008FC27000838B50C46054618B11D
:1016280083690BB900F028FA0E4B9C420DD16C6807
:101638002146284600F088FE88B96368013B63604C
:1016480023685A1C2260187838BD074B9C4201D188
:10165800AC68EDE7054B9C4208BFEC68E8E74FF043
:10166800FF3038BDB8270008D82700089827000899
:10167800F8B50E461446054618B183690BB900F053
:10168800FBF9274B9C422FD16C68A369A360A389FF
:10169800190733D52369002B30D0B4F90C30F6B2D2
:1016A8009A04374634D523692068C01A636998427A
:1016B80004DB2146284600F039F928BBA368013B22
:1016C800A36023685A1C22601E7063690130984227
:1016D80004D0A389DB0719D50A2E17D1214628463D
:1016E80000F024F990B10FE00E4B9C4201D1AC6898
:1016F800CBE70D4B9C4208BFEC68C6E7214628465D
:1017080000F014F80028C8D04FF0FF373846F8BD6D
:1017180043F40053A381636E23F400536366C2E766
:10172800B8270008D827000898270008324B70B55A
:101738001D6806460C4625B1AB6913B9284600F06A
:101748009BF92E4B9C420FD16C68B4F90C309AB2BD
:1017580015072CD4D00611D40922326043F0400377
:10176800A3814FF0FF3070BD254B9C4201D1AC687E
:10177800EBE7244B9C4208BFEC68E6E7510712D51B
:10178800616B41B104F14403994202D0304600F044
:1017980049FA00236363A38923F02403A381002368
:1017A800636023692360A38943F00803A381236945
:1017B8004BB9A38903F42073B3F5007F03D0214606
:1017C800304600F055FBA28912F001030CD000232B
:1017D800A36063695B42A361236953B9B4F90C3010
:1017E80013F08000BAD170BD920758BF6369A36037
:1017F800F2E70020F7E700BF04000020B827000840
:10180800D827000898270008B1F90C2093B22DE9D1
:10181800F041054618070C4661D44B6842F4006253
:10182800002B8A8105DC0B6C002B02DC0020BDE854
:10183800F081E66A002EF9D0002312F480522F6856
:101848002B6037D0606DA3895A0705D56368C01A25
:10185800636B0BB1236CC01A00230246E66A216A47
:101868002846B047431CA38906D129681D294FD8AB
:101878002D4ACA40D6074BD523F400631BB2002279
:101888006260D9042269A381226004D5421C01D177
:101898002B6803B96065616B2F600029C6D004F11D
:1018A8004403994202D0284600F0BCF90020606346
:1018B800BDE8F081216A01232846B047411CC2D106
:1018C8002B68002BBFD01D2B01D0162B01D12F6008
:1018D800ACE7A38943F04003A381BDE8F0810F6919
:1018E800002FA3D09B070E6808BF4B690F6018BF75
:1018F8000023A6EB07088B60B8F1000F96DD43467E
:101908003A46216AA66A2846B047002807DCA38918
:1019180043F04003A3814FF0FF30BDE8F081074456
:10192800A8EB0008E8E700BF0100402038B50B69C4
:1019380005460C4613B90025284638BD18B18369F9
:101948000BB900F099F8144B9C421BD16C68B4F9A0
:101958000C30002BEFD0626ED00704D4990502D466
:10196800A06D00F057FA28462146FFF74DFF636E39
:10197800DA070546E0D4A3899B05DDD4A06D00F005
:101988004AFAD9E7054B9C4201D1AC68DFE7044B22
:101998009C4208BFEC68DAE7B8270008D827000897
:1019A80098270008014620B9044B0549186800F03B
:1019B80011BA044B1868FFF7B9BF00BF9427000895
:1019C8003519000804000020014900F003BA00BFDF
:1019D80069250008002310B504460360436083604E
:1019E80081814366C281036143618361194608228C
:1019F8005C3000F08BFC054B6362054BA362054B22
:101A0800E362054B2462236310BD00BF9D240008D8
:101A1800BF240008F72400081B25000870B54A1EDB
:101A2800682555430E4605F1740100F061FA044635
:101A380040B1002180E842000C30A06005F1680246
:101A480000F064FC204670BD014800F0E3B900BF17
:101A5800E4050020014800F0DEB900BFE4050020DD
:101A6800014800F0D7B900BFDF050020014800F0A9
:101A7800D2B900BFDF05002010B50446FFF7F0FF1C
:101A8800A3691BB1BDE81040FFF7F0BFC4F8D83018
:101A9800C4F8DC30C4F8E030124B134A1B68A26269
:101AA8009C4204BF0123A361204600F01FF8606038
:101AB800204600F01BF8A060204600F017F800222E
:101AC800E06004216068FFF785FF01220921A06812
:101AD800FFF780FF02221221E068FFF77BFF012356
:101AE800A361CFE794270008D1190008F8B5074685
:101AF800FFF7AAFF1F4B1E68B36913B93046FFF7FB
:101B0800BBFFD836B4687368013B03D5336833B17B
:101B18003668F7E7B4F90C507DB16834F4E704216E
:101B28003846FFF77BFF044630600028F0D1FFF706
:101B380091FF0C233B602046F8BD4FF6FF73E3810D
:101B48000123A38104F15800656600F061F9FFF7ED
:101B580081FF2560A560656025616561A561082232
:101B6800294604F15C0000F0D1FB6563A563A56418
:101B7800E564E0E7942700082DE9F843254FDFF8EE
:101B8800A0808946064600F0C9FBBB685D68A8F1DD
:101B9800110425F00305A4EB09042C44B4FBF8F464
:101BA800013C08FB04F4444505DA304600F0BCFB70
:101BB8000020BDE8F8830021304600F05BFCBB68DC
:101BC8002B449842F1D16142304600F053FC013079
:101BD80010D10021304600F04DFCBA68831A0F2B53
:101BE800E3DD0D490968401A0C4943F00103086018
:101BF8005360DAE7BB68094A2D1B45F001055D60B3
:101C0800136830461C1B146000F08EFB0120BDE8F1
:101C1800F88300BFF80000200005002024050020FC
:101C2800800000002DE9F04104468846002900F0B4
:101C3800AB8000F073FB58F8042C544D22F00100DF
:101C4800A8F108031F18A9687E688F4226F00306CA
:101C580002F001021BD130443AB958F8082C9B1AFB
:101C680010449968DA68CA60916040F001025A60CD
:101C7800AB60474B1B68984204D3464B2046196813
:101C8800FFF77AFF2046BDE8F04100F04DBB7E60CB
:101C9800002A39D158F8081C5B1A0844996805F1DC
:101CA800080E714532D0D3F80CE0C1F80CE0CEF83C
:101CB8000810B9194968C9070AD43044B9683ABB49
:101CC800354EB14224D16B612B610122D9609960F4
:101CD80040F0010159601850002AD3D1B0F5007FB7
:101CE8001AD2C008811001228A40696801300A436B
:101CF8006A6005EBC00255F830109960083ADA605E
:101D080045F83030CB60BDE70022D2E70122D0E7AA
:101D1800FE68CE60B160DBE7420A042A13D8820964
:101D28003832511C05EBC20655F831108E4224D1C9
:101D38000120921000FA02F2686802436A60DE60CD
:101D48009960B360DEE7142A01D85B32E9E7542AC8
:101D580002D8020B6E32E4E7B2F5AA7F02D8C20BB2
:101D68007732DEE740F254518A429ABF820C7C32C5
:101D78007E22D6E789688E4204D04A6822F00302A0
:101D88009042F7D3CE68DAE7BDE8F081F80000208A
:101D98000405002054050020000100202DE9F04131
:101DA800884600F1D804002614B93046BDE8F08111
:101DB800A5686768013F01D52468F5E7AB89012B61
:101DC80006D9B5F90E30013302D02846C04706437C
:101DD8006835EFE72DE9F8438046894600F1D804D5
:101DE800002614B93046BDE8F883A5686768013F46
:101DF80001D52468F5E7AB89012B07D9B5F90E3071
:101E0800013303D029464046C84706436835EEE704
:101E1800704770477047704770B50E46B1F90E109D
:101E2800002990B014461D4609DAB389002213F040
:101E380080002A6016D14FF48063236015E001AA60
:101E480000F0FAFB0028F0DB029A02F47042A2F5D7
:101E580000535A425A414FF480632A604FF400609D
:101E6800236002E040232360104610B070BD0000DC
:101E78008B8973B59D0706460C4607D504F14703C1
:101E8800236023610123636102B070BD01AB6A4620
:101E9800FFF7C2FF00990546304600F029F848B917
:101EA800B4F90C309A05EFD423F0030343F002038E
:101EB800A381E3E70D4BB362A389206043F080035D
:101EC800A381009B6361019B20615BB1B4F90E1093
:101ED800304600F0C3FB28B1A38923F0030343F085
:101EE8000103A381A3891D43A581CDE7D11900086A
:101EF8002DE9F74F01F10B04162C814607D934F070
:101F0800070405D50C23C9F80030002631E1102458
:101F18008C42F7D3484600F001FAB4F5FC7F9C4D9B
:101F280036D204F108022A44A2F1080156688E420A
:101F38004FEAD40302D1D668B24210D07368F2686F
:101F4800B16823F00303CA60334491605A6842F0D1
:101F580001025A60484600F0E7F9083609E1023301
:101F68008C4A2E69964211466DD0706820F00300A5
:101F7800071B0F2F47DD331944F0010474606B61B0
:101F88002B61DA609A6047F001025A603750E1E746
:101F9800630A2AD0042B12D8A30938335A1C05EB3C
:101FA800C202A2F108005668864206D0726822F082
:101FB8000302111B0F291CDD013B0133D0E7142B51
:101FC80001D85B33EAE7542B02D8230B6E33E5E7DD
:101FD800B3F5AA7F02D8E30B7733DFE740F2545218
:101FE800934204D8A30C7C33D8E73F23D6E77E235B
:101FF800D4E70029F16804DBB368D9608B60B318B3
:10200800A4E70E46D0E7002F6A612A6105DB304459
:10201800436843F0010343609CE7B0F5007F44D276
:10202800C0088710012202FA07F76A6801303A43AC
:102038006A6005EBC00255F83070B760083AF26084
:1020480045F83060FE6001209A1000FA02F26868D4
:10205800824200F2A180024206D123F0030352001B
:10206800024203F10403FAD005EBC30CE0469E4696
:10207800D8F80C60464553D10EF1010E1EF0030F3F
:1020880008F10808F4D1980779D16B6823EA0203AC
:102098006B606868520082427ED8002A7CD0734602
:1020A8000242E1D104335200FAE7420A042A15D861
:1020B80082093832571C05EBC20E55F83770BE45F9
:1020C80026D10120921000FA02F268681043686075
:1020D800C6F80CE0B760CEF80860B3E7142A01D858
:1020E8005B32E7E7542A02D8020B6E32E2E7B2F518
:1020F800AA7F02D8C20B7732DCE740F25457BA42C3
:102108009ABF820C7C327E22D4E7BF68BE4504D0D9
:102118007A6822F003029042F7D3D7F80CE0D7E7A9
:102128007068F76820F00300A0EB040ABAF10F0FFB
:1021380010DDB268331944F001047460D760BA60E6
:102148004AF001026B612B61D96099605A6046F8C8
:1021580000A0FFE6BAF1000F0FDB3044436843F0FC
:102168000103436056F8083F4846DF60BB6000F053
:10217800DBF8304603B0BDE8F08F3E467AE75CF8FE
:102188000809844503F1FF333FF47DAF81E700BFC1
:10219800F800002000010020D5F808B0DBF8046042
:1021A80026F00306B44203D8331B0F2B00F39680A6
:1021B8004F4A17684F4A1168103701310BEB060375
:1021C800274405D04C4901390F44013149420F4099
:1021D800394648460192009300F04CF9B0F1FF3FB0
:1021E800804656D0009B019A834201D9AB4550D115
:1021F80042480168434507EB010EC0F800E040493A
:10220800824613D10B4211D1AB683E4446F0010619
:102218005E603C4ADAF8003011688B4288BF136070
:10222800394A11688B4288BF136032E01068013068
:102238001BBFA8EB03037344C2F80080CAF8003040
:1022480018F007001CBFC0F1080080442A4B47441F
:1022580018440F40C71B3946484600F00BF9431C89
:1022680008BF4046DAF80030C5F8088008BF0027E4
:10227800A0EB08003B44074447F00107AB45CAF808
:102288000030C8F80470C4D00F2E10D80123C8F845
:102298000430AB685A6822F003029442A2EB0403AC
:1022A80001D80F2B1ADC484600F03EF82DE6DBF883
:1022B80004300C3E26F0070603F001033343CBF845
:1022C80004300BEB060305220F2E5A609A60A0D942
:1022D8000BF108014846FFF7A5FC9AE7AE6844F001
:1022E8000102344443F001037260AC60636031E67C
:1022F800540500200005002080000000240500206F
:102308007F0000004C0500205005002002440346D1
:10231800934200D1704703F8011BF9E70148FFF722
:1023280079BD00BFE00500200148FFF774BD00BF7C
:10233800E0050020838903F00903092B01D1FFF789
:1023480031BB002070470000F8B50C46054618B1AF
:1023580083690BB9FFF790FB414B9C4215D16C6820
:10236800B4F90C309F0406D443F40053A381636E80
:1023780023F400536366B4F90C200023636093B21E
:102388009E060CD54FF0FF30F8BD364B9C4201D16C
:10239800AC68E5E7344B9C4208BFEC68E0E75807B7
:1023A80048D4D90605D4092342F040022B60A28103
:1023B800E8E71A070BD521462846FFF7B7FA0028A1
:1023C800E0D1A389A06023F00803A381A061A389B9
:1023D80043F00403A38123691BB921462846FFF76C
:1023E80047FDB4F90C70BEB2B3070FD00123A38127
:1023F8001E4B1F49186806F00906FFF7CFFC092E87
:10240800A78103D121462846FFF7FEF922692260F9
:10241800666A6369216A2846B047002860601CDC48
:10242800A38917BF002243F0200343F040036260F2
:10243800A381A7E7616B0029CDD004F14403994239
:1024480002D02846FFF7EEFB236C63600020606330
:10245800002BC0D0E36B2360F8BD0020F8BD00BF9F
:10246800B8270008D82700089827000894270008EC
:102478003D23000838B5064C00230546084623606E
:1024880000F048F9431C02D1236803B12B6038BD22
:10249800E805002010B50C46B1F90E1000F000F95F
:1024A8000028ABBF636DA3891B1823F48053ACBF0E
:1024B8006365A38110BD2DE9F0411F468B89DB05BB
:1024C80005460C46164605D502230022B1F90E1022
:1024D80000F0D4F8A389B4F90E1023F48053A38133
:1024E80032463B462846BDE8F04100F017B810B523
:1024F8000C46B1F90E1000F0C1F8431CA38915BFB2
:10250800606523F4805343F48053A38118BFA381EB
:1025180010BDB1F90E1000F013B8000038B5074C23
:10252800054608461146002222601A4600F000F9C6
:10253800431C02D1236803B12B6038BDE805002095
:1025480038B5064C002305460846236000F0BAF863
:10255800431C02D1236803B12B6038BDE805002075
:1025680070B505460C4611B90026304670BD18B145
:1025780083690BB9FFF780FA2C4B9C4214D16C6825
:10258800636ED80705D4A389990502D4A06DFFF717
:1025980041FCB4F90C308BB9666E16F00106E3D134
:1025A800A06DFFF738FCE0E7214B9C4201D1AC68F5
:1025B800E6E7204B9C4208BFEC68E1E72146284645
:1025C800FFF722F9236B064633B1216A284698475C
:1025D8000028B8BF4FF0FF36A3891A0603D5216932
:1025E8002846FFF71FFB616B41B104F14403994290
:1025F80002D02846FFF716FB00236363A16C21B1C4
:102608002846FFF70FFB0023A364FFF71DFA0023FA
:10261800A381636EDB0702D4A06DFFF7FCFBA06DFE
:10262800FFF7F7FBFFF716FA9FE700BFB827000888
:10263800D82700089827000838B5074C0023054616
:1026480008461146236000F045F8431C02D1236870
:1026580003B12B6038BD00BFE805002038B5064C33
:10266800002305460846236000F03CF8431C02D1CD
:10267800236803B12B6038BDE805002038B5074C46
:10268800054608461146002222601A4600F032F834
:10269800431C02D1236803B12B6038BDE805002034
:1026A80038B5074C054608461146002222601A46EE
:1026B80000F028F8431C02D1236803B12B6038BD11
:1026C800E8050020024B58221A604FF0FF3070478F
:1026D800E8050020024B58221A604FF0FF3070477F
:1026E800E8050020024B58221A600020704700BFFE
:1026F800E8050020024B58221A604FF0FF3070475F
:10270800E8050020024B58221A604FF0FF3070474E
:10271800E8050020044B1968024609B90349196005
:10272800186802441A60704758050020EC0500201C
:10273800024B58221A604FF0FF307047E80500201E
:10274800F8B500BFF8BC08BC9E467047F8B500BF96
:08275800F8BC08BC9E46704766
:102760000000000000000000010203040607080941
:1027700000000000010203042E2E5C5372635C749F
:10278000696D2E63002E2E5C5372635C75736172EB
:10279000742E63000800002000000000000000000C
:1027A0000000000000000000000000000000000029
:1027B0000000000000000000000000000000000019
:1027C0000000000000000000000000000000000009
:1027D00000000000000000000000000000000000F9
:1027E00000000000000000000000000000000000E9
:0827F0000000000000000000E1
:0427F800AD01000827
:0427FC008901000847
:102800000024F4000800002000000000B8270008A1
:10281000D8270008982700080000000000000000EA
:1028200000000000000000000000000000000000A8
:102830000000000000000000000000000000000098
:102840000000000000000000000000000000000088
:102850000000000000000000000000000000000078
:102860000000000000000000000000000000000068
:102870000000000000000000000000000000000058
:102880000000000000000000000000000000000048
:102890000000000000000000000000000000000038
:1028A0000000000000000000000000000000000028
:1028B0000000000000000000000000000000000018
:1028C0000000000000000000000000000000000008
:1028D00000000000000000000000000000000000F8
:1028E00000000000000000000000000000000000E8
:1028F00000000000000000000000000000000000D8
:10290000F8000020F8000020000100200001002055
:102910000801002008010020100100201001002003
:1029200018010020180100202001002020010020B3
:102930002801002028010020300100203001002063
:102940003801002038010020400100204001002013
:1029500048010020480100205001002050010020C3
:102960005801002058010020600100206001002073
:102970006801002068010020700100207001002023
:1029800078010020780100208001002080010020D3
:102990008801002088010020900100209001002083
:1029A0009801002098010020A0010020A001002033
:1029B000A8010020A8010020B0010020B0010020E3
:1029C000B8010020B8010020C0010020C001002093
:1029D000C8010020C8010020D0010020D001002043
:1029E000D8010020D8010020E0010020E0010020F3
:1029F000E8010020E8010020F0010020F0010020A3
:102A0000F8010020F8010020000200200002002050
:102A100008020020080200201002002010020020FE
:102A200018020020180200202002002020020020AE
:102A3000280200202802002030020020300200205E
:102A4000380200203802002040020020400200200E
:102A500048020020480200205002002050020020BE
:102A6000580200205802002060020020600200206E
:102A7000680200206802002070020020700200201E
:102A800078020020780200208002002080020020CE
:102A9000880200208802002090020020900200207E
:102AA0009802002098020020A0020020A00200202E
:102AB000A8020020A8020020B0020020B0020020DE
:102AC000B8020020B8020020C0020020C00200208E
:102AD000C8020020C8020020D0020020D00200203E
:102AE000D8020020D8020020E0020020E0020020EE
:102AF000E8020020E8020020F0020020F00200209E
:102B0000F8020020F802002000030020000300204B
:102B100008030020080300201003002010030020F9
:102B200018030020180300202003002020030020A9
:102B30002803002028030020300300203003002059
:102B40003803002038030020400300204003002009
:102B500048030020480300205003002050030020B9
:102B60005803002058030020600300206003002069
:102B70006803002068030020700300207003002019
:102B800078030020780300208003002080030020C9
:102B90008803002088030020900300209003002079
:102BA0009803002098030020A0030020A003002029
:102BB000A8030020A8030020B0030020B0030020D9
:102BC000B8030020B8030020C0030020C003002089
:102BD000C8030020C8030020D0030020D003002039
:102BE000D8030020D8030020E0030020E0030020E9
:102BF000E8030020E8030020F0030020F003002099
:102C0000F8030020F8030020000400200004002046
:102C100008040020080400201004002010040020F4
:102C200018040020180400202004002020040020A4
:102C30002804002028040020300400203004002054
:102C40003804002038040020400400204004002004
:102C500048040020480400205004002050040020B4
:102C60005804002058040020600400206004002064
:102C70006804002068040020700400207004002014
:102C800078040020780400208004002080040020C4
:102C90008804002088040020900400209004002074
:102CA0009804002098040020A0040020A004002024
:102CB000A8040020A8040020B0040020B0040020D4
:102CC000B8040020B8040020C0040020C004002084
:102CD000C8040020C8040020D0040020D004002034
:102CE000D8040020D8040020E0040020E0040020E4
:102CF000E8040020E8040020F0040020F004002094
:082D0000FFFFFFFF00000200CD
:040000050800158555
:00000001FF
