:020000040800F2
:100000000000022091100008970F0008990F0008C7
:100010009B0F00089D0F00089F0F000800000000C4
:10002000000000000000000000000000A10F000818
:10003000A30F000800000000A50F0008A70F00088C
:10004000E1100008E1100008E1100008E1100008CC
:10005000E1100008E1100008E1100008E1100008BC
:10006000E1100008E1100008E1100008E1100008AC
:10007000E1100008E1100008E1100008E11000089C
:10008000E1100008E1100008E1100008E11000088C
:10009000E1100008E1100008E1100008E11000087C
:1000A000E1100008E1100008E1100008E11000086C
:1000B000E1100008E1100008E1100008E11000085C
:1000C000E1100008E1100008E1100008E11000084C
:1000D000E1100008E1100008E1100008E11000083C
:1000E000E1100008E1100008E1100008E11000082C
:1000F000E1100008E1100008E1100008E11000081C
:10010000E1100008E1100008E1100008E11000080B
:10011000E1100008E1100008E1100008E1100008FB
:10012000E1100008E1100008E1100008E1100008EB
:10013000E1100008E1100008E1100008E1100008DB
:10014000E1100008E1100008E1100008E1100008CB
:10015000E1100008E1100008E1100008E1100008BB
:10016000E1100008E1100008E1100008E1100008AB
:10017000E1100008E1100008E11000080000000094
:08018000E1100008E110000885
:1001880010B5054C237833B9044B13B10448AFF3C9
:1001980000800123237010BD04000020000000002F
:1001A8002C11000808B5034B1BB103490348AFF3F2
:1001B800008008BD00000000080000202C11000885
:1001C80010B5084B044618684FF47A73B0FBF3F087
:1001D80000F078F8002221464FF0FF3000F03EF89A
:1001E800002010BD0000002008B50B4B1A6842F42F
:1001F80000721A601A6842F480621A601A6842F43F
:1002080080721A60032000F017F80020FFF7D8FF6B
:1002180000F08DFE002008BD003C0240024A136831
:1002280001331360704700BF20000020014B18689D
:10023800704700BF20000020074AD36823F4E0631A
:100248001B041B0C43F0BF63000243F4003300F4AB
:10025800E0600343D360704700ED00E0174B30B512
:10026800DC68C4F30224C4F10703251D042B28BF4E
:100278000423062D4FF0010505FA03F303F1FF33BC
:100288008CBF033C00241940A14005FA04F4013C4A
:100298002240002842EA01024FEA0212AFBF00F1F1
:1002A800604000F00F00064BD2B2A5BF00F56140D8
:1002B800D2B21A5480F8002330BD00BF00ED00E030
:1002C80014ED00E00138B0F1807F0AD2064B074AEE
:1002D8005860F02182F823100020072298601A60E5
:1002E80070470120704700BF10E000E000ED00E01B
:1002F800044B1A6804280CBF42F0040222F00402DE
:100308001A60704710E000E0704708B5FFF7FCFF7F
:1003180008BD00002DE9F04F85B00B68DFF8AC810F
:10032800684ADFF8AC91019300234FF0010E019C5D
:100338000EFA03FE0EEA0406B64540F0AE804C689D
:1003480024F01007022F16D14FEAD30A00EB8A0ACD
:1003580003F0070BDAF820504FEA8B0B4FF00F0C25
:100368000CFA0BFC25EA0C0C0D6905FA0BF545EAAD
:100378000C05CAF820504FEA430A0325D0F800B00C
:1003880005FA0AF5ED4304F0030C0BEA050B0CFA29
:100398000AFC013F4CEA0B0C012FC0F800C011D831
:1003A800876807EA050BCF6807FA0AFC4CEA0B07CF
:1003B8008760476827EA0E0EC4F300179F4047EA94
:1003C8000E074760C7683D408F6807FA0AF73D4344
:1003D800C560E50061D54FF0000BCDF80CB0D8F83A
:1003E8004470394D47F48047C8F84470D8F84470D1
:1003F80007F480470397039F23F0030707F180471B
:1004080007F59C3703F0030CD7F808A04FEA8C0CCB
:100418004FF00F0E0EFA0CFEA8422AEA0E0E43D039
:1004280005F58065A84241D005F58065A8423FD012
:1004380005F58065A8423DD005F58065A8423BD00A
:1004480048453BD005F50065A84239D005F58065DB
:10045800A84214BF0825072505FA0CF545EA0E053C
:10046800BD601568F74314F4803F0CBF3D40354329
:100478001560556814F4003F0CBF3D403543556086
:10048800956814F4801F0CBF3D4035439560D568CE
:10049800A40254BF3D403543D5600133102B7FF48F
:1004A80044AF05B0BDE8F08F5D46D5E70125D3E739
:1004B8000225D1E70325CFE70425CDE70525CBE7BE
:1004C8000625C9E7003C0140000002400038024010
:1004D800001402400AB1816170470904FBE700007B
:1004E8000368F7B50446D8073BD42368990700F199
:1004F800868023681E0700F1D18023685D072AD50E
:10050800002301938E4B8F4D1A6C42F080521A646F
:100518001B6C03F080530193019B2B6843F4807399
:100528002B60FFF783FE06462B68DA0540F1D8807A
:10053800A368834D012B40F0DA802B6F43F0010351
:100548002B67FFF773FE7E4D064641F288372B6F07
:100558009B0740F1ED80A269002A40F0F980002055
:1005680015E0774B9A6802F00C02042A07D09A68C3
:1005780002F00C02082A0CD15B685A0209D5704BAC
:100588001B689B03B1D56368002BAED1012003B073
:10059800F0BD63686A4DB3F5803F11D12B6843F411
:1005A80080332B60FFF742FE654D06462B689F039C
:1005B8009BD4FFF73BFE801B6428F7D90320E6E7AE
:1005C800B3F5A02F04D12B6843F480232B60E5E713
:1005D8002A6822F480322A602A6822F480222A605B
:1005E800002BDFD1FFF722FE06462B6898037FF524
:1005F8007CAFFFF71BFE801B6428F6D9DEE7504B63
:100608009A6812F00C0F07D09A6802F00C02082AB8
:1006180016D15B68590213D4494B1A68920702D560
:10062800E268012AB2D11868F82292FAA2F2B2FA64
:1006380082F122698A4020F0F8010A431A6058E7DB
:10064800E268414BDAB101221A60FFF7EFFD3C4D39
:1006580006462B689B070CD52968F82393FAA3F361
:10066800B3FA83F22369934021F0F80213432B6015
:100678003FE7FFF7DBFD801B0228EAD99EE71A60F7
:10068800FFF7D4FD2E4D06462B689F077FF531AF47
:10069800FFF7CCFD801B0228F6D98FE762692B4B48
:1006A8007AB101221A60FFF7C1FD254D06466B6F2E
:1006B80098073FF522AFFFF7B9FD801B0228F6D94E
:1006C8007CE71A60FFF7B2FD1D4D06466B6F990770
:1006D8007FF513AFFFF7AAFD801B0228F6D96DE757
:1006E800FFF7A4FD801B02287FF61EAF66E7052BE7
:1006F80004D12B6F43F004032B671EE72A6F22F007
:1007080001022A672A6F22F004022A67002B7FF46D
:1007180018AFFFF78BFD41F2883706462B6F980715
:100728007FF519AFFFF782FD801BB842F6D945E780
:10073800FFF77CFD801BB8427FF609AF3EE700BF9C
:10074800003802400070004000004742800E4742D7
:100758002B4DAB6803F00C03082B3FF417AF294E61
:100768000023022A33603ED1FFF760FD07462B685D
:10077800990132D447F6C07797FAA7F74FF4403279
:10078800B7FA87F792FAA2F24FF07061B2FA82F0E4
:1007980091FAA1F1226AE3691343626A02FA07F740
:1007A800A26A5208013A82403B431343E26A144C5E
:1007B800B1FA81F102FA01F10B436B600123336056
:1007C800FFF734FD054623689A013FF5C8AEFFF7E9
:1007D8002DFD401B0228F6D9F0E6FFF727FDC01BC8
:1007E8000228C4D9EAE6FFF721FD04462B689B01DD
:1007F8007FF5B5AEFFF71AFD001B0228F6D9DDE636
:100808000038024060004742194A936803F00C031D
:10081800042B10B503D0082B03D0164810BD16487A
:1008280010BD5168536801F03F0113F4800F47F67B
:10083800C074536894FAA4F0B0FA80F003EA040391
:1008480023FA00F314BF0C480A48B0FBF1F05843F0
:10085800074B4FF440325B6892FAA2F2B2FA82F286
:1008680003F44033D34001335B00B0FBF3F010BD19
:10087800003802400024F40040787D01564B1A6885
:1008880002F00F028A422DE9F04105460E4630D3A8
:100898002A68940737D4D0073DD44F4B1A6802F022
:1008A8000F029642C0F088802A68510700F18C80B8
:1008B800130707D5494A2969936823F4604343EA33
:1008C800C1039360FFF7A0FF444BF0229B6892FAA4
:1008D800A2F2B2FA82F203F0F003D340404AD35CAA
:1008E800D840404B18600020FFF76AFC0020BDE8A4
:1008F800F081CAB21A701B6803F00F039942C7D07F
:100908000120BDE8F0813549A8688B6823F0F00321
:1009180003438B60BFE76A68304B012A1ED11B680E
:1009280013F4003FECD02D4CA36823F003031343CA
:10093800A360FFF77BFC6B68012B074641F2883800
:1009480016D1A36803F00C03042BA6D0FFF76EFCA6
:10095800C01B4045F5D90320BDE8F081911E01294F
:100968001B6802D813F0007FDCE713F0020FD9E709
:10097800022B0AD1A36803F00C03082B8DD0FFF7D4
:1009880055FCC01B4045F5D9E5E7032B0FD1A368FB
:1009980003F00C030C2B80D0FFF748FCC01B40452C
:1009A800F5D9D8E7FFF742FCC01B4045D3D8A36868
:1009B80013F00C0FF6D170E7F2B21A701B6803F04F
:1009C8000F039E429CD16FE70449E8688B6823F4C3
:1009D800E05303438B606BE7003C02400038024061
:1009E8004411000800000020014B1868704700BF40
:1009F80000000020084B4FF4E0529B6892FAA2F2E4
:100A0800B2FA82F203F4E053D340044AD35C044AB6
:100A18001068D840704700BF0038024054110008E1
:100A280000000020084B4FF460429B6892FAA2F243
:100A3800B2FA82F203F46043D340044AD35C044A16
:100A48001068D840704700BF0038024054110008B1
:100A5800000000202DE9F0470668C2683369C169C3
:100A680023F4405313433361044683680069F268F2
:100A78000343606922F41642034322F00C020B433D
:100A88001343F3607369A26923F440731343B1F508
:100A9800004F73617A4B7CD19E4203D003F580638B
:100AA8009E4244D1FFF7BEFF192505FB00F360689D
:100AB8004FF064094000B3FBF0F3B3FBF9F34FEADE
:100AC8000318FFF7AFFF636868435B00B0FBF3F7F9
:100AD800FFF7A8FF636868435B00B0FBF3F3B3FB61
:100AE800F9F309FB1373DB003233B3FBF9F35B0053
:100AF80003F4F877FFF796FF626868435200B0FB8B
:100B0800F2FAFFF78FFF636868435B00B0FBF3F30B
:100B1800B3FBF9F309FB13A3DB003233B3FBF9F39F
:100B280003F0070343443B44B360BDE8F087FFF795
:100B380061FF192505FB00F360684FF06409400068
:100B4800B3FBF0F3B3FBF9F34FEA0318FFF752FFD7
:100B5800636868435B00B0FBF3F7FFF74BFF63681C
:100B680068435B00B0FBF3F3B3FBF9F309FB1373C2
:100B7800DB003233B3FBF9F35B0003F4F877FFF7DC
:100B880039FF626868435200B0FBF2FAFFF732FFA0
:100B9800B9E79E4202D03B4B9E4240D1FFF742FF4D
:100BA800676819254FF0640905FB00F3BF00B3FB24
:100BB800F7F3B3FBF9F31F01FFF734FF63686843EA
:100BC8009B00B0FBF3F8FFF72DFF636868439B00B9
:100BD800B0FBF3F3B3FBF9F309FB13831B013233C7
:100BE800B3FBF9F303F0F008FFF71CFF62686843F2
:100BF8009200B0FBF2FAFFF715FF636868439B00A9
:100C0800B0FBF3F3B3FBF9F309FB13A31B01323376
:100C1800B3FBF9F303F00F0343EA080383E7FFF795
:100C2800E9FE676819254FF0640905FB00F3BF006A
:100C3800B3FBF7F3B3FBF9F31F01FFF7DBFE6368C0
:100C480068439B00B0FBF3F8FFF7D4FE6368684382
:100C58009B00B0FBF3F3B3FBF9F309FB13831B0110
:100C68003233B3FBF9F303F0F008FFF7C3FE626811
:100C780068439200B0FBF2FAFFF7BCFEBDE700BF85
:100C88000010014000140140F8B504460E4617460E
:100C98001D4621680B6836EA030301D10020F8BD20
:100CA8006B1CF7D095B92368DA6822F4D072DA6041
:100CB8005A6922F001025A61202384F8393084F8F5
:100CC8003A30002384F838300320F8BDFFF7AEFA35
:100CD800C01B8542DDD2E6E710B5044640B390F864
:100CE800393003F0FF021BB980F8382000F0A4F96E
:100CF8002268242384F83930D36823F40053D3605E
:100D08002046FFF7A7FE23681A6922F490421A6169
:100D18005A6922F02A025A61DA6842F40052DA600B
:100D280000202023E06384F8393084F83A3010BD7D
:100D3800012010BD2DE9F0411F4690F83A30202BD4
:100D480004460D46904652D100294DD0002A4BD07A
:100D580090F83830012B4AD0012380F8383000232E
:100D6800C363222380F83A30FFF760FAA4F82C8096
:100D78000646A4F82E80E08D80B230B9202384F88E
:100D88003A3084F83800BDE8F081E38D013B9BB22E
:100D9800E385A368B3F5805F32463B464FF02001F8
:100DA800204612D1FFF770FF10B10320BDE8F08193
:100DB800236822695B6822B9C3F3080325F8023B5C
:100DC800D9E7DBB225F8013BD5E7FFF75DFF00283F
:100DD800EBD1236821695B686A1C11B92B70154631
:100DE800C9E703F07F03F9E70120BDE8F08102209D
:100DF800BDE8F08130B589B0134B144D002401943F
:100E08001A6B42F001021A631A6B02F00102019296
:100E1800019A02941A6B42F010021A631B6B0122AA
:100E280003F01003114602932846029BFFF752FB7A
:100E3800012303A928460393049305940694FFF716
:100E480069FA09B030BD00BF003802400010024006
:100E580010B594B00023214A0193116C41F08051E0
:100E68001164126C02F080520192019A1C4A02939A
:100E7800116841F48041116012680E9302F48042B7
:100E88000292029A0222089201220B9208A81022CA
:100E98000C92FFF725FB014600B1FEE70F230490F3
:100EA80005900690079003A80393FFF7E7FC044614
:100EB80000B1FEE7FFF798FD4FF47A73B0FBF3F04B
:100EC800FFF700FA0420FFF713FA224621464FF0F5
:100ED800FF30FFF7C3F914B010BD00BF003802405F
:100EE8000070004007B5FFF77FF9FFF7B1FFFFF784
:100EF80081FF00F081F80B4D0B4C6423012201A9FE
:100F08002846FFF717FF9DF80430312B05D1002242
:100F180001212046FFF7DEFAEFE7302BEDD1012261
:100F2800F6E700BF2400002000100240FEE708B5E5
:100F38000320FFF781F9002211466FF00B00FFF73D
:100F48008DF9002211466FF00A00FFF787F9002299
:100F580011466FF00900FFF781F9002211466FF082
:100F68000400FFF77BF9002211466FF00300FFF73A
:100F780075F9002211466FF00100FFF76FF90022A2
:100F880011464FF0FF30BDE80840FFF767B97047DA
:100F9800FEE7FEE7FEE7FEE770477047704708B5D3
:100FA800FFF73CF9BDE80840FFF7AFB90F49D1F8A2
:100FB800883043F47003C1F888300D4B1A6800205C
:100FC80042F001021A6098601A6822F0847222F4D2
:100FD80080321A60074A5A601A6822F480221A601E
:100FE800D8604FF000638B60704700BF00ED00E0F1
:100FF800003802401030002408B50C480C4B4FF460
:10100800165E80E808400C2200238360C3600361F9
:1010180042618361C361FFF75FFE28B14221054841
:10102800BDE80840FFF782BF08BD00BF24000020CC
:10103800004400405C1100087FB502680F4B9A42DB
:1010480019D1002300930E4B0E481A6C42F400325B
:101058001A641B6C03F400330093009B0C23019368
:1010680002230293012303930323049301A9072373
:101078000593FFF74FF907B05DF804FB0044004003
:101088000038024000000240DFF834D0002103E0BD
:101098000C4B5B58435004310B480C4B42189A4296
:1010A800F6D30B4A02E0002342F8043B094B9A426C
:1010B800F9D3FFF77BFF00F011F8FFF713FF704734
:1010C8000000022074110008000000200400002025
:1010D8000400002064000020FEE7000070B50D4EFB
:1010E8000D4CA41BA4100025A54209D10B4E0C4C95
:1010F80000F018F8A41BA4100025A54205D170BD66
:1011080056F8253098470135EEE756F825309847C8
:101118000135F2E76C1100086C1100086C11000829
:1011280070110008F8B500BFF8BC08BC9E467047AF
:0C113800F8B500BFF8BC08BC9E4670472C
:101144000000000000000000010203040607080973
:1011540000000000010203042E2E5C5372635C75D0
:08116400736172742E63000038
:04116C00AD010008C9
:0411700089010008E9
:041174000024F4005F
:04000005080010914E
:00000001FF
