:020000040800F2
:1000000000000220811C00088B1B00088D1B0008CB
:100010008F1B0008911B0008931B000800000000C4
:10002000000000000000000000000000951B000818
:10003000971B000800000000991B00089B1B00088C
:10004000D11C0008D11C0008D11C0008D11C0008DC
:10005000D11C0008D11C0008D11C0008D11C0008CC
:10006000D11C0008D11C0008D11C0008D11C0008BC
:10007000D11C0008D11C0008D11C0008D11C0008AC
:10008000A91B0008D11C0008D11C0008D11C0008C5
:10009000D11C0008D11C0008D11C0008D11C00088C
:1000A000D11C0008D11C0008D11C0008D11C00087C
:1000B000D11C0008D11C0008D11C0008D11C00086C
:1000C000D11C0008D11C0008D11C0008D11C00085C
:1000D000D11C0008D11C0008D11C0008D11C00084C
:1000E000D11C0008D11C0008D11C0008D11C00083C
:1000F000D11C0008D11C0008D11C0008D11C00082C
:10010000D11C0008D11C0008D11C0008D11C00081B
:10011000D11C0008D11C0008D11C0008D11C00080B
:10012000D11C0008D11C0008D11C0008D11C0008FB
:10013000D11C0008D11C0008D11C0008D11C0008EB
:10014000D11C0008D11C0008D11C0008D11C0008DB
:10015000D11C0008D11C0008D11C0008D11C0008CB
:10016000D11C0008D11C0008D11C0008D11C0008BB
:10017000D11C0008D11C0008D11C000800000000A0
:08018000D11C0008D11C00088D
:1001880010B5054C237833B9044B13B10448AFF3C9
:1001980000800123237010BD04000020000000002F
:1001A8007C28000808B5034B1BB103490348AFF38B
:1001B800008008BD00000000080000207C2800081E
:1001C80081F0004102E000BF83F0004330B54FEA00
:1001D80041044FEA430594EA050F08BF90EA020F6D
:1001E8001FBF54EA000C55EA020C7FEA645C7FEA00
:1001F800655C00F0E2804FEA5454D4EB5555B8BF23
:100208006D420CDD2C4480EA020281EA030382EA93
:10021800000083EA010180EA020281EA0303362D25
:1002280088BF30BD11F0004F4FEA01314FF4801CF8
:100238004CEA113102D0404261EB410113F0004F0A
:100248004FEA03334CEA133302D0524263EB4303C1
:1002580094EA050F00F0A780A4F10104D5F1200E5F
:100268000DDB02FA0EFC22FA05F2801841F10001BA
:1002780003FA0EF2801843FA05F359410EE0A5F18E
:1002880020050EF1200E012A03FA0EFC28BF4CF0BF
:10029800020C43FA05F3C01851EBE37101F0004575
:1002A80007D54FF0000EDCF1000C7EEB00006EEB82
:1002B8000101B1F5801F1BD3B1F5001F0CD349080C
:1002C8005FEA30004FEA3C0C04F101044FEA445263
:1002D80012F5800F80F09A80BCF1004F08BF5FEAEA
:1002E800500C50F1000041EB045141EA050130BDCA
:1002F8005FEA4C0C404141EB010111F4801FA4F16D
:100308000104E9D191F0000F04BF01460020B1FAC1
:1003180081F308BF2033A3F10B03B3F120020CDAF9
:100328000C3208DD02F1140CC2F10C0201FA0CF0D7
:1003380021FA02F10CE002F11402D8BFC2F1200C3C
:1003480001FA02F120FA0CFCDCBF41EA0C019040F2
:10035800E41AA2BF01EB0451294330BD6FEA04043B
:100368001F3C1CDA0C340EDC04F11404C4F1200226
:1003780020FA04F001FA02F340EA030021FA04F338
:1003880045EA030130BDC4F10C04C4F1200220FA8F
:1003980002F001FA04F340EA0300294630BD21FACD
:1003A80004F0294630BD94F0000F83F4801306BF93
:1003B80081F480110134013D4EE77FEA645C18BF87
:1003C8007FEA655C29D094EA050F08BF90EA020F1E
:1003D80005D054EA000C04BF1946104630BD91EA16
:1003E800030F1EBF0021002030BD5FEA545C05D119
:1003F8004000494128BF41F0004130BD14F5800458
:100408003CBF01F5801130BD01F0004545F0FE41CB
:1004180041F470014FF0000030BD7FEA645C1ABF00
:10042800194610467FEA655C1CBF0B46024650EA37
:10043800013406BF52EA033591EA030F41F4002163
:1004480030BD00BF90F0000F04BF0021704730B5E9
:100458004FF4806404F132044FF000054FF00001BE
:1004680050E700BF90F0000F04BF0021704730B57F
:100478004FF4806404F1320410F0004548BF404254
:100488004FF000013EE700BF42004FEAE2014FEAA9
:1004980031014FEA02701FBF12F07F4393F07F4F84
:1004A80081F06051704792F0000F14BF93F07F4FB6
:1004B800704730B54FF4607401F0004521F00041F9
:1004C80020E700BF50EA010208BF704730B54FF07F
:1004D80000050AE050EA010208BF704730B511F084
:1004E800004502D5404261EB41014FF4806404F1BC
:1004F80032045FEA915C3FF4DCAE4FF003025FEA3E
:10050800DC0C18BF03325FEADC0C18BF033202EBC5
:10051800DC02C2F1200300FA03FC20FA02F001FA1F
:1005280003FE40EA0E0021FA02F11444C1E600BFBE
:1005380070B54FF0FF0C4CF4E06C1CEA11541DBF71
:100548001CEA135594EA0C0F95EA0C0F00F0DEF83C
:100558002C4481EA030621EA4C5123EA4C5350EA21
:10056800013518BF52EA033541F4801143F4801372
:1005780038D0A0FB02CE4FF00005E1FB02E506F003
:100588000042E0FB03E54FF00006E1FB03569CF058
:10059800000F18BF4EF0010EA4F1FF04B6F5007F5E
:1005A80064F5407404D25FEA4E0E6D4146EB0606D0
:1005B80042EAC62141EA55514FEAC52040EA5E5059
:1005C8004FEACE2EB4F1FD0C88BFBCF5E06F1ED803
:1005D800BEF1004F08BF5FEA500E50F1000041EB3A
:1005E800045170BD06F0004646EA010140EA0200E7
:1005F80081EA0301B4EB5C04C2BFD4EB0C0541EA09
:10060800045170BD41F480114FF0000E013C00F31D
:10061800AB8014F1360FDEBF002001F0004170BD41
:10062800C4F10004203C35DA0C341BDC04F114045A
:10063800C4F1200500FA05F320FA04F001FA05F2E6
:1006480040EA020001F0004221F0004110EBD370B3
:1006580021FA04F642EB06015EEA430E08BF20EADF
:10066800D37070BDC4F10C04C4F1200500FA04F382
:1006780020FA05F001FA04F240EA020001F0004114
:1006880010EBD37041F100015EEA430E08BF20EA87
:10069800D37070BDC4F1200500FA05F24EEA020ECF
:1006A80020FA04F301FA05F243EA020321FA04F0FE
:1006B80001F0004121FA04F220EA020000EBD370B5
:1006C8005EEA430E08BF20EAD37070BD94F0000FB5
:1006D8000FD101F00046400041EB010111F4801FE9
:1006E80008BF013CF7D041EA060195F0000F18BF9A
:1006F800704703F00046520043EB030313F4801FD6
:1007080008BF013DF7D043EA0603704794EA0C0F8F
:100718000CEA135518BF95EA0C0F0CD050EA4106A5
:1007280018BF52EA4306D1D181EA030101F0004122
:100738004FF0000070BD50EA410606BF104619464A
:1007480052EA430619D094EA0C0F02D150EA013656
:1007580013D195EA0C0F05D152EA03361CBF104697
:1007680019460AD181EA030101F0004141F0FE4136
:1007780041F470014FF0000070BD41F0FE4141F4BA
:10078800780170BD70B54FF0FF0C4CF4E06C1CEABA
:1007980011541DBF1CEA135594EA0C0F95EA0C0F6F
:1007A80000F0A7F8A4EB050481EA030E52EA03352A
:1007B8004FEA013100F088804FEA03334FF080554B
:1007C80045EA131343EA12634FEA022245EA111578
:1007D80045EA10654FEA00260EF000419D4208BF29
:1007E800964244F1FD0404F5407402D25B084FEAD6
:1007F8003202B61A65EB03055B084FEA32024FF482
:1008080080104FF4002CB6EB020E75EB030E22BFDE
:10081800B61A754640EA0C005B084FEA3202B6EB9E
:10082800020E75EB030E22BFB61A754640EA5C004D
:100838005B084FEA3202B6EB020E75EB030E22BFDD
:10084800B61A754640EA9C005B084FEA3202B6EBDE
:10085800020E75EB030E22BFB61A754640EADC009D
:1008680055EA060E18D04FEA051545EA16754FEAFF
:1008780006164FEAC30343EA52734FEAC2025FEA1D
:100888001C1CC0D111F4801F0BD141EA00014FF0AC
:1008980000004FF0004CB6E711F4801F04BF01437D
:1008A8000020B4F1FD0C88BFBCF5E06F3FF6AFAE99
:1008B800B5EB030C04BFB6EB020C5FEA500C50F129
:1008C800000041EB045170BD0EF0004E4EEA1131AC
:1008D80014EB5C04C2BFD4EB0C0541EA045170BDB3
:1008E80041F480114FF0000E013C90E645EA060EF7
:1008F8008DE60CEA135594EA0C0F08BF95EA0C0F25
:100908003FF43BAF94EA0C0F0AD150EA01347FF46C
:1009180034AF95EA0C0F7FF425AF104619462CE743
:1009280095EA0C0F06D152EA03353FF4FDAE1046A6
:10093800194622E750EA410618BF52EA43067FF4F7
:10094800C5AE50EA41047FF40DAF52EA43057FF487
:10095800EBAE12E74A0011D212F5001211D20DD5F2
:100968006FF47873B3EB62520ED44FEAC12343F0AD
:10097800004343EA505323FA02F070474FF0000057
:10098800704750EA013002D14FF0FF3070474FF006
:10099800000070474FEA4102B2F1E04324BFB3F5CB
:1009A800001CDCF1FE5C0DD901F0004C4FEAC002DE
:1009B8004CEA5070B2F1004F40EB830008BF20F0C2
:1009C8000100704711F0804F21D113F13872BCBF7C
:1009D80001F00040704741F480114FEA5252C2F1D1
:1009E8001802C2F1200C10FA0CF320FA02F018BF1A
:1009F80040F001004FEAC1234FEAD32303FA0CFC6D
:100A080040EA0C0023FA02F34FEA4303CCE77FEAFB
:100A1800625307D150EA01331EBF4FF0FE4040F445
:100A28004000704701F0004040F0FE4040F40000F4
:100A3800704700BF10B5084B044618684FF47A7326
:100A4800B0FBF3F000F084F8002221464FF0FF30AD
:100A580000F03EF8002010BD0000002008B50B4B48
:100A68001A6842F400721A601A6842F480621A60C6
:100A78001A6842F480721A60032000F017F8002008
:100A8800FFF7D8FF01F04DF8002008BD003C0240F8
:100A9800024A136801331360704700BF200000202A
:100AA800014B1868704700BF20000020074AD36830
:100AB80023F4E0631B041B0C43F0BF63000243F400
:100AC800003300F4E0600343D360704700ED00E0BA
:100AD800174B30B5DC68C4F30224C4F10703251DA5
:100AE800042B28BF0423062D4FF0010505FA03F354
:100AF80003F1FF338CBF033C00241940A14005FAE1
:100B080004F4013C2240002842EA01024FEA0212A2
:100B1800AFBF00F1604000F00F00064BD2B2A5BF96
:100B280000F56140D2B21A5480F8002330BD00BFEE
:100B380000ED00E014ED00E04209012300F01F0081
:100B480003FA00F0014B43F82200704700E100E08F
:100B58000138B0F1807F0AD2064B074A5860F0216D
:100B680082F823100020072298601A60704701203D
:100B7800704700BF10E000E000ED00E0044B1A6889
:100B880004280CBF42F0040222F004021A607047E5
:100B980010E000E0704708B5FFF7FCFF08BD10B58E
:100BA800044668B1037903F0FF0213B9427100F0FB
:100BB8008FFE02232371002001232061237110BDC1
:100BC800012010BDF8B50546407901280E464FF0C2
:100BD80002001146069A4CD001246C7128712C68C9
:100BE800E6B9A868234FC763234F0764234FC76438
:100BF8002768042A47F48057276009D0082A0AD0B2
:100C0800002A34D104F10802276847F400571AE093
:100C180004F10C02F8E704F11002F5E7E868184F50
:100C2800C763184F0764184FC7642768042A47F03A
:100C38008057276013D0082A14D0B2B904F11402DF
:100C4800276847F00057276000F00CF92B6801214E
:100C58001A68B1401143002019606871F8BD04F1A9
:100C68001802EDE704F11C02EAE70022E8E7324641
:100C7800CAE7F8BD970C0008A90C0008B50C0008D5
:100C8800130D0008230D00082D0D0008704710B53E
:100C9800846B2046FFF7FAFF0123237110BD7047CC
:100CA80008B5806BFFF7FBFF08BD704710B5846B74
:100CB800236943F0040323612046FFF7F6FF01236D
:100CC800237110BD4379012B30B54FF0020317D0C3
:100CD80004680371236840F6FE75954023EA05050C
:100CE8000AC90B4393402B4323602368C02101FAB0
:100CF80002F223EA020201232260037100234371F6
:100D0800184630BD70477047704710B5846B204651
:100D1800FFF7F8FF0123237110BD08B5806BFFF7BB
:100D2800F2FF08BD10B5846B236943F00403236107
:100D38002046FFF7E9FF0123237110BD0368DAB2EB
:100D480023F47F7323F003031821103AB2FBF1F266
:100D58000449032A88BF0433895C8365C165806DB3
:100D6800704700BF9828000870B50446FFF798FE42
:100D78000546002C71D0002384F834302268022301
:100D880084F83530136823F00103136021680B6879
:100D9800D8073CD40B68324D6268A0691D40A3682F
:100DA8001343E26813432269134362691343E269F8
:100DB80003431343226A1343626A042A43EA05037E
:100DC80001BF266BE56A35432B430B604B69042A48
:100DD80023F0070343EA02030BD1A26AE56A13432F
:100DE8003DB1F8B9012A2DD001D3022A01D1EA0177
:100DF8002BD44B612046FFF7A1FFE26D3F239340C0
:100E0800836000200123606584F8353070BDFFF7EA
:100E180047FE401B0528B9D920236365032084F8C1
:100E2800350070BDB0F5005F13D1032AE1D801A0E9
:100E380050F822F0530E0008F70D0008530E000872
:100E48004D0E0008B5F1C07FD3D140236365012062
:100E5800E5E7022AF9D9032AC8E7012070BD00BFD7
:100E68003F8010F070B590F83440012C36D0012442
:100E780080F8344090F83540866D012C4FF000051D
:100E88004FF0020428D180F835400468456525688C
:100E980025F48025256063608368402B0EBFA2601F
:100EA800A160E260C26D08BFE1603F239340B36078
:100EB800236843F016032360636943F0800363618A
:100EC800036C1BB1236843F008032360236843F0D5
:100ED80001032360002070BD80F83450022070BDEB
:100EE800F7B5002301935A4B856D1F68C36D2E68B3
:100EF80008229A40164204460CD001680868400748
:100F080008D5086820F004000860AA60626D42F005
:100F1800010262654F4A9A40164208D02168496921
:100F2800090641BFAA60626D42F0020262654A4A40
:100F38009A40164208D021680968880741BFAA600C
:100F4800626D42F00402626510229A40164210D087
:100F58002368196809070CD5AA601A68500335D5A3
:100F68001B68190301D4236C00E0A36C0BB1204665
:100F78009847E16D20228A40164238D023681868C5
:100F8800C60634D5AA6094F83520052A1A6825D1F2
:100F980022F016021A605A6922F080025A61226C05
:100FA8000AB9A26C1AB11A6822F008021A603F2323
:100FB8008B40AB60002384F83430012384F835304B
:100FC800236D0BB12046984703B0F0BD1A68D205CF
:100FD8005EBF1A6822F008021A60C4E7500328D5D9
:100FE8001B68190332D4636C0BB120469847636DB4
:100FF800002BE9D0636DDA0719D50523226884F838
:101008003530136823F0010313604FF41653B7FB10
:10101800F3F7019B01339F42019302D31368DB0767
:10102800F7D4002384F83430012384F83530E36C96
:10103800C7E71A6812F4807208D1196821F0100104
:101048001960012384F8342084F83530E36BCBE74A
:101058000000002001008000040080002DE9F04F0E
:1010680085B00B68DFF8AC81684ADFF8AC91019372
:1010780000234FF0010E019C0EFA03FE0EEA04064F
:10108800B64540F0AE804C6824F01007022F16D108
:101098004FEAD30A00EB8A0A03F0070BDAF820506C
:1010A8004FEA8B0B4FF00F0C0CFA0BFC25EA0C0CDB
:1010B8000D6905FA0BF545EA0C05CAF820504FEA08
:1010C800430A0325D0F800B005FA0AF5ED4304F009
:1010D800030C0BEA050B0CFA0AFC013F4CEA0B0C5B
:1010E800012FC0F800C011D8876807EA050BCF6840
:1010F80007FA0AFC4CEA0B078760476827EA0E0ED6
:10110800C4F300179F4047EA0E074760C7683D4091
:101118008F6807FA0AF73D43C560E50061D54FF0CF
:10112800000BCDF80CB0D8F84470394D47F480471F
:10113800C8F84470D8F8447007F480470397039FB1
:1011480023F0030707F1804707F59C3703F0030CEA
:10115800D7F808A04FEA8C0C4FF00F0E0EFA0CFED1
:10116800A8422AEA0E0E43D005F58065A84241D070
:1011780005F58065A8423FD005F58065A8423DD0B9
:1011880005F58065A8423BD048453BD005F500658C
:10119800A84239D005F58065A84214BF082507255F
:1011A80005FA0CF545EA0E05BD601568F74314F419
:1011B800803F0CBF3D4035431560556814F4003F2F
:1011C8000CBF3D4035435560956814F4801F0CBF33
:1011D8003D4035439560D568A40254BF3D40354332
:1011E800D5600133102B7FF444AF05B0BDE8F08F14
:1011F8005D46D5E70125D3E70225D1E70325CFE7EB
:101208000425CDE70525CBE70625C9E7003C0140C5
:101218000000024000380240001402400368F7B59D
:101228000446D8073BD42368990700F186802368D1
:101238001E0700F1D18023685D072AD5002301939A
:101248008E4B8F4D1A6C42F080521A641B6C03F05F
:1012580080530193019B2B6843F480732B60FFF745
:101268001FFC06462B68DA0540F1D880A368834D39
:10127800012B40F0DA802B6F43F001032B67FFF757
:101288000FFC7E4D064641F288372B6F9B0740F1D5
:10129800ED80A269002A40F0F980002015E0774B24
:1012A8009A6802F00C02042A07D09A6802F00C022D
:1012B800082A0CD15B685A0209D5704B1B689B033E
:1012C800B1D56368002BAED1012003B0F0BD6368CF
:1012D8006A4DB3F5803F11D12B6843F480332B60FE
:1012E800FFF7DEFB654D06462B689F039BD4FFF78F
:1012F800D7FB801B6428F7D90320E6E7B3F5A02FB6
:1013080004D12B6843F480232B60E5E72A6822F494
:1013180080322A602A6822F480222A60002BDFD1DA
:10132800FFF7BEFB06462B6898037FF57CAFFFF7F7
:10133800B7FB801B6428F6D9DEE7504B9A6812F099
:101348000C0F07D09A6802F00C02082A16D15B68C5
:10135800590213D4494B1A68920702D5E268012A48
:10136800B2D11868F82292FAA2F2B2FA82F122698E
:101378008A4020F0F8010A431A6058E7E268414BB6
:10138800DAB101221A60FFF78BFB3C4D06462B6849
:101398009B070CD52968F82393FAA3F3B3FA83F2D1
:1013A8002369934021F0F80213432B603FE7FFF7CE
:1013B80077FB801B0228EAD99EE71A60FFF770FBCB
:1013C8002E4D06462B689F077FF531AFFFF768FB68
:1013D800801B0228F6D98FE762692B4B7AB101226C
:1013E8001A60FFF75DFB254D06466B6F98073FF5C2
:1013F80022AFFFF755FB801B0228F6D97CE71A605D
:10140800FFF74EFB1D4D06466B6F99077FF513AF2F
:10141800FFF746FB801B0228F6D96DE7FFF740FB74
:10142800801B02287FF61EAF66E7052B04D12B6FC1
:1014380043F004032B671EE72A6F22F001022A6794
:101448002A6F22F004022A67002B7FF418AFFFF7F7
:1014580027FB41F2883706462B6F98077FF519AFAF
:10146800FFF71EFB801BB842F6D945E7FFF718FBCC
:10147800801BB8427FF609AF3EE700BF0038024044
:101488000070004000004742800E47422B4DAB6879
:1014980003F00C03082B3FF417AF294E0023022A50
:1014A80033603ED1FFF7FCFA07462B68990132D426
:1014B80047F6C07797FAA7F74FF44032B7FA87F79D
:1014C80092FAA2F24FF07061B2FA82F091FAA1F1A9
:1014D800226AE3691343626A02FA07F7A26A5208AA
:1014E800013A82403B431343E26A144CB1FA81F15A
:1014F80002FA01F10B436B6001233360FFF7D0FA66
:10150800054623689A013FF5C8AEFFF7C9FA401BA4
:101518000228F6D9F0E6FFF7C3FAC01B0228C4D99F
:10152800EAE6FFF7BDFA04462B689B017FF5B5AEE6
:10153800FFF7B6FA001B0228F6D9DDE600380240AC
:1015480060004742194A936803F00C03042B10B556
:1015580003D0082B03D0164810BD164810BD51689B
:10156800536801F03F0113F4800F47F6C0745368C5
:1015780094FAA4F0B0FA80F003EA040323FA00F323
:1015880014BF0C480A48B0FBF1F05843074B4FF41E
:1015980040325B6892FAA2F2B2FA82F203F4403364
:1015A800D34001335B00B0FBF3F010BD00380240BC
:1015B8000024F40040787D01564B1A6802F00F02AF
:1015C8008A422DE9F04105460E4630D32A68940731
:1015D80037D4D0073DD44F4B1A6802F00F02964219
:1015E800C0F088802A68510700F18C80130707D55E
:1015F800494A2969936823F4604343EAC103936025
:10160800FFF7A0FF444BF0229B6892FAA2F2B2FACD
:1016180082F203F0F003D340404AD35CD840404BF9
:1016280018600020FFF706FA0020BDE8F081CAB272
:101638001A701B6803F00F039942C7D00120BDE858
:10164800F0813549A8688B6823F0F00303438B6069
:10165800BFE76A68304B012A1ED11B6813F4003FAC
:10166800ECD02D4CA36823F003031343A360FFF7CA
:1016780017FA6B68012B074641F2883816D1A36820
:1016880003F00C03042BA6D0FFF70AFAC01B404551
:10169800F5D90320BDE8F081911E01291B6802D805
:1016A80013F0007FDCE713F0020FD9E7022B0AD111
:1016B800A36803F00C03082B8DD0FFF7F1F9C01BCA
:1016C8004045F5D9E5E7032B0FD1A36803F00C03D8
:1016D8000C2B80D0FFF7E4F9C01B4045F5D9D8E7BB
:1016E800FFF7DEF9C01B4045D3D8A36813F00C0FF1
:1016F800F6D170E7F2B21A701B6803F00F039E422E
:101708009CD16FE70449E8688B6823F4E0530343EE
:101718008B606BE7003C024000380240AD280008AF
:1017280000000020014B1868704700BF000000202F
:101738000268022380F83930136843F0010313600C
:10174800012380F839300020704700002E4A0368D2
:10175800904212D0B0F1804F0FD0A2F57C42904257
:101768000BD002F58062904207D002F58062904269
:1017780003D002F5784290421DD14A6823F07003E5
:101788001343214A904204D1CA6823F44073134397
:1017980028E0B0F1804FF7D01C4A9042F4D002F50F
:1017A80080629042F0D002F580629042ECD002F55F
:1017B80078429042E8D0164A9042E5D002F580621D
:1017C8009042E1D002F580629042DDD0A2F59832D5
:1017D8009042D9D002F580629042D5D002F580625D
:1017E8009042D1D003608B68C3620B688362064B5A
:1017F800984206D003F58063984202D001234361E2
:1018080070470B690363F9E70000014000040040DA
:101818000040014010B50446A0B190F8393003F0FB
:10182800FF021BB980F8382000F00EFA022384F872
:1018380039302068211DFFF789FF012384F83930EA
:10184800002010BD012010BD90F83830012B10B5D4
:101858004FF0020318D080F8393003680C685A68D2
:10186800496822F070025A605A6822435A609A689E
:1018780022F080029A609A680A439A60012380F8ED
:101888003930002380F83830184610BD07B50D48A8
:101898000D4B0360FFF783F918B13F210B4800F0A7
:1018A8003FF9042300226946064800930192FFF796
:1018B80009FA18B14821054800F032F903B05DF87B
:1018C80004FB00BF8400002000740040A02800082A
:1018D80070B502681E4B9A4286B0064635D100257F
:1018E80003F5E23300951A6C1A481B4C42F000527B
:1018F8001A641B6C039503F000530093009B10239C
:10190800019301A903230293FFF7A8FB1349E5609C
:1019180040234FF0606284E80E004FF48063236137
:101928004FF4006363614FF40053A36120464FF402
:101938008073E36125626562FFF716FA18B16F21BB
:10194800074800F0EDF8B460A66306B070BD00BFAC
:10195800007400400000024024000020886002401B
:10196800A028000807B50B4B00220192196B41F41F
:10197800001119631B6B03F4001301931146102027
:10198800019BFFF7A5F81020FFF7D6F803B05DF824
:1019980004FB00BF0038024082B000230193064BCD
:1019A8001A6B42F001021A631B6B03F001030193E7
:1019B800019B02B0704700BF0038024010B594B0D8
:1019C8000023214A0193116C41F080511164126C7B
:1019D80002F080520192019A1C4A0293116841F464
:1019E8008041116012680E9302F480420292029ABA
:1019F8000222089201220B9208A810220C92FFF7EB
:101A08000DFC014600B1FEE70F23049005900690F7
:101A1800079003A80393FFF7CFFD044600B1FEE744
:101A2800FFF780FE4FF47A73B0FBF3F0FFF790F8FE
:101A38000420FFF7A3F8224621464FF0FF30FFF7B6
:101A480047F814B010BD00BF0038024000700040D5
:101A58002DE9F0472DED028B82B0FEF7FFFF0FF264
:101A6800B809D9E90089FFF7A9FFFFF795FFFFF744
:101A780079FFFFF70BFF00F0BFF8214F9FED218A98
:101A8800214D00240026F7EE008A40F6FF7A204612
:101A9800FEF7E8FC42464B46FEF74AFD3B46324617
:101AA800FEF770FEFEF776FF00EE100A00F0BAF9B6
:101AB80030EE280A60EE087A17EE900AFEF7E4FC8A
:101AC80041EC100B00F026F951EC100BFEF742FF29
:101AD80080B25045034628BF534663530234C82C8E
:101AE800D5D10A4B18800A48FFF722FE0021009141
:101AF8006423054A0748FFF765F8FEE7AFF300805F
:101B080000005940000000459800002060010020B6
:101B180064010020840000206E861BF0F921094032
:101B2800FEE708B50320FEF7C1FF002211466FF05B
:101B38000B00FEF7CDFF002211466FF00A00FEF7FA
:101B4800C7FF002211466FF00900FEF7C1FF00220F
:101B580011466FF00400FEF7BBFF002211466FF03C
:101B68000300FEF7B5FF002211466FF00100FEF7F3
:101B7800AFFF002211464FF0FF30BDE80840FEF7E6
:101B8800A7BF7047FEE7FEE7FEE7FEE7704770472E
:101B9800704708B5FEF77CFFBDE80840FEF7FBBFBD
:101BA8000148FFF79DB900BF240000200F49D1F874
:101BB800883043F47003C1F888300D4B1A68002050
:101BC80042F001021A6098601A6822F0847222F4C6
:101BD80080321A60074A5A601A6822F480221A6012
:101BE800D8604FF000638B60704700BF00ED00E0E5
:101BF800003802401030002407B51048104964230B
:101C08004FF0000C4FF0100E80E80A50FFF702FE6C
:101C180018B13C210B48FFF783FF202200236946B7
:101C280006488DE80C00FFF70FFE18B14321054860
:101C3800FFF776FF03B05DF804FB00BF64010020E6
:101C480000100040BD2800080268094B9A4282B083
:101C58000BD100230193074B1A6C42F010021A644F
:101C68001B6C03F010030193019B02B0704700BF87
:101C78000010004000380240DFF834D0002103E0B3
:101C88000C4B5B58435004310B480C4B42189A429A
:101C9800F6D30B4A02E0002342F8043B094B9A4270
:101CA800F9D3FFF783FF00F011F8FFF7D1FE704773
:101CB80000000220B82C00080000002004000020CA
:101CC80004000020A0010020FEE7000070B50D4EC2
:101CD8000D4CA41BA4100025A54209D10B4E0C4C99
:101CE80000F0C8FDA41BA4100025A54205D170BDB5
:101CF80056F8253098470135EEE756F825309847CD
:101D08000135F2E7B02C0008B02C0008B02C000810
:101D1800B42C0008F7B551EC100BC1F30A54A4F227
:101D2800FF36132E10EE107A0B4602464FEAD17595
:101D380058DC002E2BDA21F00042024323D0C1F3F5
:101D48001302024351421143090B5B0C01F40021B9
:101D58005B0441EA0307314B03EBC5033946D3E97A
:101D6800006710EE100A32463B46FEF72FFACDE91F
:101D780000013B463246DDE90001FEF725FA21F075
:101D8800004343EAC57141EC100B03B0F0BD244C8D
:101D9800344101EA04070743F5D0610803EA01006A
:101DA80002430BD023EA01014FF48023132E43FA98
:101DB80006F30CBF4FF0004200220B431946174BA5
:101DC80003EBC505D5E9004510462B462246FEF72C
:101DD800FDF9CDE9000122462B46DDE90001FEF7B9
:101DE800F3F9D0E7332E08DDB6F5806FCBD110EECE
:101DF800102A0B46FEF7EAF9C5E7A4F213464FF09E
:101E0800FF34F4402042BED061080F421FBF4FF09C
:101E1800804227EA010132410A43CFE7D02800086F
:101E2800FFFF0F0010EE103A07B51D4A23F00043DC
:101E3800934205DCDFED1B0A002000F01DFC04E0E6
:101E4800B3F1FF4F04DB30EE400A03B05DF804FB4A
:101E5800684600F029F800F00300012808D002289D
:101E68000DD0B0B90120DDED010A9DED000AE4E7CF
:101E7800DDED010A9DED000A00F042F9E5E70120D9
:101E8800DDED010A9DED000A00F0F6FBB1EE400A17
:101E9800DBE7DDED010A9DED000A00F031F9F5E719
:101EA800D80F493F00000000F0B510EE106A864BCD
:101EB80026F000449C4287B0054605DC002385EDEA
:101EC800000A4360002020E0804B9C4238DC002E52
:101ED8009FED7F7A7F4B24F00F0418DD9C4270EE53
:101EE800477A09BF9FED7C7A9FED7C7A77EEC77AB7
:101EF8009FED7B7A77EEC76A77EEE67AC0ED006AE7
:101F080077EEC77AC0ED017A012007B0F0BD9C4298
:101F180070EE077A09BF9FED707A9FED707A77EEC1
:101F2800877A9FED6F7A77EE876A77EEE67AC0ED6B
:101F3800006A77EE877AC0ED017A4FF0FF30E4E768
:101F4800684B9C4271DC00F0DFFB9FED677AF6EE90
:101F5800007AE0EE077AFDEEE77AB8EEE76A17EE68
:101F6800900ADFED5B7AB1EE467AA7EE270A1F28C2
:101F7800DFED5A7A66EE277A70EE676A16EE903AC7
:101F88001CDC471E594951F8271024F0FF028A42E9
:101F980014D02B6095ED007A30EE470A002E30EE13
:101FA800670A85ED010AB0DAB1EE477AB1EE400A68
:101FB80085ED007A85ED010A4042A6E7E415C3F3F2
:101FC800C752A21A082AE4DDDFED437AF0EE406A30
:101FD800E7EE276A30EE660AA7EE270ADFED407AB9
:101FE80096EE270A76EEC05AF0EE407A15EE903A51
:101FF800C3F3C752A41A192C04DCC5ED005AB0EE7D
:10200800660AC7E7DFED3A5AB0EE660AA7EE250A78
:1020180076EEC07AE7EE257A9FED367AD6EE077A25
:1020280030EE677A85ED007AB4E7B4F1FF4F06DB4E
:1020380070EE407AC0ED017AC0ED007A42E7E21511
:10204800863AA4EBC25307EE903ABDEEE77ADFED8D
:102058002A6AB8EEC77A77EEC77A8DED037A67EE0B
:10206800A67ABDEEE77AB8EEC77A77EEC77A8DED35
:10207800047A67EEA67AF5EE407AF1EE10FACDED25
:10208800057A1ED1B5EE407AF1EE10FA14BF02239C
:1020980001231A4901910221009103A8294600F061
:1020A8008DF8002EBFF631AFD5ED007AF1EE677AE4
:1020B800C5ED007AD5ED017AF1EE677AC5ED017AC2
:1020C8007AE70323E5E700BFD80F493FE3CB164083
:1020D800800FC93FD00FC93F0044353743443537D7
:1020E80008A3852E800F494384F9223FE028000881
:1020F80000A3852E32318D2400008043602900081A
:1021080010EE103A23F00043B3F1485FF7EE006A8F
:1021180005DAFDEEC07A17EE902A002A3BD020EEB1
:10212800007A9FED1E6ADFED1E7ADFED1E5A1E4A09
:10213800A7EE276A934260EE200AE7EE065A9FED63
:102148001B6AA7EE256ADFED1A5AE7EE065A9FEDDD
:10215800196AA7EE256AF6EE005A26EE076A06DC2B
:10216800D7EE060AD7EE250A36EEE00A7047124A7D
:102178009342DABF03F17F4307EE903AF5EE027A15
:1021880076EEE76AD7EE060AD7EE257A77EEE07A9A
:1021980036EEE70A7047B0EE660A7047F6740F31FC
:1021A8004ED747AD7CF293B49999993E010DD0373B
:1021B800610BB6BAABAA2A3D0000483F2DE9F04FA3
:1021C8002DED048BD7B08B4601936499CB4B0290CD
:1021D80053F821A0019B659E9FEDCC7A013BD01E50
:1021E800082490FBF4F020EAE070451CC71AA2EB23
:1021F800C5050AEB030E1AAC06EB870C00227245E4
:102208000FDD0DF5847E0024544526DC019A029FDB
:10221800DFEDBE7A22441AA901EB82024FF0000CCE
:1022280015E0D7425DBF5CF8221007EE901AF8EE71
:10223800E77AF0EE477AE4EC017A0132DFE7F7EC6F
:10224800016A32ED017AE6EE877A0CF1010C9C45C1
:10225800F5DDEEEC017A0134D6E706AA02EB8A0234
:102268000492DFEDA78A9FEDA79A06EB80020392FE
:10227800574656AA07F1804802EB870208F1FF3853
:1022880012ED140A4FEA880856AA02EB08004C38E7
:102298000022BC1A002C4ADC2846059300F07EFA7E
:1022A800B0EE408AB4EE000A28EE000A00F034FAD4
:1022B800F2EE007AA0EE678A002D059BFDEEC87A43
:1022C80017EE909AF8EEE77A38EE678A44DD781EC2
:1022D80006AAC5F1080452F8206046FA04F29144AF
:1022E800A240B61A06AA42F82060C5F107021641B4
:1022F800002E40DD002409F101092046A74275DCC3
:10230800002D05DD012D00F08680022D00F08D8066
:10231800022E30D1B7EE000A30EE488A58B328466C
:10232800059300F03BFA059B38EE408A23E060EE07
:10233800287A06ACFDEEE77AF8EEE77AA7EEC90A46
:10234800BDEEC00A10EE101A30ED010A44F8221052
:1023580037EE800A01329CE705D17A1E06A951F8AA
:1023680022603612C4E7F6EE007AB4EEE78AF1EEA0
:1023780010FA39DA0026B5EE408AF1EE10FA40F08C
:102388008D807C1E20460022504555DA002A64D1F3
:1023980001246FF0030000FB04F204998A58002A14
:1023A80050D056AA9044019A1AA93A44781CA8F128
:1023B800480801EB82022744B8423FF75AAF039915
:1023C800029E51F82010059107EE901AF8EEE77A70
:1023D8000024E2EC017ADFED4D7A96469C4233DD2B
:1023E800E8EC017A0130E7E7022683E706AA52F80B
:1023F800242048B92AB106A9C2F5807241F82420E0
:1024080001220134104679E706A9C2F1FF0241F81A
:1024180024200246F5E77C1E06AA52F8242002F082
:102428007F0206A941F8242072E77C1E06AA52F80A
:10243800242002F03F02F4E706A951F820100138E1
:102448000A43A1E70134A6E7F6EC016A3EED017AFA
:102458000134E6EE877AC1E7013C06AB083D53F844
:102468002430002BF8D02846B7EE000A00F096F981
:10247800A30042AA04339FED227AD0182246002AEC
:1024880046DA0DF1B80E0022A51A60D442A91E4FF3
:10249800DFED1E7A01EB8505002050E06842B0EEC2
:1024A800480A00F07BF99FED177AB4EEC70AF1EEFF
:1024B80010FA19DBDFED127A60EE277A06AAFDEE34
:1024C800E77A7C1CF8EEE77A0835A7EEC70AFDEE36
:1024D800E77ABDEEC00A10EE103A42F8273017EE40
:1024E800903A42F82430BEE7BDEEC00A06AA10EEC4
:1024F800103A3C4642F82730B5E700BFA42C000844
:102508000000803B00008043782C00080000000099
:1025180006A951F82210019107EE901AF8EEE77A11
:10252800013A67EE807A20EE070A60ED017AA6E7A5
:10253800F7EC016AB5EC017AE6EE877A013050458E
:1025480001DC9042F4DDEEEC017A01329CE7649AFA
:10255800032A43D8DFE802F0371D1D022EAA1344D0
:102568001A462046002855DC1A462046012861DC18
:102578005FED1A7A012C6DDCDDED2E6A9DED2F7A68
:10258800002E6DD1CBED006A8BED017ACBED027A8E
:1025980024E02EAA1FED237A13442246002A2ADAC1
:1025A8007EB3F1EE477ACBED007ADDED2E7A77EE49
:1025B800C77A2FAA01239C4226DA0EB1F1EE677A78
:1025C800CBED017A0AE02EAA5FED307A1344002C95
:1025D8000BDA0EB1F1EE677ACBED007A09F007005D
:1025E80057B0BDEC048BBDE8F08F33ED017A013CA8
:1025F80077EE877AEBE773ED017A013A37EE277ABF
:10260800CCE7F0EE477ACEE7B2EC017A013377EE09
:10261800877AD0E752ED016A52ED027A37EEA67A50
:10262800013877EEC77A77EEA67A62ED017A02ED85
:10263800017A97E752ED016A52ED027A37EEA67AEF
:10264800013877EEC77A77EEA67A62ED017A02ED65
:10265800017A8BE733ED017A013C77EE877A89E7D7
:10266800F1EE666AB1EE477ACBED006A8BED017A3E
:10267800F1EE677A8AE700BF10EE103A23F00043C4
:10268800B3F1485F04DAFDEEC07A17EE903A5BB317
:1026980020EE007ADFED157A9FED156AA7EE276A1E
:1026A800DFED147AE7EE067A9FED136AA7EE276A44
:1026B800DFED127A60EE076AE7EE067A30B99FED31
:1026C800106AA7EE276AA6EE860A704767EEE67AD2
:1026D800B6EE006AE0EE867AD7EE270ADFED097AD1
:1026E800E6EEA70A30EE600A704700BFD3C92E2F66
:1026F800342FD7B21BEF3836010D50B98988083C02
:10270800ABAA2ABEABAA2A3E10EE103A23F0004329
:1027180000EE103A7047000010EE103A23F0004126
:10272800CA0D7F3A162A2ADC002A11DADFED187A58
:1027380030EE270AB5EEC00AF1EE10FA05DD002BDF
:1027480023DA144A002918BF134600EE103A7047DE
:10275800114911410B42FAD0DFED0D7A30EE270A0C
:10276800B5EEC00AF1EE10FAEFDD002BBEBF4FF454
:10277800000040FA02F29B1823EA0103E5E7B1F1F1
:10278800FF4FE4D330EE000A70470023DDE700BFB7
:10279800CAF24971000080BFFFFF7F0008B510EE44
:1027A800102A32F000432DED028BF0EE400A04D0DF
:1027B800B3F1FF4F06D370EE000ABDEC028BB0EE0A
:1027C800600A08BDB3F5000F1CD21F4BDFED1F7A5E
:1027D800984260EE270A10DB10EE902AC2F3C75326
:1027E800193B0344FE2B0FDD9FED198AB0EE480A12
:1027F80000F034F860EE080ADFE7DFED167A60EEE5
:10280800A70ADAE7DB0DECE7002B06DD22F0FF4232
:1028180042EAC35300EE903ACFE713F1160F06DAF7
:102828004CF250339842DFDC9FED0A8ADEE7193319
:1028380022F0FF4242EAC353DFED077A07EE103A6F
:1028480067EE270AB9E700BFB03CFFFF0000004C65
:10285800CAF249716042A20D0000003310EE103A2E
:1028680010EE902A23F0004302F00042134300EEDA
:10287800103A7047F8B500BFF8BC08BC9E467047D0
:0C288800F8B500BFF8BC08BC9E467047C5
:1028980000061016000610162E2E5C5372635C6438
:1028A80061632E63000000000000000000010203C5
:1028B80004060708092E2E5C5372635C74696D2E3A
:1028C800630000000000000000000000000030432A
:1028D80000000000000030C3000FC93F000F49404E
:1028E80000CB9640000FC9400053FB4000CB164177
:1028F80000ED2F41000F49410031624100537B41F7
:10290800003A8A4100CB9641005CA34100EDAF41FB
:10291800007EBC41000FC94100A0D5410031E24111
:1029280000C2EE410053FB4100F20342003A0A4262
:102938000083104200CB164200141D42005C234263
:1029480000A5294200ED2F4200363642007E3C4267
:1029580000C74242000F4942A2000000F9000000EF
:10296800830000006E0000004E00000044000000DC
:102978001500000029000000FC00000027000000EE
:1029880057000000D1000000F500000034000000EE
:10299800DD000000C0000000DB0000006200000055
:1029A80095000000990000003C0000004300000072
:1029B8009000000041000000FE00000051000000EF
:1029C80063000000AB000000DE000000BB00000058
:1029D800C500000061000000B700000024000000EE
:1029E8006E0000003A000000420000004D000000A8
:1029F800D2000000E00000000600000049000000CE
:102A08002E000000EA00000009000000D1000000CC
:102A1800920000001C000000FE0000001D000000E5
:102A2800EB0000001C000000B100000029000000BD
:102A3800A70000003E000000E8000000820000003F
:102A480035000000F50000002E000000BB0000006B
:102A58004400000084000000E90000009C00000021
:102A68007000000026000000B40000005F000000B5
:102A78007E000000410000003900000091000000C5
:102A8800D600000039000000830000005300000059
:102A980039000000F40000009C00000084000000E1
:102AA8005F0000008B000000BD000000F90000007E
:102AB800280000003B0000001F000000F800000094
:102AC80097000000FF000000DE0000000500000085
:102AD800980000000F000000EF0000002F00000029
:102AE800110000008B0000005A0000000A000000DE
:102AF8006D0000001F0000006D000000360000009F
:102B08007E000000CF00000027000000CB0000007E
:102B180009000000B70000004F0000004600000058
:102B28003F000000660000009E0000005F000000FB
:102B3800EA0000002D0000007500000027000000DA
:102B4800BA000000C7000000EB000000E50000002C
:102B5800F10000007B0000003D00000007000000BD
:102B680039000000F70000008A0000005200000051
:102B780092000000EA0000006B000000FB0000006B
:102B88005F000000B10000001F0000008D00000081
:102B98005D0000000800000056000000030000006F
:102BA8003000000046000000FC0000007B00000030
:102BB8006B000000AB000000F0000000CF00000038
:102BC800BC000000200000009A000000F400000093
:102BD800360000001D000000A9000000E30000000E
:102BE80091000000610000005E000000E6000000A7
:102BF8001B000000080000006500000099000000AC
:102C0800850000005F00000014000000A000000024
:102C180068000000400000008D000000FF00000078
:102C2800D8000000800000004D0000007300000084
:102C38002700000031000000060000000600000028
:102C48001500000056000000CA00000073000000D4
:102C5800A8000000C900000060000000E2000000B9
:102C68007B000000C00000008C0000006B0000002A
:102C78000000C93F0000F0390000DA370000A23335
:102C88000000842E0000502B0000C2270000D02234
:102C98000000C41F0000C61B000044170400000009
:082CA800070000000900000014
:042CB000AD0100086A
:042CB400890100088A
:042CB8000024F40000
:0400000508001C8152
:00000001FF
