:020000040800F2
:1000000000000220CD1400085714000859140008FD
:100010005B1400085D1400085F1400080000000075
:100020000000000000000000000000006114000853
:10003000631400080000000065140008671400083D
:100040001D1500081D1500081D1500081D150008C8
:100050001D1500081D1500081D1500081D150008B8
:100060001D1500081D1500081D1500081D150008A8
:100070001D1500081D1500081D1500081D15000898
:100080001D1500081D1500081D1500081D15000888
:100090001D1500081D1500081D1500081D15000878
:1000A0001D1500081D1500081D1500081D15000868
:1000B0001D1500081D1500081D1500081D15000858
:1000C0001D1500081D1500081D1500081D15000848
:1000D0001D1500081D1500081D1500081D15000838
:1000E0001D1500081D1500081D1500081D15000828
:1000F0001D1500081D1500081D1500081D15000818
:100100001D1500081D1500081D1500081D15000807
:100110001D1500081D1500081D1500081D150008F7
:10012000751400081D1500081D1500081D15000890
:100130001D1500081D1500081D1500081D150008D7
:100140001D1500081D1500081D1500081D150008C7
:100150001D1500081D1500081D1500081D150008B7
:100160001D1500081D1500081D1500081D150008A7
:100170001D1500081D1500081D15000800000000D1
:080180001D1500081D15000803
:1001880010B5054C237833B9044B13B10448AFF3C9
:1001980000800123237010BD04000020000000002F
:1001A8006815000808B5034B1BB103490348AFF3B2
:1001B800008008BD00000000080000206815000845
:1001C80010B5084B044618684FF47A73B0FBF3F087
:1001D80000F088FA002221464FF0FF3000F042FA82
:1001E800002010BD0000002008B50B4B1A6842F42F
:1001F80000721A601A6842F480621A601A6842F43F
:1002080080721A60032000F01BFA0020FFF7D8FF65
:1002180001F0EDF8002008BD003C0240024A1368D6
:1002280001331360704700BF20000020014B18689D
:10023800704700BF2000002010B50446002800F0D9
:100248009F80036C23B9436480F83C3000F0BCFF06
:10025800236CDB0600F19280236C23F4885323F08F
:10026800020343F002032364464B5A6822F44032E7
:100278005A605A6861680A435A60236821695A6853
:1002880022F480725A605A6842EA01225A605A6817
:10029800A16822F040725A605A680A435A609A6804
:1002A800E16822F400629A609A680A439A603649C3
:1002B800A26A8A4256D0996821F07061996099685B
:1002C8000A439A609A68E16A22F040529A609A68F2
:1002D8000A439A609A68A16922F002029A609A68B1
:1002E80042EA41029A60226A002A43D05A6842F4DC
:1002F80000625A605A6822F460425A604FF46042C1
:1003080092FAA2F2B2FA82F1626A5868013A8A4015
:1003180002435A60DA6AE16922F47002DA62DA6A40
:10032800013942EA0152DA629A68216B22F40072BA
:100338009A609A6842EA41229A609A68616922F44E
:1003480080629A609A68002042EA81229A6060641A
:10035800236C23F0030343F001032364002384F890
:100368003C3010BD9A6822F070629A609A6822F058
:100378004052AEE75A6822F40062CAE70120EDE76E
:10038800012010BD002301400100000F37B51346BE
:100398000022019290F83C20012A044665D00568A5
:1003A800012280F83C20AA68D20705D5AA68D007A0
:1003B80015D4002003B030BDAA6842F00102AA603B
:1003C8002B4A10682B4AB0FBF2F000EB400001907A
:1003D800019A002AEAD0019A013A0192F8E7206CC2
:1003E80020F4E06020F0010040F4807020646A6826
:1003F800520541BF206C20F4405040F480502064E6
:10040800226CA06B12F480521CBF626C22F00602B0
:100418006264002284F83C20174AC263174A0264C7
:10042800174AC2646FF022022A606A6842F080624A
:100438006A60AA6842F48072AA600A4605F14C0113
:1004480000F00CFA0F4B5B6813F01F0F236808D1FC
:10045800986810F04050ACD19A6842F080429A6097
:10046800A8E7094A9342A4D1F2E70220A2E700BF15
:100478000000002040420F0097040008F90400081B
:100488000505000800230140002001407047836BE8
:100498001A6C12F0500F10B524D11A6C42F4007285
:1004A8001A641A68916811F0405F17D19969A9B95F
:1004B800D16A11F4700F02D0916849050ED45168C1
:1004C80021F0200151601A6C22F480721A641A6CAF
:1004D800D2045EBF1A6C42F001021A641846FFF794
:1004E800D5FF10BD9B6BBDE81040DB6C184770470B
:1004F80008B5806BFFF7FBFF08BD7047806B08B538
:1005080040230364436C43F004034364FFF7F5FF9F
:1005180008BD0000F7B50023019390F83C30012B8B
:1005280000F083800D6804688A680123092D80F82B
:100538003C30AEB22AD906EB4603E7681E3B4FF0C3
:10054800070E0EFA03FE27EA0E07E760E76802FACD
:1005580003F33B43E3604A68062A4FEA820325D83F
:100568001344676B591F1F238B4027EA03036363F8
:10057800626B06FA01F1114361632D4B9C4234D042
:10058800002380F83C30184603B0F0BD276905EB1E
:1005980045034FF0070E0EFA03FE27EA0E07276100
:1005A800276902FA03F33B432361D4E70C2A0ED8E8
:1005B8001344216BA3F123021F23934021EA030371
:1005C8002363236B06FA02F21A432263D5E7134426
:1005D800E16A413B1F229A4021EA0202E262E26A92
:1005E80006FA03F11143E162C7E7122D04D1114A5B
:1005F800536843F480035360A5F11003012BBFD85F
:100608000C4A5368102D43F400035360B8D10A4BC9
:100618000A4A1B68B3FBF2F20A2353430193019B76
:10062800002BADD0019B013BF8E70220ACE700BFEF
:1006380000200140002301400000002040420F003C
:10064800074AD36823F4E0631B041B0C43F0BF6321
:10065800000243F4003300F4E0600343D3607047C2
:1006680000ED00E0174B30B5DC68C4F30224C4F198
:100678000703251D042B28BF0423062D4FF0010571
:1006880005FA03F303F1FF338CBF033C0024194040
:10069800A14005FA04F4013C2240002842EA010284
:1006A8004FEA0212AFBF00F1604000F00F00064BA6
:1006B800D2B2A5BF00F56140D2B21A5480F8002327
:1006C80030BD00BF00ED00E014ED00E04209012359
:1006D80000F01F0003FA00F0014B43F822007047B6
:1006E80000E100E00138B0F1807F0AD2064B074AEA
:1006F8005860F02182F823100020072298601A60C1
:1007080070470120704700BF10E000E000ED00E0F6
:10071800044B1A6804280CBF42F0040222F00402B9
:100728001A60704710E000E0704708B5FFF7FCFF5B
:1007380008BD00000368DAB223F47F7323F00303D3
:100748001821103AB2FBF1F20449032A88BF043396
:10075800895C8365C165806D704700BF801500089E
:1007680070B50446FFF762FD0546002C71D00023E2
:1007780084F834302268022384F83530136823F073
:100788000103136021680B68D8073CD40B68324D0D
:100798006268A0691D40A3681343E2681343226995
:1007A800134362691343E26903431343226A134301
:1007B800626A042A43EA050301BF266BE56A3543EA
:1007C8002B430B604B69042A23F0070343EA020317
:1007D8000BD1A26AE56A13433DB1F8B9012A2DD0BD
:1007E80001D3022A01D1EA012BD44B612046FFF73D
:1007F800A1FFE26D3F2393408360002001236065E1
:1008080084F8353070BDFFF711FD401B0528B9D9B4
:1008180020236365032084F8350070BDB0F5005FC0
:1008280013D1032AE1D801A050F822F04B080008A0
:10083800EF0700084B08000845080008B5F1C07F1D
:10084800D3D1402363650120E5E7022AF9D9032AB9
:10085800C8E7012070BD00BF3F8010F070B590F868
:100868003440012C36D0012480F8344090F83540CB
:10087800866D012C4FF000054FF0020428D180F856
:10088800354004684565256825F480252560636042
:100898008368402B0EBFA260A160E260C26D08BFF2
:1008A800E1603F239340B360236843F0160323605D
:1008B800636943F080036361036C1BB1236843F0F1
:1008C80008032360236843F001032360002070BD00
:1008D80080F83450022070BDF7B5002301935A4BBD
:1008E800856D1F68C36D2E6808229A40164204461B
:1008F8000CD001680868400708D5086820F0040093
:100908000860AA60626D42F0010262654F4A9A402F
:10091800164208D021684969090641BFAA60626D7C
:1009280042F0020262654A4A9A40164208D021689B
:100938000968880741BFAA60626D42F004026265D7
:1009480010229A40164210D02368196809070CD55E
:10095800AA601A68500335D51B68190301D4236CA3
:1009680000E0A36C0BB120469847E16D20228A4035
:10097800164238D023681868C60634D5AA6094F899
:100988003520052A1A6825D122F016021A605A69FC
:1009980022F080025A61226C0AB9A26C1AB11A6854
:1009A80022F008021A603F238B40AB60002384F8D2
:1009B8003430012384F83530236D0BB12046984735
:1009C80003B0F0BD1A68D2055EBF1A6822F00802AB
:1009D8001A60C4E7500328D51B68190332D4636C26
:1009E8000BB120469847636D002BE9D0636DDA0799
:1009F80019D50523226884F83530136823F00103DC
:100A080013604FF41653B7FBF3F7019B01339F4272
:100A1800019302D31368DB07F7D4002384F834303A
:100A2800012384F83530E36CC7E71A6812F4807242
:100A380008D1196821F010011960012384F83420C5
:100A480084F83530E36BCBE700000020010080001C
:100A5800040080002DE9F04F85B00B68DFF8AC8109
:100A6800684ADFF8AC91019300234FF0010E019C16
:100A78000EFA03FE0EEA0406B64540F0AE804C6856
:100A880024F01007022F16D14FEAD30A00EB8A0A86
:100A980003F0070BDAF820504FEA8B0B4FF00F0CDE
:100AA8000CFA0BFC25EA0C0C0D6905FA0BF545EA66
:100AB8000C05CAF820504FEA430A0325D0F800B0C5
:100AC80005FA0AF5ED4304F0030C0BEA050B0CFAE2
:100AD8000AFC013F4CEA0B0C012FC0F800C011D8EA
:100AE800876807EA050BCF6807FA0AFC4CEA0B0788
:100AF8008760476827EA0E0EC4F300179F4047EA4D
:100B08000E074760C7683D408F6807FA0AF73D43FC
:100B1800C560E50061D54FF0000BCDF80CB0D8F8F2
:100B28004470394D47F48047C8F84470D8F8447089
:100B380007F480470397039F23F0030707F18047D3
:100B480007F59C3703F0030CD7F808A04FEA8C0C84
:100B58004FF00F0E0EFA0CFEA8422AEA0E0E43D0F2
:100B680005F58065A84241D005F58065A8423FD0CB
:100B780005F58065A8423DD005F58065A8423BD0C3
:100B880048453BD005F50065A84239D005F5806594
:100B9800A84214BF0825072505FA0CF545EA0E05F5
:100BA800BD601568F74314F4803F0CBF3D403543E2
:100BB8001560556814F4003F0CBF3D40354355603F
:100BC800956814F4801F0CBF3D4035439560D56887
:100BD800A40254BF3D403543D5600133102B7FF448
:100BE80044AF05B0BDE8F08F5D46D5E70125D3E7F2
:100BF8000225D1E70325CFE70425CDE70525CBE777
:100C08000625C9E7003C01400000024000380240C8
:100C1800001402400AB1816170470904FBE7000033
:100C28000368F7B50446D8073BD42368990700F151
:100C3800868023681E0700F1D18023685D072AD5C6
:100C4800002301938E4B8F4D1A6C42F080521A6428
:100C58001B6C03F080530193019B2B6843F4807352
:100C68002B60FFF7E3FA06462B68DA0540F1D880D7
:100C7800A368834D012B40F0DA802B6F43F001030A
:100C88002B67FFF7D3FA7E4D064641F288372B6F64
:100C98009B0740F1ED80A269002A40F0F98000200E
:100CA80015E0774B9A6802F00C02042A07D09A687C
:100CB80002F00C02082A0CD15B685A0209D5704B65
:100CC8001B689B03B1D56368002BAED1012003B02C
:100CD800F0BD63686A4DB3F5803F11D12B6843F4CA
:100CE80080332B60FFF7A2FA654D06462B689F03F9
:100CF8009BD4FFF79BFA801B6428F7D90320E6E70B
:100D0800B3F5A02F04D12B6843F480232B60E5E7CB
:100D18002A6822F480322A602A6822F480222A6013
:100D2800002BDFD1FFF782FA06462B6898037FF580
:100D38007CAFFFF77BFA801B6428F6D9DEE7504BBF
:100D48009A6812F00C0F07D09A6802F00C02082A71
:100D580016D15B68590213D4494B1A68920702D519
:100D6800E268012AB2D11868F82292FAA2F2B2FA1D
:100D780082F122698A4020F0F8010A431A6058E794
:100D8800E268414BDAB101221A60FFF74FFA3C4D95
:100D980006462B689B070CD52968F82393FAA3F31A
:100DA800B3FA83F22369934021F0F80213432B60CE
:100DB8003FE7FFF73BFA801B0228EAD99EE71A6053
:100DC800FFF734FA2E4D06462B689F077FF531AFA3
:100DD800FFF72CFA801B0228F6D98FE762692B4BA4
:100DE8007AB101221A60FFF721FA254D06466B6F8A
:100DF80098073FF522AFFFF719FA801B0228F6D9AA
:100E08007CE71A60FFF712FA1D4D06466B6F9907CB
:100E18007FF513AFFFF70AFA801B0228F6D96DE7B2
:100E2800FFF704FA801B02287FF61EAF66E7052B42
:100E380004D12B6F43F004032B671EE72A6F22F0BF
:100E480001022A672A6F22F004022A67002B7FF426
:100E580018AFFFF7EBF941F2883706462B6F980772
:100E68007FF519AFFFF7E2F9801BB842F6D945E7DD
:100E7800FFF7DCF9801BB8427FF609AF3EE700BFF9
:100E8800003802400070004000004742800E474290
:100E98002B4DAB6803F00C03082B3FF417AF294E1A
:100EA8000023022A33603ED1FFF7C0F907462B68BA
:100EB800990132D447F6C07797FAA7F74FF4403232
:100EC800B7FA87F792FAA2F24FF07061B2FA82F09D
:100ED80091FAA1F1226AE3691343626A02FA07F7F9
:100EE800A26A5208013A82403B431343E26A144C17
:100EF800B1FA81F102FA01F10B436B60012333600F
:100F0800FFF794F9054623689A013FF5C8AEFFF745
:100F18008DF9401B0228F6D9F0E6FFF787F9C01BC8
:100F28000228C4D9EAE6FFF781F904462B689B0139
:100F38007FF5B5AEFFF77AF9001B0228F6D9DDE692
:100F48000038024060004742194A936803F00C03D6
:100F5800042B10B503D0082B03D0164810BD164833
:100F680010BD5168536801F03F0113F4800F47F634
:100F7800C074536894FAA4F0B0FA80F003EA04034A
:100F880023FA00F314BF0C480A48B0FBF1F05843A9
:100F9800074B4FF440325B6892FAA2F2B2FA82F23F
:100FA80003F44033D34001335B00B0FBF3F010BDD2
:100FB800003802400024F40040787D01564B1A683E
:100FC80002F00F028A422DE9F04105460E4630D361
:100FD8002A68940737D4D0073DD44F4B1A6802F0DB
:100FE8000F029642C0F088802A68510700F18C8071
:100FF800130707D5494A2969936823F4604343EAEC
:10100800C1039360FFF7A0FF444BF0229B6892FA5C
:10101800A2F2B2FA82F203F0F003D340404AD35C62
:10102800D840404B18600020FFF7CAF80020BDE800
:10103800F081CAB21A701B6803F00F039942C7D037
:101048000120BDE8F0813549A8688B6823F0F003DA
:1010580003438B60BFE76A68304B012A1ED11B68C7
:1010680013F4003FECD02D4CA36823F00303134383
:10107800A360FFF7DBF86B68012B074641F288385D
:1010880016D1A36803F00C03042BA6D0FFF7CEF803
:10109800C01B4045F5D90320BDE8F081911E012908
:1010A8001B6802D813F0007FDCE713F0020FD9E7C2
:1010B800022B0AD1A36803F00C03082B8DD0FFF78D
:1010C800B5F8C01B4045F5D9E5E7032B0FD1A36858
:1010D80003F00C030C2B80D0FFF7A8F8C01B404589
:1010E800F5D9D8E7FFF7A2F8C01B4045D3D8A368C5
:1010F80013F00C0FF6D170E7F2B21A701B6803F008
:101108000F039E429CD16FE70449E8688B6823F47B
:10111800E05303438B606BE7003C02400038024019
:101128009515000800000020014B1868704700BFA3
:10113800000000201FB52048204B214A826200246D
:1011480080E818000322012384600361836104623C
:10115800C462C460C26103634361FFF76DF818B1EC
:101168004A21184800F042F90094694601241248BF
:1011780001940294FFF7CEF918B15421114800F0F8
:1011880035F90094694602240B480194FFF7C2F927
:1011980018B15D210B4800F029F903236946064878
:1011A80000940193FFF7B6F918B16621054800F0DD
:1011B8001DF904B010BD00BF24000020002001402C
:1011C8000100000F8815000870B502681D4B9A428F
:1011D80086B0064633D1002503F58C3300955A6C4A
:1011E80019481A4C42F480725A645B6C039503F4F4
:1011F80080730093009B0723019301A903230293A3
:10120800FFF728FC124BA56084E828004FF48063A0
:1012180023614FF4006363614FF40053A3612046D8
:101228004FF48073E560E36125626562FFF798FA21
:1012380018B18F21074800F0D9F8B463A66306B047
:1012480070BD00BF00200140000002406C0000207B
:10125800106402408815000807B50B4B0022019264
:10126800196B41F4800119631B6B03F4800301932C
:1012780011463820019BFFF7F5F93820FFF726FAC9
:1012880003B05DF804FB00BF0038024030B589B0F8
:10129800134B144D002401941A6B42F010021A6388
:1012A8001A6B02F010020192019A02941A6B42F032
:1012B80001021A631B6B03F0010302930122284603
:1012C8000721029BFFF7A6FC0723039303A9012329
:1012D8002846049305940694FFF7BCFB09B030BD7B
:1012E800003802400010024010B594B00023214A93
:1012F8000193116C41F080511164126C02F080521C
:101308000192019A1C4A0293116841F480411160CC
:1013180012680E9302F480420292029A0222089204
:1013280001220B9208A810220C92FFF779FC0146C3
:1013380000B1FEE70F23049005900690079003A8DC
:101348000393FFF73BFE044600B1FEE7FFF7ECFE10
:101358004FF47A73B0FBF3F0FFF7C4F90420FFF7FA
:10136800D7F9224621464FF0FF30FFF77BF914B03A
:1013780010BD00BF003802400070004008B5FEF7FD
:1013880033FFFFF7B1FFFFF781FFFFF765FFFFF7B7
:10139800D1FE032212491348114D134CFEF7F6FFF4
:1013A8002E462B88B3F5806F34BF012200222046D9
:1013B8000121FFF72FFC7388B3F5806F34BF01223A
:1013C800002220460221FFF725FCB388B3F5806F81
:1013D80034BF0122002204212046FFF71BFCE0E76E
:1013E800CC0000202400002000100240FEE708B5D1
:1013F8000320FFF725F9002211466FF00B00FFF7D5
:1014080031F9002211466FF00A00FFF72BF900228C
:1014180011466FF00900FFF725F9002211466FF019
:101428000400FFF71FF9002211466FF00300FFF7D1
:1014380019F9002211466FF00100FFF713F9002295
:1014480011464FF0FF30BDE80840FFF70BB9704771
:10145800FEE7FEE7FEE7FEE770477047704708B50E
:10146800FEF7DCFEBDE80840FFF75FB90148FFF76B
:1014780033BA00BF6C0000200F49D1F8883043F41C
:101488007003C1F888300D4B1A68002042F0010241
:101498001A6098601A6822F0847222F480321A6006
:1014A800074A5A601A6822F480221A60D8604FF0FE
:1014B80000638B60704700BF00ED00E00038024019
:1014C80010300024DFF834D0002103E00C4B5B58C7
:1014D800435004310B480C4B42189A42F6D30B4A3E
:1014E80002E0002342F8043B094B9A42F9D3FFF784
:1014F800C3FF00F011F8FFF741FF7047000002201A
:10150800B01500080000002004000020040000209E
:10151800D4000020FEE7000070B50D4E0D4CA41B52
:10152800A4100025A54209D10B4E0C4C00F018F868
:10153800A41BA4100025A54205D170BD56F825307E
:1015480098470135EEE756F8253098470135F2E718
:10155800A8150008A8150008A8150008AC1500086B
:10156800F8B500BFF8BC08BC9E467047F8B500BF88
:08157800F8BC08BC9E46704758
:1015800000061016000610162E2E5C5372635C6166
:1015900064632E63000000000000000000010203ED
:0815A000040607080900000021
:0415A800AD01000889
:0415AC0089010008A9
:0415B0000024F4001F
:04000005080014CD0E
:00000001FF
