:020000040800F2
:10000000000002202D160008931400089514000823
:1000100097140008991400089B14000800000000C1
:100020000000000000000000000000009D14000817
:100030009F14000800000000A1140008A314000889
:100040007D1600087D1600087D1600087D16000844
:100050007D1600087D1600087D1600087D16000834
:100060007D1600087D1600087D1600087D16000824
:100070007D1600087D1600087D1600087D16000814
:100080007D1600087D1600087D1600087D16000804
:100090007D1600087D1600087D1600087D160008F4
:1000A0007D1600087D1600087D1600087D160008E4
:1000B0007D1600087D1600087D1600087D160008D4
:1000C0007D1600087D1600087D1600087D160008C4
:1000D0007D1600087D1600087D1600087D160008B4
:1000E0007D1600087D1600087D1600087D160008A4
:1000F0007D1600087D1600087D1600087D16000894
:100100007D1600087D1600087D1600087D16000883
:100110007D1600087D1600087D1600087D16000873
:100120007D1600087D1600087D1600087D16000863
:100130007D1600087D1600087D1600087D16000853
:100140007D1600087D1600087D1600087D16000843
:100150007D1600087D1600087D1600087D16000833
:100160007D1600087D1600087D1600087D16000823
:100170007D1600087D1600087D16000800000000AE
:080180007D1600087D16000841
:1001880010B5054C237833B9044B13B10448AFF3C9
:1001980000800123237010BD04000020000000002F
:1001A800C816000808B5034B1BB103490348AFF351
:1001B800008008BD0000000008000020C8160008E4
:1001C80010B5084B044618684FF47A73B0FBF3F087
:1001D80000F01CFA002221464FF0FF3000F0E2F94F
:1001E800002010BD0000002008B50B4B1A6842F42F
:1001F80000721A601A6842F480621A601A6842F43F
:1002080080721A60032000F0BBF90020FFF7D8FFC6
:1002180001F00BF9002008BD003C0240024A1368B7
:1002280001331360704700BF20000020014B18689D
:10023800704700BF2000002010B50446002800F0D9
:100248009F80036C23B9436480F83C3001F042F886
:10025800236CDB0600F19280236C23F4885323F08F
:10026800020343F002032364464B5A6822F44032E7
:100278005A605A6861680A435A60236821695A6853
:1002880022F480725A605A6842EA01225A605A6817
:10029800A16822F040725A605A680A435A609A6804
:1002A800E16822F400629A609A680A439A603649C3
:1002B800A26A8A4256D0996821F07061996099685B
:1002C8000A439A609A68E16A22F040529A609A68F2
:1002D8000A439A609A68A16922F002029A609A68B1
:1002E80042EA41029A60226A002A43D05A6842F4DC
:1002F80000625A605A6822F460425A604FF46042C1
:1003080092FAA2F2B2FA82F1626A5868013A8A4015
:1003180002435A60DA6AE16922F47002DA62DA6A40
:10032800013942EA0152DA629A68216B22F40072BA
:100338009A609A6842EA41229A609A68616922F44E
:1003480080629A609A68002042EA81229A6060641A
:10035800236C23F0030343F001032364002384F890
:100368003C3010BD9A6822F070629A609A6822F058
:100378004052AEE75A6822F40062CAE70120EDE76E
:10038800012010BD002301400100000F82B00023AE
:10039800019390F83C30012B4ED0012380F83C307B
:1003A80003689A68D10705D59A68D20714D4002043
:1003B80002B070479A68214942F001029A60204AC7
:1003C8001268B2FBF1F202EB42020192019A002A92
:1003D800EAD0019A013AF8E7026C22F4E06222F0CE
:1003E800010242F4807202645A68510541BF026CEE
:1003F80022F4405242F480520264026C12F4805299
:100408001CBF426C22F006024264002280F83C20A5
:100418006FF022021A600B4A5268D20608D1986817
:1004280010F04050C3D19A6842F080429A60BFE70A
:10043800054A9342BBD1F2E70220B9E740420F00D8
:100448000000002000230140002001400368D86C10
:1004580070470000F7B50023019390F83C30012B5A
:1004680000F083800D6804688A680123092D80F8EC
:100478003C30AEB22AD906EB4603E7681E3B4FF084
:10048800070E0EFA03FE27EA0E07E760E76802FA8E
:1004980003F33B43E3604A68062A4FEA820325D800
:1004A8001344676B591F1F238B4027EA03036363B9
:1004B800626B06FA01F1114361632D4B9C4234D003
:1004C800002380F83C30184603B0F0BD276905EBDF
:1004D80045034FF0070E0EFA03FE27EA0E072761C1
:1004E800276902FA03F33B432361D4E70C2A0ED8A9
:1004F8001344216BA3F123021F23934021EA030332
:100508002363236B06FA02F21A432263D5E71344E6
:10051800E16A413B1F229A4021EA0202E262E26A52
:1005280006FA03F11143E162C7E7122D04D1114A1B
:10053800536843F480035360A5F11003012BBFD81F
:100548000C4A5368102D43F400035360B8D10A4B8A
:100558000A4A1B68B3FBF2F20A2353430193019B37
:10056800002BADD0019B013BF8E70220ACE700BFB0
:1005780000200140002301400000002040420F00FD
:10058800074AD36823F4E0631B041B0C43F0BF63E2
:10059800000243F4003300F4E0600343D360704783
:1005A80000ED00E0174B30B5DC68C4F30224C4F159
:1005B8000703251D042B28BF0423062D4FF0010532
:1005C80005FA03F303F1FF338CBF033C0024194001
:1005D800A14005FA04F4013C2240002842EA010245
:1005E8004FEA0212AFBF00F1604000F00F00064B67
:1005F800D2B2A5BF00F56140D2B21A5480F80023E8
:1006080030BD00BF00ED00E014ED00E00138B0F1AE
:10061800807F0AD2064B074A5860F02182F82310DF
:100628000020072298601A6070470120704700BFB9
:1006380010E000E000ED00E0044B1A6804280CBF4D
:1006480042F0040222F004021A60704710E000E051
:10065800704708B5FFF7FCFF08BD00002DE9F04F13
:1006680085B00B68DFF8AC81684ADFF8AC9101937C
:1006780000234FF0010E019C0EFA03FE0EEA040659
:10068800B64540F0AE804C6824F01007022F16D112
:100698004FEAD30A00EB8A0A03F0070BDAF8205076
:1006A8004FEA8B0B4FF00F0C0CFA0BFC25EA0C0CE5
:1006B8000D6905FA0BF545EA0C05CAF820504FEA12
:1006C800430A0325D0F800B005FA0AF5ED4304F013
:1006D800030C0BEA050B0CFA0AFC013F4CEA0B0C65
:1006E800012FC0F800C011D8876807EA050BCF684A
:1006F80007FA0AFC4CEA0B078760476827EA0E0EE0
:10070800C4F300179F4047EA0E074760C7683D409B
:100718008F6807FA0AF73D43C560E50061D54FF0D9
:10072800000BCDF80CB0D8F84470394D47F4804729
:10073800C8F84470D8F8447007F480470397039FBB
:1007480023F0030707F1804707F59C3703F0030CF4
:10075800D7F808A04FEA8C0C4FF00F0E0EFA0CFEDB
:10076800A8422AEA0E0E43D005F58065A84241D07A
:1007780005F58065A8423FD005F58065A8423DD0C3
:1007880005F58065A8423BD048453BD005F5006596
:10079800A84239D005F58065A84214BF0825072569
:1007A80005FA0CF545EA0E05BD601568F74314F423
:1007B800803F0CBF3D4035431560556814F4003F39
:1007C8000CBF3D4035435560956814F4801F0CBF3D
:1007D8003D4035439560D568A40254BF3D4035433C
:1007E800D5600133102B7FF444AF05B0BDE8F08F1E
:1007F8005D46D5E70125D3E70225D1E70325CFE7F5
:100808000425CDE70525CBE70625C9E7003C0140CF
:100818000000024000380240001402400368F7B5A7
:100828000446D8073BD42368990700F186802368DB
:100838001E0700F1D18023685D072AD500230193A4
:100848008E4B8F4D1A6C42F080521A641B6C03F069
:1008580080530193019B2B6843F480732B60FFF74F
:10086800E5FC06462B68DA0540F1D880A368834D7D
:10087800012B40F0DA802B6F43F001032B67FFF761
:10088800D5FC7E4D064641F288372B6F9B0740F119
:10089800ED80A269002A40F0F980002015E0774B2E
:1008A8009A6802F00C02042A07D09A6802F00C0237
:1008B800082A0CD15B685A0209D5704B1B689B0348
:1008C800B1D56368002BAED1012003B0F0BD6368D9
:1008D8006A4DB3F5803F11D12B6843F480332B6008
:1008E800FFF7A4FC654D06462B689F039BD4FFF7D2
:1008F8009DFC801B6428F7D90320E6E7B3F5A02FF9
:1009080004D12B6843F480232B60E5E72A6822F49E
:1009180080322A602A6822F480222A60002BDFD1E4
:10092800FFF784FC06462B6898037FF57CAFFFF73A
:100938007DFC801B6428F6D9DEE7504B9A6812F0DC
:100948000C0F07D09A6802F00C02082A16D15B68CF
:10095800590213D4494B1A68920702D5E268012A52
:10096800B2D11868F82292FAA2F2B2FA82F1226998
:100978008A4020F0F8010A431A6058E7E268414BC0
:10098800DAB101221A60FFF751FC3C4D06462B688C
:100998009B070CD52968F82393FAA3F3B3FA83F2DB
:1009A8002369934021F0F80213432B603FE7FFF7D8
:1009B8003DFC801B0228EAD99EE71A60FFF736FC47
:1009C8002E4D06462B689F077FF531AFFFF72EFCAB
:1009D800801B0228F6D98FE762692B4B7AB1012276
:1009E8001A60FFF723FC254D06466B6F98073FF505
:1009F80022AFFFF71BFC801B0228F6D97CE71A60A0
:100A0800FFF714FC1D4D06466B6F99077FF513AF72
:100A1800FFF70CFC801B0228F6D96DE7FFF706FCF0
:100A2800801B02287FF61EAF66E7052B04D12B6FCB
:100A380043F004032B671EE72A6F22F001022A679E
:100A48002A6F22F004022A67002B7FF418AFFFF701
:100A5800EDFB41F2883706462B6F98077FF519AFF3
:100A6800FFF7E4FB801BB842F6D945E7FFF7DEFB4A
:100A7800801BB8427FF609AF3EE700BF003802404E
:100A88000070004000004742800E47422B4DAB6883
:100A980003F00C03082B3FF417AF294E0023022A5A
:100AA80033603ED1FFF7C2FB07462B68990132D469
:100AB80047F6C07797FAA7F74FF44032B7FA87F7A7
:100AC80092FAA2F24FF07061B2FA82F091FAA1F1B3
:100AD800226AE3691343626A02FA07F7A26A5208B4
:100AE800013A82403B431343E26A144CB1FA81F164
:100AF80002FA01F10B436B6001233360FFF796FBA9
:100B0800054623689A013FF5C8AEFFF78FFB401BE7
:100B18000228F6D9F0E6FFF789FBC01B0228C4D9E2
:100B2800EAE6FFF783FB04462B689B017FF5B5AE29
:100B3800FFF77CFB001B0228F6D9DDE600380240EF
:100B480060004742194A936803F00C03042B10B560
:100B580003D0082B03D0164810BD164810BD5168A5
:100B6800536801F03F0113F4800F47F6C0745368CF
:100B780094FAA4F0B0FA80F003EA040323FA00F32D
:100B880014BF0C480A48B0FBF1F05843074B4FF428
:100B980040325B6892FAA2F2B2FA82F203F440336E
:100BA800D34001335B00B0FBF3F010BD00380240C6
:100BB8000024F40040787D01564B1A6802F00F02B9
:100BC8008A422DE9F04105460E4630D32A6894073B
:100BD80037D4D0073DD44F4B1A6802F00F02964223
:100BE800C0F088802A68510700F18C80130707D568
:100BF800494A2969936823F4604343EAC10393602F
:100C0800FFF7A0FF444BF0229B6892FAA2F2B2FAD7
:100C180082F203F0F003D340404AD35CD840404B03
:100C280018600020FFF7CCFA0020BDE8F081CAB2B6
:100C38001A701B6803F00F039942C7D00120BDE862
:100C4800F0813549A8688B6823F0F00303438B6073
:100C5800BFE76A68304B012A1ED11B6813F4003FB6
:100C6800ECD02D4CA36823F003031343A360FFF7D4
:100C7800DDFA6B68012B074641F2883816D1A36864
:100C880003F00C03042BA6D0FFF7D0FAC01B404595
:100C9800F5D90320BDE8F081911E01291B6802D80F
:100CA80013F0007FDCE713F0020FD9E7022B0AD11B
:100CB800A36803F00C03082B8DD0FFF7B7FAC01B0D
:100CC8004045F5D9E5E7032B0FD1A36803F00C03E2
:100CD8000C2B80D0FFF7AAFAC01B4045F5D9D8E7FE
:100CE800FFF7A4FAC01B4045D3D8A36813F00C0F34
:100CF800F6D170E7F2B21A701B6803F00F039E4238
:100D08009CD16FE70449E8688B6823F4E0530343F8
:100D18008B606BE7003C024000380240ED1600088B
:100D280000000020014B1868704700BF0000002039
:100D3800036A23F001030362036A426870B5846999
:100D48000D6824F0730425438C6823F002032343C1
:100D58000C4CA04209D004F58064A04205D0426042
:100D68004A6885614263036270BDCC688E6923F06E
:100D7800080323434C6922F44072344323F00403EC
:100D88002243ECE700000140036A23F48073036206
:100D9800036A426870B5C4690D6824F0730425437A
:100DA8008C6823F4007343EA04230E4CA04209D054
:100DB80004F58064A04205D042604A68C561C263F8
:100DC800036270BDCC688E6923F4006343EA042390
:100DD8004C6922F44052344323F4806342EA0412FB
:100DE800EAE700BF00000140036A23F4805303626E
:100DF80030B5046A4368C2690D6822F4E64242EAE3
:100E080005228D6824F4005444EA0534094DA842AB
:100E180009D005F58065A84205D043604B68C261DA
:100E28000364046230BD4D6923F4804343EA8513AB
:100E3800F3E700BF00000140704790F83830012BFD
:100E480070B54FF002031CD080F8393003680122D6
:100E580080F838209A6822F47F4222F077029A605C
:100E68000A68402A79D019D8102A00F093800AD845
:100E7800002A00F08980012380F83930002380F8A7
:100E88003830184670BD202A00F08A80302AF2D106
:100E98009A6822F0700242F0370236E0702A36D0A3
:100EA8001BD8502A42D0602AE5D11C6A4D68CE680A
:100EB80024F010041C6299691A6A21F4704122F026
:100EC800A00242EA051241EA063199611A629A685B
:100ED80022F0700242F0670217E0B2F5805F11D08D
:100EE800B2F5005FC7D18A684D689C68C9682A4313
:100EF80024F47F4442EA012222439A609A6842F429
:100F0800804202E09A6822F007029A60B3E78A6892
:100F18004D689C68C9682A4324F47F4442EA012248
:100F280022439A609A6842F07702EEE74C68CE68EE
:100F3800196A1D6A25F001051D629A6921F00A01E6
:100F480022F0F00242EA061221439A6119629A6875
:100F580022F0700242F05702D7E74C68CE68196A4F
:100F68001D6A25F001051D629A6921F00A0122F027
:100F7800F00242EA061221439A6119629A6822F045
:100F8800700242F04702C0E79A6822F0700242F00D
:100F98000702BAE79A6822F0700242F01702B4E733
:100FA8009A6822F0700242F02702AEE72E4A0368E0
:100FB800904212D0B0F1804F0FD0A2F57C429042FF
:100FC8000BD002F58062904207D002F58062904211
:100FD80003D002F5784290421DD14A6823F070038D
:100FE8001343214A904204D1CA6823F4407313433F
:100FF80028E0B0F1804FF7D01C4A9042F4D002F5B7
:1010080080629042F0D002F580629042ECD002F506
:1010180078429042E8D0164A9042E5D002F58062C4
:101028009042E1D002F580629042DDD0A2F598327C
:101038009042D9D002F580629042D5D002F5806204
:101048009042D1D003608B68C3620B688362064B01
:10105800984206D003F58063984202D00123436189
:1010680070470B690363F9E7000001400004004082
:101078000040014010B50446A0B190F8393003F0A3
:10108800FF021BB980F8382000F034FA022384F8F4
:1010980039302068211DFFF789FF012384F8393092
:1010A800002010BD012010BD10B50446A0B190F875
:1010B800393003F0FF021BB980F83820FFF7BCFE77
:1010C800022384F839302068211DFFF76FFF0123C0
:1010D80084F83930002010BD012010BD036A23F0C8
:1010E80010030362036A426870B584690D6824F4CA
:1010F800E64444EA05258C6823F0200343EA0413F8
:101108000D4CA04209D004F58064A04205D042608D
:101118004A6885618263036270BDCC688E6923F07A
:10112800800343EA04134C6922F44062344323F0F9
:10113800400342EA8402EAE70000014038B590F82B
:101148003830012B04464FF0020018D0012384F8F0
:10115800383084F839001D460C2A0BD8DFE802F035
:10116800070A0A0A100A0A0A140A0A0A1800206852
:10117800FFF7DEFD002084F8395084F8380038BDC8
:101188002068FFF7ABFFF5E72068FFF7FDFDF1E703
:101198002068FFF729FEEDE7036A10B501248C40AB
:1011A80023EA04030362036A8A401A43026210BDF9
:1011B80010B5044601220068FFF7EEFF2368084ACD
:1011C800934203D002F58062934203D15A6C42F4F1
:1011D80000425A641A6842F001021A60002010BDE9
:1011E8000000014090F83830012B10B54FF0020391
:1011F80018D080F8393003680C685A68496822F0BA
:1012080070025A605A6822435A609A6822F0800233
:101218009A609A680A439A60012380F8393000235B
:1012280080F83830184610BD90F83830012B1FD0A0
:10123800CB688A6823F4407313434A6823F48063B5
:1012480013430A6823F4006313430A6923F48053A1
:1012580013434A6923F4005313438A6923F4404330
:10126800134302685364002380F8383018467047E7
:10127800022070471FB51348134B144A826200249A
:1012880080E8180001238460046183610462C462F9
:10129800C460C36104634361FEF7CEFF18B14821FF
:1012A8000B4800F0C1F801236946064800940193F1
:1012B8000294FFF7CFF818B15221054800F0B4F8AE
:1012C80004B010BD24000020002001400100000FE0
:1012D800E01600087FB502680D4B9A4215D100212F
:1012E80003F58C3300915A6C0A4842F480725A64B0
:1012F8005B6C039103F480730093009B01230193BB
:1013080001A903230293FFF7A9F907B05DF804FBCD
:10131800002001400000024082B00C4B00210091E7
:101328001A6B42F001021A631A6B02F00102009272
:10133800009A01911A6B42F010021A631B6B03F0BA
:1013480010030193019B02B0704700BF00380240B0
:1013580010B594B00023214A0193116C41F08051DB
:101368001164126C02F080520192019A1C4A029395
:10137800116841F48041116012680E9302F48042B2
:101388000292029A0222089201220B9208A81022C5
:101398000C92FFF743FA014600B1FEE70F230490D1
:1013A80005900690079003A80393FFF705FC0446F1
:1013B80000B1FEE7FFF7B6FC4FF47A73B0FBF3F029
:1013C800FFF724F90420FFF737F9224621464FF0AA
:1013D800FF30FFF7E7F814B010BD00BF0038024037
:1013E8000070004070B5FEF7FFFEFFF7B1FFFFF792
:1013F80093FFFFF73FFF00F0AFF800210848094CC2
:10140800074DFFF7D5FE17262046FEF7BFFF2046FB
:10141800FFF71CF82B6890FBF6F02D305863F3E7C4
:101428006C00002024000020FEE708B50320FFF729
:10143800A7F8002211466FF00B00FFF7B3F800225F
:1014480011466FF00A00FFF7ADF8002211466FF061
:101458000900FFF7A7F8002211466FF00400FFF714
:10146800A1F8002211466FF00300FFF79BF8002255
:1014780011466FF00100FFF795F8002211464FF072
:10148800FF30BDE80840FFF78DB87047FEE7FEE77C
:10149800FEE7FEE770477047704708B5FEF7BEFEE7
:1014A800BDE80840FFF7D5B80F49D1F8883043F4B4
:1014B8007003C1F888300D4B1A68002042F0010211
:1014C8001A6098601A6822F0847222F480321A60D6
:1014D800074A5A601A6822F480221A60D8604FF0CE
:1014E80000638B60704700BF00ED00E000380240E9
:1014F800103000240268094B9A4282B00BD10023B5
:101508000193074B5A6C42F001025A645B6C03F07A
:1015180001030193019B02B0704700BF0000014026
:10152800003802407FB50268094B9A420DD14FF44A
:10153800007301930223029300230393049301A9E8
:10154800012304480593FFF789F807B05DF804FB09
:10155800000001400010024010B52F482F4AB12367
:1015680080E80C0094B000234FF4E1628360C2600D
:1015780003614361FFF77EFD18B141212848FFF759
:1015880053FF14A94FF4805341F8483D2248FFF710
:1015980054FC18B147212248FFF746FF1E48FFF7C1
:1015A80083FD18B14C211E48FFF73EFF0024694611
:1015B800194800940194FFF715FE18B153211848F3
:1015C800FFF732FF002206A91348069407940894EF
:1015D80009940A940B940C94FFF7B0FD18B15F219D
:1015E8000F48FFF721FF00234FF400520DA90A48C6
:1015F8000D930E930F931093119312921393FFF779
:1016080013FE18B16B210648FFF70EFF0248FFF7DB
:1016180089FF14B010BD00BF6C000020000001401D
:10162800FD160008DFF834D0002103E00C4B5B58AE
:10163800435004310B480C4B42189A42F6D30B4ADC
:1016480002E0002342F8043B094B9A42F9D3FFF722
:101658002BFF00F011F8FFF7C5FE704700000220CD
:1016680014170008000000200400002004000020D7
:10167800A8000020FEE7000070B50D4E0D4CA41B1D
:10168800A4100025A54209D10B4E0C4C00F018F807
:10169800A41BA4100025A54205D170BD56F825301D
:1016A80098470135EEE756F8253098470135F2E7B7
:1016B8000C1700080C1700080C1700081017000872
:1016C800F8B500BFF8BC08BC9E467047F8B500BF27
:0816D800F8BC08BC9E467047F7
:1016E0002E2E5C5372635C6164632E630000000005
:1016F000000000000001020304060708092E2E5C0A
:0C1700005372635C74696D2E630000007E
:04170C00AD01000823
:041710008901000843
:041714000024F400B9
:040000050800162DAC
:00000001FF
