:020000040800F2
:1000000000000220552700084B2600084D26000856
:100010004F26000851260008532600080000000063
:10002000000000000000000000000000552600084D
:100030005726000800000000592600085B2600082B
:10004000A5270008A5270008A5270008A527000860
:10005000A5270008A5270008A5270008A527000850
:10006000A5270008A5270008A5270008A527000840
:10007000A5270008A5270008A5270008A527000830
:10008000A5270008A5270008A5270008A527000820
:10009000A5270008A5270008A5270008A527000810
:1000A000A5270008A5270008A5270008A527000800
:1000B000A5270008A5270008A5270008A5270008F0
:1000C000A5270008A5270008A5270008A5270008E0
:1000D000A5270008A5270008A5270008A5270008D0
:1000E000A5270008A5270008A5270008A5270008C0
:1000F000A5270008A5270008A5270008A5270008B0
:10010000A5270008A5270008A5270008A52700089F
:10011000A5270008A5270008A5270008A52700088F
:1001200069260008A5270008A5270008A5270008BC
:10013000A5270008A5270008A5270008A52700086F
:10014000A5270008A5270008A5270008A52700085F
:10015000A5270008A5270008A5270008A52700084F
:10016000A5270008A5270008A5270008A52700083F
:10017000A5270008A5270008A52700080000000003
:08018000A5270008A5270008CF
:1001900010B5054C237833B9044B13B10448AFF3C1
:1001A00000800123237010BD7406002000000000B1
:1001B000E455000808B5034B1BB103490348AFF3EE
:1001C000008008BD0000000078060020E45500080B
:1001D000034613F8012B002AFBD1181A0138704787
:1001E00001F0FF01102A2BDB10F0070F08D010F8E8
:1001F000013B013A8B422DD010F0070F42B3F6D1EC
:10020000F0B441EA012141EA014122F007047FF004
:1002100000070023F0E80256083C85EA010586EA5B
:10022000010685FA47F5A3FA87F586FA47F6A5FA97
:1002300087F68EB9EED1F0BC01F0FF0102F00702A3
:1002400032B110F8013B013A83EA010313B1F8D14E
:100250000020704701387047002D06BF354603382F
:10026000073815F0010F07D1013015F4807F02BF68
:10027000013015F4C03F0130F0BC0138704700BFB9
:1002800081F0004102E000BF83F0004330B54FEA47
:1002900041044FEA430594EA050F08BF90EA020FB4
:1002A0001FBF54EA000C55EA020C7FEA645C7FEA47
:1002B000655C00F0E2804FEA5454D4EB5555B8BF6A
:1002C0006D420CDD2C4480EA020281EA030382EADB
:1002D000000083EA010180EA020281EA0303362D6D
:1002E00088BF30BD11F0004F4FEA01314FF4801C40
:1002F0004CEA113102D0404261EB410113F0004F52
:100300004FEA03334CEA133302D0524263EB430308
:1003100094EA050F00F0A780A4F10104D5F1200EA6
:100320000DDB02FA0EFC22FA05F2801841F1000101
:1003300003FA0EF2801843FA05F359410EE0A5F1D5
:1003400020050EF1200E012A03FA0EFC28BF4CF006
:10035000020C43FA05F3C01851EBE37101F00045BC
:1003600007D54FF0000EDCF1000C7EEB00006EEBC9
:100370000101B1F5801F1BD3B1F5001F0CD3490853
:100380005FEA30004FEA3C0C04F101044FEA4452AA
:1003900012F5800F80F09A80BCF1004F08BF5FEA31
:1003A000500C50F1000041EB045141EA050130BD11
:1003B0005FEA4C0C404141EB010111F4801FA4F1B4
:1003C0000104E9D191F0000F04BF01460020B1FA09
:1003D00081F308BF2033A3F10B03B3F120020CDA41
:1003E0000C3208DD02F1140CC2F10C0201FA0CF01F
:1003F00021FA02F10CE002F11402D8BFC2F1200C84
:1004000001FA02F120FA0CFCDCBF41EA0C01904039
:10041000E41AA2BF01EB0451294330BD6FEA040482
:100420001F3C1CDA0C340EDC04F11404C4F120026D
:1004300020FA04F001FA02F340EA030021FA04F37F
:1004400045EA030130BDC4F10C04C4F1200220FAD6
:1004500002F001FA04F340EA0300294630BD21FA14
:1004600004F0294630BD94F0000F83F4801306BFDA
:1004700081F480110134013D4EE77FEA645C18BFCE
:100480007FEA655C29D094EA050F08BF90EA020F65
:1004900005D054EA000C04BF1946104630BD91EA5D
:1004A000030F1EBF0021002030BD5FEA545C05D160
:1004B0004000494128BF41F0004130BD14F580049F
:1004C0003CBF01F5801130BD01F0004545F0FE4113
:1004D00041F470014FF0000030BD7FEA645C1ABF48
:1004E000194610467FEA655C1CBF0B46024650EA7F
:1004F000013406BF52EA033591EA030F41F40021AB
:1005000030BD00BF90F0000F04BF0021704730B530
:100510004FF4806404F132044FF000054FF0000105
:1005200050E700BF90F0000F04BF0021704730B5C6
:100530004FF4806404F1320410F0004548BF40429B
:100540004FF000013EE700BF42004FEAE2014FEAF0
:1005500031014FEA02701FBF12F07F4393F07F4FCB
:1005600081F06051704792F0000F14BF93F07F4FFD
:10057000704730B54FF4607401F0004521F0004140
:1005800020E700BF50EA010208BF704730B54FF0C6
:1005900000050AE050EA010208BF704730B511F0CB
:1005A000004502D5404261EB41014FF4806404F103
:1005B00032045FEA915C3FF4DCAE4FF003025FEA85
:1005C000DC0C18BF03325FEADC0C18BF033202EB0D
:1005D000DC02C2F1200300FA03FC20FA02F001FA67
:1005E00003FE40EA0E0021FA02F11444C1E600BF06
:1005F00070B54FF0FF0C4CF4E06C1CEA11541DBFB9
:100600001CEA135594EA0C0F95EA0C0F00F0DEF883
:100610002C4481EA030621EA4C5123EA4C5350EA68
:10062000013518BF52EA033541F4801143F48013B9
:1006300038D0A0FB02CE4FF00005E1FB02E506F04A
:100640000042E0FB03E54FF00006E1FB03569CF09F
:10065000000F18BF4EF0010EA4F1FF04B6F5007FA5
:1006600064F5407404D25FEA4E0E6D4146EB060617
:1006700042EAC62141EA55514FEAC52040EA5E50A0
:100680004FEACE2EB4F1FD0C88BFBCF5E06F1ED84A
:10069000BEF1004F08BF5FEA500E50F1000041EB81
:1006A000045170BD06F0004646EA010140EA02002E
:1006B00081EA0301B4EB5C04C2BFD4EB0C0541EA50
:1006C000045170BD41F480114FF0000E013C00F365
:1006D000AB8014F1360FDEBF002001F0004170BD89
:1006E000C4F10004203C35DA0C341BDC04F11404A2
:1006F000C4F1200500FA05F320FA04F001FA05F22E
:1007000040EA020001F0004221F0004110EBD370FA
:1007100021FA04F642EB06015EEA430E08BF20EA26
:10072000D37070BDC4F10C04C4F1200500FA04F3C9
:1007300020FA05F001FA04F240EA020001F000415B
:1007400010EBD37041F100015EEA430E08BF20EACE
:10075000D37070BDC4F1200500FA05F24EEA020E16
:1007600020FA04F301FA05F243EA020321FA04F045
:1007700001F0004121FA04F220EA020000EBD370FC
:100780005EEA430E08BF20EAD37070BD94F0000FFC
:100790000FD101F00046400041EB010111F4801F30
:1007A00008BF013CF7D041EA060195F0000F18BFE1
:1007B000704703F00046520043EB030313F4801F1D
:1007C00008BF013DF7D043EA0603704794EA0C0FD7
:1007D0000CEA135518BF95EA0C0F0CD050EA4106ED
:1007E00018BF52EA4306D1D181EA030101F000416A
:1007F0004FF0000070BD50EA410606BF1046194692
:1008000052EA430619D094EA0C0F02D150EA01369D
:1008100013D195EA0C0F05D152EA03361CBF1046DE
:1008200019460AD181EA030101F0004141F0FE417D
:1008300041F470014FF0000070BD41F0FE4141F401
:10084000780170BD70B54FF0FF0C4CF4E06C1CEA01
:1008500011541DBF1CEA135594EA0C0F95EA0C0FB6
:1008600000F0A7F8A4EB050481EA030E52EA033571
:100870004FEA013100F088804FEA03334FF0805592
:1008800045EA131343EA12634FEA022245EA1115BF
:1008900045EA10654FEA00260EF000419D4208BF70
:1008A000964244F1FD0404F5407402D25B084FEA1D
:1008B0003202B61A65EB03055B084FEA32024FF4C9
:1008C00080104FF4002CB6EB020E75EB030E22BF26
:1008D000B61A754640EA0C005B084FEA3202B6EBE6
:1008E000020E75EB030E22BFB61A754640EA5C0095
:1008F0005B084FEA3202B6EB020E75EB030E22BF25
:10090000B61A754640EA9C005B084FEA3202B6EB25
:10091000020E75EB030E22BFB61A754640EADC00E4
:1009200055EA060E18D04FEA051545EA16754FEA46
:1009300006164FEAC30343EA52734FEAC2025FEA64
:100940001C1CC0D111F4801F0BD141EA00014FF0F3
:1009500000004FF0004CB6E711F4801F04BF0143C4
:100960000020B4F1FD0C88BFBCF5E06F3FF6AFAEE0
:10097000B5EB030C04BFB6EB020C5FEA500C50F170
:10098000000041EB045170BD0EF0004E4EEA1131F3
:1009900014EB5C04C2BFD4EB0C0541EA045170BDFA
:1009A00041F480114FF0000E013C90E645EA060E3E
:1009B0008DE60CEA135594EA0C0F08BF95EA0C0F6C
:1009C0003FF43BAF94EA0C0F0AD150EA01347FF4B4
:1009D00034AF95EA0C0F7FF425AF104619462CE78B
:1009E00095EA0C0F06D152EA03353FF4FDAE1046EE
:1009F000194622E750EA410618BF52EA43067FF43F
:100A0000C5AE50EA41047FF40DAF52EA43057FF4CE
:100A1000EBAE12E74FF0FF3C06E000BF4FF0010CD9
:100A200002E000BF4FF0010C4DF804CD4FEA410C3D
:100A30007FEA6C5C4FEA430C18BF7FEA6C5C1BD00A
:100A400001B050EA410C0CBF52EA430C91EA030F8B
:100A500002BF90EA020F0020704710F1000F91EAE8
:100A6000030F58BF994208BF90422CBFD8176FEAB6
:100A7000E37040F0010070474FEA410C7FEA6C5C84
:100A800002D150EA013C07D14FEA430C7FEA6C5C8B
:100A9000D6D152EA033CD3D05DF8040B704700BFB7
:100AA0008446104662468C461946634600E000BF05
:100AB00001B5FFF7B7FF002848BF10F1000F01BDD7
:100AC0004DF808EDFFF7F4FF0CBF012000205DF8A2
:100AD00008FB00BF4DF808EDFFF7EAFF34BF012027
:100AE00000205DF808FB00BF4DF808EDFFF7E0FFC0
:100AF00094BF012000205DF808FB00BF4DF808ED11
:100B0000FFF7CEFF94BF012000205DF808FB00BF77
:100B10004DF808EDFFF7C4FF34BF012000205DF859
:100B200008FB00BF4FEA410C7FEA6C5C02D150EA3F
:100B3000013C0AD14FEA430C7FEA6C5C02D152EAD5
:100B4000033C02D14FF0000070474FF001007047A6
:100B50004FEA410212F5001215D211D56FF47873E5
:100B6000B3EB625212D94FEAC12343F0004343EA88
:100B7000505311F0004F23FA02F018BF4042704763
:100B80004FF00000704750EA013005D111F00040ED
:100B900008BF6FF0004070474FF00000704700BF83
:100BA00053B94AB9002908BF00281CBF4FF0FF31D4
:100BB0004FF0FF3000F07AB9ADF1080C6DE904CECA
:100BC00000F006F8DDF804E0DDE9022304B0704728
:100BD0002DE9F0478C460D460446089E002B51D166
:100BE0008A4217466DD9B2FA82FEBEF1000F0BD0D1
:100BF000CEF1200C01FA0EF520FA0CFC02FA0EF7E9
:100C00004CEA050C00FA0EF44FEA174A250CBCFB1F
:100C1000FAF81FFA87F90AFB18CC45EA0C4508FBDD
:100C200009F3AB420AD9ED1908F1FF3280F02381B4
:100C3000AB4240F22081A8F102083D44ED1AA4B273
:100C4000B5FBFAF00AFB105544EA054400FB09F92C
:100C5000A14509D9E41900F1FF3380F00A81A145CB
:100C600040F2078102383C44A4EB090440EA084002
:100C70000021002E61D024FA0EF40023346073604A
:100C8000BDE8F0878B4207D9002E54D0002186E8BA
:100C900021000846BDE8F087B3FA83F1002940F04F
:100CA0008E80AB4202D3824200F2FA80841A65EB56
:100CB00003050120AC46002E3FD086E81010BDE8A9
:100CC000F08712B90127B7FBF2F7B7FA87FEBEF13A
:100CD000000F34D1EB1B3A0C1FFA87FC0121B3FB48
:100CE000F2F8250C02FB183345EA03450CFB08F328
:100CF000AB4207D9ED1908F1FF3002D2AB4200F246
:100D0000D1808046ED1AA3B2B5FBF2F002FB10557C
:100D100043EA05440CFB00FCA44507D9E41900F1A3
:100D2000FF3302D2A44500F2B8801846A4EB0C04AD
:100D300040EA08409DE731463046BDE8F087CEF1F5
:100D4000200405FA0EF307FA0EF720FA04F83A0C1D
:100D500025FA04F448EA0308B4FBF2F14FEA184517
:100D600002FB11441FFA87FC45EA044501FB0CF322
:100D7000AB4200FA0EF409D9ED1901F1FF3080F011
:100D80008A80AB4240F2878002393D44EB1A1FFA59
:100D900088F5B3FBF2F002FB103345EA034500FB94
:100DA0000CF3AB4207D9ED1900F1FF386FD2AB421B
:100DB0006DD902383D44EB1A40EA01418FE7C1F199
:100DC000200722FA07F88B4005FA01F448EA0303EA
:100DD00020FA07FE4FEA134CFD404EEA040EB5FB25
:100DE000FCF94FEA1E440CFB19551FFA83F844EA3C
:100DF000054509FB08F4AC4202FA01F200FA01FAD7
:100E000008D9ED1809F1FF3043D2AC4241D9A9F11C
:100E100002091D442D1B1FFA8EFEB5FBFCF00CFBD6
:100E200010554EEA054400FB08F8A04507D9E41820
:100E300000F1FF3529D2A04527D902381C4440EAE9
:100E40000940A4EB0804A0FB02894C45C6464D4668
:100E500015D312D056B1BAEB0E0364EB050404FAB5
:100E600007F7CB401F43CC40376074600021BDE8DA
:100E7000F0871846F8E69046E0E6C245EAD2B8EBBD
:100E8000020E69EB03050138E4E72846D7E7404640
:100E900091E78146BEE7014678E702383C4445E7E2
:100EA000084608E7A8F102083D442BE7704700BF59
:100EB00010B5084B044618684FF47A73B0FBF3F092
:100EC00000F0E8FA002221464FF0FF3000F0A2FACD
:100ED000002010BD0000002008B50B4B1A6842F43A
:100EE00000721A601A6842F480621A601A6842F44A
:100EF00080721A60032000F07BFA0020FFF7D8FF11
:100F000001F073FB002008BD003C0240024A136858
:100F100001331360704700BFC8060020014B1868FA
:100F2000704700BFC806002010B50446002800F036
:100F30009F80036C23B9436480F83C3001F014FABD
:100F4000236CDB0600F19280236C23F4885323F09A
:100F5000020343F002032364464B5A6822F44032F2
:100F60005A605A6861680A435A60236821695A685E
:100F700022F480725A605A6842EA01225A605A6822
:100F8000A16822F040725A605A680A435A609A680F
:100F9000E16822F400629A609A680A439A603649CE
:100FA000A26A8A4256D0996821F070619960996866
:100FB0000A439A609A68E16A22F040529A609A68FD
:100FC0000A439A609A68A16922F002029A609A68BC
:100FD00042EA41029A60226A002A43D05A6842F4E7
:100FE00000625A605A6822F460425A604FF46042CC
:100FF00092FAA2F2B2FA82F1626A5868013A8A4021
:1010000002435A60DA6AE16922F47002DA62DA6A4B
:10101000013942EA0152DA629A68216B22F40072C5
:101020009A609A6842EA41229A609A68616922F459
:1010300080629A609A68002042EA81229A60606425
:10104000236C23F0030343F001032364002384F89B
:101050003C3010BD9A6822F070629A609A6822F063
:101060004052AEE75A6822F40062CAE70120EDE779
:10107000012010BD002301400100000F82B00023B9
:10108000019390F83C30012B4ED0012380F83C3086
:1010900003689A68D10705D59A68D20714D400204E
:1010A00002B070479A68214942F001029A60204AD2
:1010B0001268B2FBF1F202EB42020192019A002A9D
:1010C000EAD0019A013AF8E7026C22F4E06222F0D9
:1010D000010242F4807202645A68510541BF026CF9
:1010E00022F4405242F480520264026C12F48052A4
:1010F0001CBF426C22F006024264002280F83C20B1
:101100006FF022021A600B4A5268D20608D1986822
:1011100010F04050C3D19A6842F080429A60BFE715
:10112000054A9342BBD1F2E70220B9E740420F00E3
:1011300000000020002301400020014037B5134685
:101140000022019290F83C20012A044665D00568EF
:10115000012280F83C20AA68D20705D5AA68D007EA
:1011600015D4002003B030BDAA6842F00102AA6085
:101170002B4A10682B4AB0FBF2F000EB40000190C4
:10118000019A002AEAD0019A013A0192F8E7206C0C
:1011900020F4E06020F0010040F4807020646A6870
:1011A000520541BF206C20F4405040F48050206430
:1011B000226CA06B12F480521CBF626C22F00602FB
:1011C0006264002284F83C20174AC263174A026412
:1011D000174AC2646FF022022A606A6842F0806295
:1011E0006A60AA6842F48072AA600A4605F14C015E
:1011F00000F00CFA0F4B5B6813F01F0F236808D147
:10120000986810F04050ACD19A6842F080429A60E1
:10121000A8E7094A9342A4D1F2E70220A2E700BF5F
:101220000000002040420F003F120008A1120008F9
:10123000AD12000800230140002001407047836B7D
:101240001A6C12F0500F10B524D11A6C42F40072CF
:101250001A641A68916811F0405F17D19969A9B9A9
:10126000D16A11F4700F02D0916849050ED451680B
:1012700021F0200151601A6C22F480721A641A6CF9
:10128000D2045EBF1A6C42F001021A641846FFF7DE
:10129000D5FF10BD9B6BBDE81040DB6C1847704755
:1012A00008B5806BFFF7FBFF08BD7047806B08B582
:1012B00040230364436C43F004034364FFF7F5FFEA
:1012C00008BD0000F7B50023019390F83C30012BD6
:1012D00000F083800D6804688A680123092D80F876
:1012E0003C30AEB22AD906EB4603E7681E3B4FF00E
:1012F000070E0EFA03FE27EA0E07E760E76802FA18
:1013000003F33B43E3604A68062A4FEA820325D889
:101310001344676B591F1F238B4027EA0303636342
:10132000626B06FA01F1114361632D4B9C4234D08C
:10133000002380F83C30184603B0F0BD276905EB68
:1013400045034FF0070E0EFA03FE27EA0E0727614A
:10135000276902FA03F33B432361D4E70C2A0ED832
:101360001344216BA3F123021F23934021EA0303BB
:101370002363236B06FA02F21A432263D5E7134470
:10138000E16A413B1F229A4021EA0202E262E26ADC
:1013900006FA03F11143E162C7E7122D04D1114AA5
:1013A000536843F480035360A5F11003012BBFD8A9
:1013B0000C4A5368102D43F400035360B8D10A4B14
:1013C0000A4A1B68B3FBF2F20A2353430193019BC1
:1013D000002BADD0019B013BF8E70220ACE700BF3A
:1013E00000200140002301400000002040420F0087
:1013F000074AD36823F4E0631B041B0C43F0BF636C
:10140000000243F4003300F4E0600343D36070470C
:1014100000ED00E0174B30B5DC68C4F30224C4F1E2
:101420000703251D042B28BF0423062D4FF00105BB
:1014300005FA03F303F1FF338CBF033C002419408A
:10144000A14005FA04F4013C2240002842EA0102CE
:101450004FEA0212AFBF00F1604000F00F00064BF0
:10146000D2B2A5BF00F56140D2B21A5480F8002371
:1014700030BD00BF00ED00E014ED00E042090123A3
:1014800000F01F0003FA00F0014B43F82200704700
:1014900000E100E00138B0F1807F0AD2064B074A34
:1014A0005860F02182F823100020072298601A600B
:1014B00070470120704700BF10E000E000ED00E041
:1014C000044B1A6804280CBF42F0040222F0040204
:1014D0001A60704710E000E0704708B5FFF7FCFFA6
:1014E00008BD00000368DAB223F47F7323F003031E
:1014F0001821103AB2FBF1F20449032A88BF0433E1
:10150000895C8365C165806D704700BF0056000827
:1015100070B50446FFF702FD0546002C71D000238C
:1015200084F834302268022384F83530136823F0BD
:101530000103136021680B68D8073CD40B68324D57
:101540006268A0691D40A3681343E26813432269DF
:10155000134362691343E26903431343226A13434B
:10156000626A042A43EA050301BF266BE56A354334
:101570002B430B604B69042A23F0070343EA020361
:101580000BD1A26AE56A13433DB1F8B9012A2DD007
:1015900001D3022A01D1EA012BD44B612046FFF787
:1015A000A1FFE26D3F23934083600020012360652B
:1015B00084F8353070BDFFF7B1FC401B0528B9D960
:1015C00020236365032084F8350070BDB0F5005F0B
:1015D00013D1032AE1D801A050F822F0F315000836
:1015E00097150008F3150008ED150008B5F1C07F48
:1015F000D3D1402363650120E5E7022AF9D9032A04
:10160000C8E7012070BD00BF3F8010F070B590F8B2
:101610003440012C36D0012480F8344090F8354015
:10162000866D012C4FF000054FF0020428D180F8A0
:10163000354004684565256825F48025256063608C
:101640008368402B0EBFA260A160E260C26D08BF3C
:10165000E1603F239340B360236843F016032360A7
:10166000636943F080036361036C1BB1236843F03B
:1016700008032360236843F001032360002070BD4A
:1016800080F83450022070BDF7B5002301935A4B07
:10169000856D1F68C36D2E6808229A401642044665
:1016A0000CD001680868400708D5086820F00400DD
:1016B0000860AA60626D42F0010262654F4A9A407A
:1016C000164208D021684969090641BFAA60626DC7
:1016D00042F0020262654A4A9A40164208D02168E6
:1016E0000968880741BFAA60626D42F00402626522
:1016F00010229A40164210D02368196809070CD5A9
:10170000AA601A68500335D51B68190301D4236CED
:1017100000E0A36C0BB120469847E16D20228A407F
:10172000164238D023681868C60634D5AA6094F8E3
:101730003520052A1A6825D122F016021A605A6946
:1017400022F080025A61226C0AB9A26C1AB11A689E
:1017500022F008021A603F238B40AB60002384F81C
:101760003430012384F83530236D0BB1204698477F
:1017700003B0F0BD1A68D2055EBF1A6822F00802F5
:101780001A60C4E7500328D51B68190332D4636C70
:101790000BB120469847636D002BE9D0636DDA07E3
:1017A00019D50523226884F83530136823F0010326
:1017B00013604FF41653B7FBF3F7019B01339F42BD
:1017C000019302D31368DB07F7D4002384F8343085
:1017D000012384F83530E36CC7E71A6812F480728D
:1017E00008D1196821F010011960012384F8342010
:1017F00084F83530E36BCBE7000000200100800067
:10180000040080002DE9F04F85B00B68DFF8AC8153
:10181000684ADFF8AC91019300234FF0010E019C60
:101820000EFA03FE0EEA0406B64540F0AE804C68A0
:1018300024F01007022F16D14FEAD30A00EB8A0AD0
:1018400003F0070BDAF820504FEA8B0B4FF00F0C28
:101850000CFA0BFC25EA0C0C0D6905FA0BF545EAB0
:101860000C05CAF820504FEA430A0325D0F800B00F
:1018700005FA0AF5ED4304F0030C0BEA050B0CFA2C
:101880000AFC013F4CEA0B0C012FC0F800C011D834
:10189000876807EA050BCF6807FA0AFC4CEA0B07D2
:1018A0008760476827EA0E0EC4F300179F4047EA97
:1018B0000E074760C7683D408F6807FA0AF73D4347
:1018C000C560E50061D54FF0000BCDF80CB0D8F83D
:1018D0004470394D47F48047C8F84470D8F84470D4
:1018E00007F480470397039F23F0030707F180471E
:1018F00007F59C3703F0030CD7F808A04FEA8C0CCF
:101900004FF00F0E0EFA0CFEA8422AEA0E0E43D03C
:1019100005F58065A84241D005F58065A8423FD015
:1019200005F58065A8423DD005F58065A8423BD00D
:1019300048453BD005F50065A84239D005F58065DE
:10194000A84214BF0825072505FA0CF545EA0E053F
:10195000BD601568F74314F4803F0CBF3D4035432C
:101960001560556814F4003F0CBF3D403543556089
:10197000956814F4801F0CBF3D4035439560D568D1
:10198000A40254BF3D403543D5600133102B7FF492
:1019900044AF05B0BDE8F08F5D46D5E70125D3E73C
:1019A0000225D1E70325CFE70425CDE70525CBE7C1
:1019B0000625C9E7003C0140000002400038024013
:1019C000001402400368F7B50446D8073BD42368E7
:1019D000990700F1868023681E0700F1D1802368F3
:1019E0005D072AD5002301938E4B8F4D1A6C42F070
:1019F00080521A641B6C03F080530193019B2B6887
:101A000043F480732B60FFF789FA06462B68DA05EA
:101A100040F1D880A368834D012B40F0DA802B6F12
:101A200043F001032B67FFF779FA7E4D064641F23A
:101A300088372B6F9B0740F1ED80A269002A40F0A8
:101A4000F980002015E0774B9A6802F00C02042A16
:101A500007D09A6802F00C02082A0CD15B685A027F
:101A600009D5704B1B689B03B1D56368002BAED1C1
:101A7000012003B0F0BD63686A4DB3F5803F11D11A
:101A80002B6843F480332B60FFF748FA654D064618
:101A90002B689F039BD4FFF741FA801B6428F7D97A
:101AA0000320E6E7B3F5A02F04D12B6843F480238D
:101AB0002B60E5E72A6822F480322A602A6822F443
:101AC00080222A60002BDFD1FFF728FA06462B6818
:101AD00098037FF57CAFFFF721FA801B6428F6D9C5
:101AE000DEE7504B9A6812F00C0F07D09A6802F0AC
:101AF0000C02082A16D15B68590213D4494B1A68A4
:101B0000920702D5E268012AB2D11868F82292FA47
:101B1000A2F2B2FA82F122698A4020F0F8010A4367
:101B20001A6058E7E268414BDAB101221A60FFF708
:101B3000F5F93C4D06462B689B070CD52968F82320
:101B400093FAA3F3B3FA83F22369934021F0F802E6
:101B500013432B603FE7FFF7E1F9801B0228EAD926
:101B60009EE71A60FFF7DAF92E4D06462B689F07AD
:101B70007FF531AFFFF7D2F9801B0228F6D98FE746
:101B800062692B4B7AB101221A60FFF7C7F9254D24
:101B900006466B6F98073FF522AFFFF7BFF9801B32
:101BA0000228F6D97CE71A60FFF7B8F91D4D064602
:101BB0006B6F99077FF513AFFFF7B0F9801B022811
:101BC000F6D96DE7FFF7AAF9801B02287FF61EAF52
:101BD00066E7052B04D12B6F43F004032B671EE748
:101BE0002A6F22F001022A672A6F22F004022A6774
:101BF000002B7FF418AFFFF791F941F288370646C2
:101C00002B6F98077FF519AFFFF788F9801BB84253
:101C1000F6D945E7FFF782F9801BB8427FF609AF96
:101C20003EE700BF0038024000700040000047421D
:101C3000800E47422B4DAB6803F00C03082B3FF49A
:101C400017AF294E0023022A33603ED1FFF766F911
:101C500007462B68990132D447F6C07797FAA7F761
:101C60004FF44032B7FA87F792FAA2F24FF0706160
:101C7000B2FA82F091FAA1F1226AE3691343626A2F
:101C800002FA07F7A26A5208013A82403B43134323
:101C9000E26A144CB1FA81F102FA01F10B436B6074
:101CA00001233360FFF73AF9054623689A013FF5AF
:101CB000C8AEFFF733F9401B0228F6D9F0E6FFF76C
:101CC0002DF9C01B0228C4D9EAE6FFF727F904461C
:101CD0002B689B017FF5B5AEFFF720F9001B0228AA
:101CE000F6D9DDE60038024060004742194A9368A1
:101CF00003F00C03042B10B503D0082B03D01648B7
:101D000010BD164810BD5168536801F03F0113F42F
:101D1000800F47F6C074536894FAA4F0B0FA80F0CC
:101D200003EA040323FA00F314BF0C480A48B0FB8B
:101D3000F1F05843074B4FF440325B6892FAA2F23D
:101D4000B2FA82F203F44033D34001335B00B0FBBC
:101D5000F3F010BD003802400024F40040787D010B
:101D6000564B1A6802F00F028A422DE9F0410546EF
:101D70000E4630D32A68940737D4D0073DD44F4B52
:101D80001A6802F00F029642C0F088802A68510754
:101D900000F18C80130707D5494A2969936823F419
:101DA000604343EAC1039360FFF7A0FF444BF02276
:101DB0009B6892FAA2F2B2FA82F203F0F003D340E7
:101DC000404AD35CD840404B18600020FFF770F8C1
:101DD0000020BDE8F081CAB21A701B6803F00F033F
:101DE0009942C7D00120BDE8F0813549A8688B68C9
:101DF00023F0F00303438B60BFE76A68304B012A8E
:101E00001ED11B6813F4003FECD02D4CA36823F0C7
:101E100003031343A360FFF781F86B68012B0746A8
:101E200041F2883816D1A36803F00C03042BA6D026
:101E3000FFF774F8C01B4045F5D90320BDE8F081D9
:101E4000911E01291B6802D813F0007FDCE713F014
:101E5000020FD9E7022B0AD1A36803F00C03082B69
:101E60008DD0FFF75BF8C01B4045F5D9E5E7032BA4
:101E70000FD1A36803F00C030C2B80D0FFF74EF8B2
:101E8000C01B4045F5D9D8E7FFF748F8C01B4045CF
:101E9000D3D8A36813F00C0FF6D170E7F2B21A7022
:101EA0001B6803F00F039E429CD16FE70449E8686A
:101EB0008B6823F4E05303438B606BE7003C0240E4
:101EC000003802404956000800000020014B186805
:101ED000704700BF00000020084B4FF4E0529B68A1
:101EE00092FAA2F2B2FA82F203F4E053D340044A27
:101EF000D35C044A1068D840704700BF00380240E5
:101F00005956000800000020084B4FF460429B68BF
:101F100092FAA2F2B2FA82F203F46043D340044A86
:101F2000D35C044A1068D840704700BF00380240B4
:101F300059560008000000202DE9F0470668C268E5
:101F40003369C16923F44053134333610446836802
:101F50000069F2680343606922F41642034322F0E9
:101F60000C020B431343F3607369A26923F44073BB
:101F70001343B1F5004F73617A4B7CD19E4203D07D
:101F800003F580639E4244D1FFF7BEFF192505FB90
:101F900000F360684FF064094000B3FBF0F3B3FB5B
:101FA000F9F34FEA0318FFF7AFFF636868435B007C
:101FB000B0FBF3F7FFF7A8FF636868435B00B0FB73
:101FC000F3F3B3FBF9F309FB1373DB003233B3FB19
:101FD000F9F35B0003F4F877FFF796FF6268684354
:101FE0005200B0FBF2FAFFF78FFF636868435B00B3
:101FF000B0FBF3F3B3FBF9F309FB13A3DB003233BC
:10200000B3FBF9F303F0070343443B44B360BDE87B
:10201000F087FFF761FF192505FB00F360684FF0BB
:1020200064094000B3FBF0F3B3FBF9F34FEA031884
:10203000FFF752FF636868435B00B0FBF3F7FFF7FD
:102040004BFF636868435B00B0FBF3F3B3FBF9F34A
:1020500009FB1373DB003233B3FBF9F35B0003F4CA
:10206000F877FFF739FF626868435200B0FBF2FA75
:10207000FFF732FFB9E79E4202D03B4B9E4240D170
:10208000FFF742FF676819254FF0640905FB00F36D
:10209000BF00B3FBF7F3B3FBF9F31F01FFF734FF06
:1020A000636868439B00B0FBF3F8FFF72DFF63689C
:1020B00068439B00B0FBF3F3B3FBF9F309FB138315
:1020C0001B013233B3FBF9F303F0F008FFF71CFFF9
:1020D000626868439200B0FBF2FAFFF715FF63688D
:1020E00068439B00B0FBF3F3B3FBF9F309FB13A3C5
:1020F0001B013233B3FBF9F303F00F0343EA080388
:1021000083E7FFF7E9FE676819254FF0640905FBCF
:1021100000F3BF00B3FBF7F3B3FBF9F31F01FFF7C5
:10212000DBFE636868439B00B0FBF3F8FFF7D4FE67
:10213000636868439B00B0FBF3F3B3FBF9F309FB5F
:1021400013831B013233B3FBF9F303F0F008FFF7FD
:10215000C3FE626868439200B0FBF2FAFFF7BCFE70
:10216000BDE700BF0010014000140140F8B504466F
:102170000E4617461D4621680B6836EA030301D157
:102180000020F8BD6B1CF7D095B92368DA6822F4FB
:10219000D072DA605A6922F001025A61202384F871
:1021A000393084F83A30002384F838300320F8BD01
:1021B000FEF7B4FEC01B8542DDD2E6E710B504464B
:1021C00040B390F8393003F0FF021BB980F8382093
:1021D00000F096FA2268242384F83930D36823F477
:1021E0000053D3602046FFF7A7FE23681A6922F444
:1021F00090421A615A6922F02A025A61DA6842F45E
:102200000052DA6000202023E06384F8393084F83B
:102210003A3010BD012010BD2DE9F0411F4690F865
:102220003930202B04460D4690464FD100294AD024
:10223000002A48D090F83830012B47D0012380F88D
:1022400038300023C363212380F83930FEF766FE5F
:10225000A4F824800646A4F82680E38C9BB26BB9D0
:102260003B46324640212046FFF780FFB0B920238D
:1022700084F8393084F83800BDE8F081E38C013B04
:102280009BB2E384A368B3F5805F32463B464FF0D0
:10229000800120460ED1FFF769FF10B10320BDE891
:1022A000F0812B882268C3F308035360236943B984
:1022B0000235D2E7FFF75AFF0028EFD123682A78CA
:1022C0005A600135C9E70120BDE8F0810220BDE870
:1022D000F08100001FB52048204B214A8262002473
:1022E00080E8180003220123846003618361046293
:1022F000C462C460C26103634361FEF715FE18B196
:102300004A21184800F070F9009406230124694618
:10231000114801940293FEF7D5FF18B154211148DA
:1023200000F062F90094694602240B480194FEF71C
:10233000C9FF18B15D210B4800F056F90323694627
:10234000054800940193FEF7BDFF18B166210548CA
:1023500000F04AF904B010BDCC0600200020014076
:102360000100000F0856000870B502681D4B9A4224
:1023700086B0064633D1002503F58C3300955A6CA0
:1023800019481A4C42F480725A645B6C039503F44A
:1023900080730093009B0723019301A903230293F9
:1023A000FFF730FA124BA56084E828004FF48063F1
:1023B00023614FF4006363614FF40053A36120462F
:1023C0004FF48073E560E36125626562FFF7A0F872
:1023D00018B18F21074800F007F9B463A66306B06F
:1023E00070BD00BF00200140000002401407002023
:1023F000106402400856000807B50B4B00220192FA
:10240000196B41F4800119631B6B03F48003019382
:1024100011463820019BFEF7FDFF3820FFF72EF80C
:1024200003B05DF804FB00BF0038024082B00C4BE3
:10243000002100911A6B42F001021A631A6B02F03C
:1024400001020092009A01911A6B42F002021A6393
:102450001B6B03F002030193019B02B0704700BFA6
:102460000038024010B594B00023214A0193116C4A
:1024700041F080511164126C02F080520192019A75
:102480001C4A0293116841F48041116012680E9356
:1024900002F480420292029A0222089201220B92D6
:1024A00008A810220C92FFF78DFA014600B1FEE752
:1024B0000F23049005900690079003A80393FFF75D
:1024C0004FFC044600B1FEE7FFF700FD4FF47A73BE
:1024D000B0FBF3F0FEF7DEFF0420FEF7F1FF22462B
:1024E00021464FF0FF30FEF795FF14B010BD00BF3E
:1024F00000380240007000402DE9F04F99B0FEF71F
:10250000EBFCFFF7AFFFFFF791FFFFF775FFFFF75A
:10251000E1FE00F0D5F803222D492E48DFF8C4A0D3
:10252000FEF70CFE28A5D5E90045DFF8A4B0294840
:10253000FEF7A4FDBBF80200FDF7E4FF22462B46A0
:10254000FEF780F98046BBF804008946FDF7DAFF04
:1025500022462B46FEF776F90646BBF800000F46EA
:10256000FDF7D0FF22462B46FEF76CF902460B46DC
:102570006846194900F03CF96846FDF729FE6946AE
:1025800082B264235046FFF747FE42464B4613494A
:1025900008A800F02DF908A8FDF71AFE08A982B2D4
:1025A00064235046FFF738FE32463B460C4910A8DC
:1025B00000F01EF910A8FDF70BFE642382B210A9EB
:1025C0005046FFF729FEB0E700000000006493408A
:1025D00074070020CC060020155600082656000877
:1025E000375600087C070020FEE708B50320FEF7F9
:1025F000FFFE002211466FF00B00FEF70BFF0022DA
:1026000011466FF00A00FEF705FF002211466FF039
:102610000900FEF7FFFE002211466FF00400FEF7EE
:10262000F9FE002211466FF00300FEF7F3FE0022D0
:1026300011466FF00100FEF7EDFE002211464FF04B
:10264000FF30BDE80840FEF7E5BE7047FEE7FEE755
:10265000FEE7FEE770477047704708B5FEF756FC87
:10266000BDE80840FEF739BF0148FFF70DB800BFCD
:10267000140700200F49D1F8883043F47003C1F8E3
:1026800088300D4B1A68002042F001021A609860F1
:102690001A6822F0847222F480321A60074A5A6063
:1026A0001A6822F480221A60D8604FF000638B60B1
:1026B000704700BF00ED00E00038024010300024F9
:1026C00008B50C480C4B4FF4E13E80E808400C2262
:1026D00000238360C360036142618361C361FFF7CC
:1026E0006DFD28B142210548BDE80840FFF77CBFD9
:1026F00008BD00BF7C07002000480040615600086C
:102700007FB50268104B9A421AD1002300930F4BF9
:102710000F481A6C42F480221A641B6C03F4802365
:102720000093009B4FF44063019302230293012323
:1027300003930323049301A907230593FFF762F88A
:1027400007B05DF804FB00BF0048004000380240BD
:1027500000040240DFF834D0002103E00C4B5B584A
:10276000435004310B480C4B42189A42F6D30B4AA3
:1027700002E0002342F8043B094B9A42F9D3FFF7E9
:1027800079FF00F011F8FFF7B7FE70470000022054
:10279000F058000800000020740600207406002095
:1027A000CC070020FEE7000070B50D4E0D4CA41BB9
:1027B000A4100025A54209D10B4E0C4C02F012FFCB
:1027C000A41BA4100025A54205D170BD56F82530E4
:1027D00098470135EEE756F8253098470135F2E77E
:1027E000E8580008E8580008E8580008EC580008C5
:1027F0000EB400B59CB04FF402711DABADF81410CF
:10280000029006906FF000410A48049107914FF63C
:10281000FF7153F8042BADF816100068019302A95C
:1028200000F00AF8029B00221A701CB05DF804EB5D
:1028300003B07047040000202DE9F04FBDB08A4678
:1028400015461F46834601F025FE03680D93184682
:10285000FDF7BEFCBAF80C3008901B0618D5DAF864
:102860001030ABB94021584601F02AFECAF80000EA
:10287000CAF8100048B90C23CBF800304FF0FF33F2
:10288000099309983DB0BDE8F08F4023CAF8143091
:102890009FED997B8DED067B00232CAC1F9421933B
:1028A000209305950393119310930993059D2B464F
:1028B00013F8012B12B1252A40F08380059BEE1AF4
:1028C0000DD084E84800219B33442193209B0133A1
:1028D000072B209377DC0834099B334409932B782A
:1028E000002B00F029870023691C8DF85F301A4601
:1028F0004FF0FF390A931D460A204E1C09780596B1
:10290000029102992039582900F21884DFE811F069
:10291000A60016041604AB001604160416041604CA
:1029200016041604AE0065001604B700BA001604BB
:10293000D700DA00DA00DA00DA00DA00DA00DA00CA
:10294000DA00DA0016041604160416041604160437
:10295000160416041604160415012B0116042B0187
:102960001604160416041604ED001604160440039B
:1029700016041604160416041604A80316041604F6
:10298000860016041604160416041604160416040B
:1029900016041604160407016B002B012B012B01F2
:1029A000F0006B0016041604FA001604220342031A
:1029B00076030101160487031604AA0316041604FD
:1029C000C2031D4673E71FAA5146584602F07EFA1D
:1029D000002840F092862CAC7EE701232B2205993B
:1029E0008BE70F46FBE70BB18DF85F20AE0640F199
:1029F000AA80073727F0070707F10803D7E9006720
:102A00000493002E77F1000306DA76424FF02D038F
:102A100067EB47078DF85F300123CAE20BB18DF8F1
:102A20005F20374B1193AB0640F13983073727F00E
:102A3000070707F10803D7E900670493E8070BD5F8
:102A400056EA070308D030238DF860309DF808302F
:102A50008DF8613045F002050223A7E2002ABED1BD
:102A600001232022BBE745F00105B8E73E680A963E
:102A7000002E07F10401B4DA76420A960F4645F0BB
:102A80000405ACE705994E1C097802912A2910D05B
:102A90004FF0000905960299303909293FF631AF08
:102AA00000FB091905990E4616F8011B02910596BF
:102AB000F1E73968059641EAE17904378FE745F097
:102AC00080058CE700210A9102990A9E303900FBAB
:102AD00006110A9105990E4616F8011B02910299FA
:102AE000059630390929EFD90BE745F0080576E757
:102AF00045F0400573E700BF000000000000000043
:102B000080560008059909786C2905D1059901318D
:102B1000059145F0200562E745F010055FE73B1D94
:102B2000049300263B688DF888308DF85F604FF085
:102B3000010937460DF188081BE10BB18DF85F20C4
:102B400045F0100552E715F0100F07F1040303D00C
:102B50003E680493F71754E73E68049315F0400F5E
:102B600018BF36B2F6E70BB18DF85F20073727F0B4
:102B7000070707F10803049397ED007B8DED067BB3
:102B8000069B1293079B23F0004313934FF0FF32F1
:102B90004A4BDDE91201FDF7C5FF002840F0D5855D
:102BA0004FF0FF32454BDDE91201FDF79DFF002894
:102BB00040F0CB8500220023DDE90601FDF78AFF06
:102BC00010B12D238DF85F303D4B3E4A029925F020
:102BD00080054729CCBF904698464FF00309002650
:102BE0003746C6E0B9F1FF3F22D0029B23F0200315
:102BF000472B04D1B9F1000F08BF4FF0010945F48C
:102C000080730C93079B002B15DA069B0E93079B92
:102C100003F100430F932D230B93029B23F0200716
:102C2000462F0ED0452F46D109F1010602210AE0B8
:102C30004FF00609E3E79DED067B00238DED0E7B4B
:102C4000EAE74E4603211DAB01931AAB00933246CF
:102C500019AB9DED0E0B584600F04EFE472F8046F7
:102C600002D1E80740F17E8508EB0603462F039367
:102C700011D198F80030302B09D100220023DDE972
:102C80000E01FDF71DFF10B9C6F101061996039A52
:102C9000199B1A44039200220023DDE90E01FDF77F
:102CA0000FFF88B930221D9B039999420ED9591CF8
:102CB0001D911A70F7E74E46B8E700BFFFFFEF7FA0
:102CC0007056000874560008039B1D931D9B472FE8
:102CD000A3EB0803039340F0FA80199BD91C02DB95
:102CE000994580F22081029B023B0293199A9DF83C
:102CF00008108DF86C10531E002B1993B6BFC2F14B
:102D000001032B222D22092B8DF86D2040F3FB802F
:102D10000DF17B020A2693FBF6F006FB10333033ED
:102D2000092802F8013C02F1FF31034600F3E48078
:102D3000303301F8013C023A0DF16E030DF17B00D6
:102D400082421946C0F0DA80039A1BABCB1A012AE3
:102D5000109303EB020902DC15F0010702D0089B77
:102D6000002799440B9B13B12D238DF85F300C9DE8
:102D700000264E453346B8BF4B460B939DF85F3057
:102D800013B10B9B01330B9315F0020314931EBF79
:102D90000B9B02330B9315F08403159318D10A9BF8
:102DA0000B9A9B1A002B0C9312DD0C9B102BA94B3A
:102DB000236000F3D5810C9B63600C9A219B134424
:102DC0002193209B0133072B209300F3E2810834E9
:102DD0009DF85F3073B10DF15F03236001236360E1
:102DE000219B01332193209B0133072B209300F378
:102DF000DA810834149B6BB118AB23600223636043
:102E0000219B02332193209B0133072B209300F356
:102E1000D4810834159B802B14D10A9B0B9A9B1AE2
:102E2000002B0FDD8C4A2260102B00F3D081219AF9
:102E3000636013442193209B0133072B209300F3FD
:102E4000DF810834A6EB0906002E0FDD824B2360DC
:102E5000102E00F3DF81209B219866600133064429
:102E6000072B2196209300F3EC810834EB0500F149
:102E7000F281219B84E800034B442193209B013382
:102E8000072B209340F319841FAA5146584602F09D
:102E90001DF8002840F031842CAC6B0700F1108441
:102EA000099B0A9A0B998A42ACBF9B185B1809933D
:102EB000219B3BB11FAA5146584602F007F8002853
:102EC00040F01B8400232093049F2CACEEE4029B73
:102ED000652B7FF70BAF029B662B24D1199B002B30
:102EE00019DDB9F1000F01D1EA0702D5089A1344A0
:102EF0004B44199F994635E70A460CE712F8011B27
:102F000003F8011B1CE7302213448DF86E208DF866
:102F10006F301CA918E7B9F1000F01D1EB0715D5E7
:102F2000089B0133E4E7199A039B9A4206DBEF07FB
:102F30000ED5089B134467220292DAE7039B089997
:102F4000002A0B44F7DCC2F10102F3E70123D0E7CA
:102F50001346F0E70BB18DF85F2015F0200F07F155
:102F6000040308D009993A68CE1708463146C2E9E9
:102F700000011F469AE4EE0603D53A6809991160EC
:102F8000F7E76806F9D53A68BDF824101180F0E734
:102F900045F0100515F0200322D0073727F007076A
:102FA00007F10803D7E900670493002300228DF896
:102FB0005F20B9F1FF3F00F0DB8325F080020B9228
:102FC00056EA070240F0D983B9F1000F00F0AA8059
:102FD000012B76D0022B00F0918000260027D2E34F
:102FE0003A1D15F01001049202D03E680027DDE77B
:102FF00015F04003F9D03E880027D6E73B1D049327
:10300000302378228DF86030144B3E6811930027EE
:1030100045F002058DF8612002230292C6E73B1DB0
:103020000026B9F1FF3F0493D7F800808DF85F6068
:103030000AD04A4631464046FDF7D2F8002800F053
:103040008D80A0EB0809CBE54046FDF7C1F881462D
:10305000C6E500BFA4560008B45600089156000803
:1030600045F01005A90609D5073727F0070707F12E
:103070000803D7E900670493012397E73B1D15F088
:10308000100F049301D03E6802E06A06FBD53E882B
:103090000027F1E70BB18DF85F20A34BC2E43B1D85
:1030A00015F0100F049301D03E6802E06E06FBD5C8
:1030B0003E880027C2E4434666E3002F08BF0A2E7D
:1030C00005D20DF1F008303608F8416D77E30DF1C7
:1030D000B008304639460A220023FDF761FD303240
:1030E00008F8012D0023304639460A22FDF758FD25
:1030F00006460F4656EA0703EBD160E30026002799
:103100000DF1B00806F00F03119AD35C08F8013DE9
:10311000330943EA07733A091E46174656EA07037E
:10312000F0D14CE33BB9EA0705D50DF1F0083023A7
:1031300008F8413D43E30DF1B00840E30BB18DF8D1
:103140005F20029B002B00F0F7829DF808308DF87D
:10315000883000268DF85F600497E8E406463FE576
:1031600010236360219B10332193209B0133072B95
:10317000209304DC08340C9B103B0C9315E61FAA2B
:103180005146584601F0A2FE002840F0B6822CAC11
:10319000F1E71FAA5146584601F098FE002840F07A
:1031A000AC822CAC14E61FAA5146584601F08EFEA4
:1031B000002840F0A2822CAC1CE61FAA51465846BB
:1031C00001F084FE002840F098822CAC22E6102208
:1031D0006260219A10322192209A0132072A2092AD
:1031E00002DC0834103B1DE61FAA514658460C93DA
:1031F00001F06CFE002840F080822CAC0C9BF1E7C3
:103200001FAA5146584601F061FE002840F0758221
:103210002CAC17E610236360219B10332193209B75
:103220000133072B209302DC0834103E0EE61FAA60
:103230005146584601F04AFE002840F05E822CAC10
:10324000F3E71FAA5146584601F040FE002840F01F
:1032500054822CAC0AE6029B652B40F3A981002224
:103260000023DDE90601FDF72BFC002862D02F4B7F
:10327000236001236360219B01332193209B013351
:10328000072B209325DC0834199B039A934202DB19
:10329000EE077FF502AE0D9B2360089B6360089AE2
:1032A000219B13442193209B0133072B20931ADC8D
:1032B0000834039B5E1E002E7FF7EFAD1C4F4FF0CE
:1032C0001008102E276018DC6660219B1E44219692
:1032D000D4E51FAA5146584601F0F8FD002840F0F9
:1032E0000C822CACD0E71FAA5146584601F0EEFDE7
:1032F000002840F002822CACDBE7219BC4F804805C
:1033000010332193209B0133072B209302DC0834D8
:10331000103ED6E71FAA5146584601F0D7FD0028B7
:1033200040F0EB812CACF3E791560008A256000860
:10333000B4560008199B002B7ADC9B4B23600123B9
:103340006360219B01332193209B0133072B209342
:1033500044DC0834199B23B9039B13B9E8077FF5B4
:103360009CAD0D9B2360089B6360089A219B1344CE
:103370002193209B0133072B209339DC04F10803B0
:10338000199E002E19DA894F76421024102E1F60E4
:1033900038DC219A5E601644209A21960132072A71
:1033A00003F10803209208DD1FAA5146584601F098
:1033B0008DFD002840F0A1812CAB039A5A6003993F
:1033C000219AC3F800800A442192209A0132072AE8
:1033D00020923FF759AD03F108045EE51FAA51465C
:1033E000584601F073FD002840F087812CACB1E70E
:1033F0001FAA5146584601F069FD002840F07D8122
:103400002CABBDE7219A5C6010322192209A0132E8
:10341000072A209202DC0833103EB7E71FAA514664
:10342000584601F053FD002840F067812CABF3E7CC
:10343000039BBB42A8BF3B46002B1E460BDD6360CF
:10344000219BC4F8008033442193209B0133072B38
:1034500020935FDC0834002EACBFBE1B3E46002E1E
:103460000FDDDFF84891C4F80090102E5CDC219B42
:1034700066601E44209B21960133072B20936ADC53
:103480000834199B039A934201DBE9070DD50D9B84
:103490002360089B6360089A219B13442193209B1F
:1034A0000133072B209360DC0834039B039ADE1B57
:1034B000199BD31A9E42A8BF1E46002E0BDD219BEE
:1034C000666033442193209B01334744072B2760D8
:1034D000209354DC0834199B039A002EA2EB0303BB
:1034E000ACBF9E1B1E46002E7FF7D7AC2F4F4FF070
:1034F0001008102E27607FF7E7AE219BC4F80480E8
:1035000010332193209B0133072B209341DC083497
:10351000103EEEE71FAA5146584601F0D7FC00289E
:1035200040F0EB802CAC96E710236360219B1033B6
:103530002193209B0133072B209302DC0834103E9B
:1035400091E71FAA5146584601F0C0FC002840F000
:10355000D4802CACF3E71FAA5146584601F0B6FCC4
:10356000002840F0CA802CAC8BE71FAA5146584671
:1035700001F0ACFC002840F0C0802CAC95E71FAAFD
:103580005146584601F0A2FC002840F0B6802CAC11
:10359000A1E71FAA5146584601F098FC002840F0C8
:1035A000AC802CACB4E700BFA2560008B4560008AB
:1035B000039B012B01DCEA0776D501236360219B85
:1035C000C4F8008001332193209B0133072B209303
:1035D00036DC08340D9B2360089B6360089A219BAE
:1035E00013442193209B0133072B209331DC0834B3
:1035F00000230022DDE90601FDF762FA039B5E1E4F
:1036000000282FD108F1010384E84800219B039A88
:10361000013B13442193209B0133072B20934ADD68
:103620001FAA5146584601F051FC002865D12CAC28
:103630001BAB2360109B6360109A219B13441CE416
:103640001FAA5146584601F041FC002855D12CAC28
:10365000C0E71FAA5146584601F038FC00284CD15B
:103660002CACC5E7002EE3DD594F4FF01008102EAB
:10367000276004DC219B66601E442196CBE7219BDA
:10368000C4F8048010332193209B0133072B20932F
:1036900002DC0834103EEAE71FAA5146584601F002
:1036A00015FC50BB2CACF5E701236360219BC4F8EB
:1036B00000800133AEE70834BAE70834FFF7EDBB0A
:1036C0000A9B0B9A9D1A002D7FF7EAAB1026414BFF
:1036D0002360102D1BDC219B65601D44209B2195E0
:1036E0000133072B20937FF7DBAB1FAA51465846C7
:1036F00001F0ECFB00283FF4D3ABBAF80C3013F028
:10370000400F099B18BF4FF0FF33FFF7B9B8219B5B
:10371000666010332193209B0133072B209302DC3A
:103720000834103DD3E71FAA5146584601F0CEFB9E
:103730000028E2D12CACF4E7219B002BDDD01FAA9E
:103740005146584601F0C2FBD7E7DDE90623104693
:103750001946FDF7E7F900283FF444AA1E4B1F4A1B
:10376000FFF734BA1D9BA3EB08030393FFF7B5BA29
:1037700056EA07020B953FF42BAC012B3FF49DACAE
:10378000022B3FF4BDAC2CABF10841EA4771F808BD
:1037900006F0070207460E46303256EA070103F1EB
:1037A000FF3803F8012C7FF486AC0B99C90706D5C6
:1037B000302A04D0302208F8012CA3F102084E462A
:1037C0000DF1B009A9EB08090B9D0027FFF7D1BA4D
:1037D000B4560008A4560008785600087C56000825
:1037E0002DE9F74F03690C699C42804600F3828003
:1037F000013C01F114074FEA840E00F1140657F85A
:10380000245056F8240006EB0E03013507EB0E0991
:103810000193B0FBF5F595B34FF0000A3846B44676
:10382000D34650F8042B93B205FB03A34FEA134A87
:103830009BB2ABEB0303120CBCF800B005FB02A279
:1038400013FA8BF34FEA124A1FFA82FBDCF80020CE
:10385000CBEB124202EB23429BB243EA0243814587
:103860004FEA224B4CF8043BDBD256F80E3033B90A
:10387000019B043B9E421A4630D3C8F81040404694
:1038800001F04DFA002825DB013530464FF0000EDF
:1038900057F8042BD0F800C093B2AEEB0303120C20
:1038A00013FA8CF3C2EB1C4202EB23429BB243EAB5
:1038B0000243B9454FEA224E40F8043BE8D256F89D
:1038C000242006EB84032AB9043B9E421A460BD3FC
:1038D000C8F81040284603B0BDE8F08F1268043BDA
:1038E000002ACAD1013CC5E71268043B002AEFD187
:1038F000013CEAE70020EEE72DE9F04F57EC106BB2
:1039000097B0CDE90067466A079104460A920F9383
:10391000209D3EB9102000F0CBFD606246608660BD
:103920000660C660636A196851B15A684A6001232B
:1039300093408B60204601F01DF8636A00221A60F4
:10394000019B002BBFBF01232B60019B23F0004391
:10395000B2BF019300232B60DDF80480A84B33EA4B
:1039600008031BD10F9A42F20F731360009B23B917
:10397000C8F31300002800F07885219B53B9A14BB0
:1039800021E0A14B02930833219A1360029817B0EB
:10399000BDE8F08F9B4B02930333F5E7DDE9006749
:1039A0000022002330463946FDF78AF8814660B18F
:1039B0000F9A01231360219B002B00F05385934B3A
:1039C000219A1360013B0293E0E714AA15A947EC82
:1039D000106B204601F01BFAC8F30A558246002DF1
:1039E0007ED0C7F3130343F07F51304641F44011BA
:1039F000A5F2FF35CDF848900022854BFCF744FC3A
:103A000079A3D3E90023FCF7F3FD79A3D3E90023DD
:103A1000FCF73CFC064628460F46FCF783FD76A3E0
:103A2000D3E90023FCF7E4FD02460B463046394655
:103A3000FCF72CFC06460F46FDF78AF80022834669
:103A4000002330463946FDF745F858B15846FCF793
:103A500069FD02460B4630463946FDF731F808B994
:103A60000BF1FF3BBBF1160F59D86A4901EBCB01B3
:103A7000DDE90023D1E90001FDF74AF8002850D024
:103A80000BF1FF3B00230E93149B5D1B6B1E0693F3
:103A900045BFC5F101030593002300234CBF0693E6
:103AA0000593BBF1000F3EDB069BCDF82CB05B44C9
:103AB000069300230893079B092B00F2AF80052B88
:103AC000C4BF043B0793079BA3F10203CCBF0026AE
:103AD0000126032B00F2AE80DFE803F082842F770B
:103AE000159B149D1D4405F23243202B11DD009AD5
:103AF00005F21240C3F1400322FA00F008FA03F382
:103B00001843FCF7FFFC0123A1F1F871013D12936A
:103B100072E7C3F12000009B03FA00F0F1E70123F4
:103B2000B1E70E90B0E7059BA3EB0B030593CBF138
:103B30000003089300230B93BDE7012309930A9B1D
:103B4000002B7ADD04930393656A00226A600421E6
:103B500001F114029A4275D96968204600F0D6FE38
:103B6000636A28601B680293039B0E2B00F2E580BA
:103B7000002E00F0E2809DED007BBBF1000F8DED8B
:103B80000C7B74DD234A0BF00F034FEA2B1602EB7C
:103B9000C303F006D3E9008959D51F4B51EC170B2D
:103BA000D3E90823FCF74EFECDE9000106F00F062D
:103BB0000325194F002E4CD142464B46DDE900014A
:103BC000FCF740FECDE900016AE0012309930A9B5E
:103BD0005B4404930133012B0393B8BF0123B3E784
:103BE0000023ABE70023F1E761436F63A787D23F70
:103BF000B3C8608B288AC63FFB799F501344D33FDC
:103C00000000F07FCD560008C4560008A3560008F7
:103C10000000F83F00570008D8560008012600238E
:103C2000079309964FF0FF33049303930022122366
:103C30000A9289E701230993F4E70123049303938C
:103C40001A46F5E76A6801326A60490080E7022592
:103C5000AFE7F10708D540464946D7E90023FCF70E
:103C6000C7FC01358046894676100837A2E700F088
:103C70009D80CBF100069F4B9F4F06F00F0203EB98
:103C8000C203D3E90023DDE90C01FCF7B1FCCDE967
:103C90000001361100230225002E7CD1002B91D18A
:103CA0000E9B002B00F08480DDE900890022934BFD
:103CB00040464946FCF70EFF002879D0039B002BB5
:103CC00076D0049B002B34DD00228D4B40464946C4
:103CD000FCF78EFCCDE90001049E0BF1FF370135A6
:103CE0002846FCF71FFCDDE90023FCF781FC0022DD
:103CF000844BFCF7CBFA8046A1F15079002E5AD1C3
:103D00000022814BDDE90001FCF7BEFA42464B463A
:103D1000CDE90001FCF7FCFE002840F09B82424602
:103D200009F10043DDE90001FCF7D4FE002840F072
:103D30008F82DDE90C23CDE90023159B002BC0F217
:103D40005081BBF10E0F00F34C816A4B03EBCB03A8
:103D5000D3E900890A9B002B80F2DA80039B002BB9
:103D600000F3D68040F073820022674B40464946FC
:103D7000FCF73EFCDDE90023FCF7C0FE039E37465E
:103D8000002840F04A82029B029A5D1C3123137086
:103D90000BF1010B45E2F20705D5D7E90023FCF74B
:103DA00027FC013501237610083775E7022577E7F0
:103DB0005F46039E94E7029A4E4B32441392099A4F
:103DC000711E002A48D003EBC103D3E90023002071
:103DD0004E49FCF737FD42464B46FCF755FA029D2B
:103DE00080468946DDE90001FCF7B2FE0646FCF795
:103DF00099FB02460B46DDE90001FCF745FA303637
:103E000005F8016B42464B46CDE90001FCF762FE26
:103E1000002865D1DDE9002300203849FCF734FA99
:103E200042464B46FCF756FE002840F0BA80139BF2
:103E30009D423FF47EAF0022314B40464946FCF79D
:103E4000D7FB0022804689462D4BDDE90001FCF7B7
:103E5000CFFBCDE90001C5E703EBC10142464B466C
:103E6000D1E90001FCF7C4FBCDE91001029DDDE9B9
:103E70000001FCF76DFE0646FCF754FB30360246A7
:103E80000B46DDE90001FCF7FFF905F8016B139B18
:103E9000AB42804689464FF0000225D11B4BDDE93D
:103EA0001001FCF7F3F902460B4640464946FCF781
:103EB0002FFE002875D1DDE9102300201349FCF7FF
:103EC000E3F902460B4640464946FCF703FE00284C
:103ED0003FF42FAF15F8013C302B05F1FF3201D034
:103EE000BB464DE01546F5E7054BFCF781FBCDE9F8
:103EF0000001BCE700570008D85600080000F03F5A
:103F00000000244000001C40000014400000E03F7E
:103F1000DDE90067029D42464B4630463946FCF7D4
:103F200091FCFCF715FE0090FCF7FCFA42464B466C
:103F3000FCF75EFB02460B4630463946FCF7A4F917
:103F4000009E039F303605F8016B029EAE1BB74200
:103F500002460B4638D1FCF799F906460F46024651
:103F60000B4640464946FCF7B5FDC8B932463B46CC
:103F700040464946FCF7A4FD10B1009BDB070FD477
:103F80005146204600F0F6FC00230F9A2B700BF1EF
:103F900001031360219B002B3FF4F8AC1D60F5E496
:103FA0005F4615F8012C392A05F1FF3306D1029A34
:103FB0009A4207D130231370013713461A78013221
:103FC0001A708DE71D46ECE70022A44BFCF710FBAE
:103FD0000022002306460F46FCF772FD00289AD007
:103FE000CEE7099A002A00F0CD80079A012A00F353
:103FF000AF80129A002A00F0A78003F23343089E94
:10400000059D059A1A440592069A01211A442046F4
:10401000069200F04FFD0746002D0CDD069B002B9D
:1040200009DDAB42059AA8BF2B46D21A0592069A23
:10403000ED1AD31A0693089BF3B1099B002B00F0ED
:10404000A580002E10DD39463246204600F0C8FD1E
:10405000524601460746204600F035FD514680464F
:10406000204600F087FCC246089B9A1B04D05146AC
:10407000204600F0B5FD82460121204600F01AFDE1
:104080000B9B002B064640F383801A4601462046D0
:1040900000F0A6FD079B012B06467CDD4FF00008D3
:1040A000336906EB8303186900F0B6FCC0F1200009
:1040B000069B184410F01F0000F09680C0F120030A
:1040C000042B40F38780059BC0F11C00034405933B
:1040D000069B054403440693059B002B05DD5146D2
:1040E0001A46204600F0CAFD8246069B002B05DDDD
:1040F00031461A46204600F0C1FD06460E9B002BB5
:1041000074D03146504600F00AFE00286EDA0023D3
:1041100051460A22204600F044FC099B0BF1FF3B6C
:104120008246002B00F0A881002339460A2220464F
:1041300000F037FC049B002B074600F3C880079B68
:10414000022B40F3C48059E0149BC3F1360356E7B9
:10415000039B5E1E089BB342BFBF089B0896F21AE2
:104160000B9BB6BF9B189E1B0B93039BB8BF0026EF
:10417000002BB9BF059B039A059D039BBCBF9D1AED
:1041800000233EE7089E059D099F45E7089A6EE7D4
:10419000079B012B19DC009BBBB9019BC3F31303E5
:1041A0009BB9019B23F000431B0D1B0583B1059BAD
:1041B00001330593069B013306934FF001080B9BD7
:1041C000002B7FF46DAF012072E74FF00008F6E797
:1041D0009846F4E780D0059A1C331A440592069A53
:1041E0001A441D44134676E70346F4E7039B002B6D
:1041F00036DC079B022B33DD039B0493049B63B9DE
:1042000031460522204600F0CCFB014606465046CA
:1042100000F085FD00283FF7B6AD0A9B029D6FEACE
:10422000030B002303933146204600F0A3FB002F2D
:104230003FF4A6AE039B2BB1BB4203D019462046E8
:1042400000F098FB3946204600F094FB98E60026E3
:104250003746E2E7BB46374695E500BF00002440FD
:10426000099B93BB039B0493029D31465046FFF785
:10427000B7FA00F1300905F8019B029B049AEB1A8A
:104280009A4200F3DC80029B012AACBF9B180133E9
:1042900098460023039351460122204600F0EEFC8D
:1042A0003146824600F03BFD002800F38D8003D1AB
:1042B00019F0010F40F08880454615F8013C302B7D
:1042C00005F1FF32AFD11546F7E7039B0493002DAC
:1042D00005DD39462A46204600F0D0FC0746B8F1F5
:1042E000000F4CD07968204600F010FB3A6902328A
:1042F0000546920007F10C010C3000F0EFFA0122A4
:104300002946204600F0BAFC009BDDF808800397A0
:1043100003F001030746059331465046FFF760FA64
:104320000399054600F13009504600F0F8FC3A4682
:1043300000903146204600F00CFDC368024603BBE6
:1043400001460690504600F0EAFC069A03461146E4
:104350002046069300F00EFB069BA3B9079A92B97C
:10436000059A82B9B9F1390F29D0009B002B01DDE4
:1043700005F1310908F1010588F8009053E7384646
:10438000C2E70123E3E7009A002A04DB25D1079A5C
:104390001ABB059A0ABB002BECDD514601222046D0
:1043A00000F06CFC3146824600F0B9FC002803DCCA
:1043B000E0D119F0010FDDD0B9F1390FD8D139238F
:1043C00088F8003008F10108454615F8013C392B02
:1043D00005F1FF323BD0013340E0002B08F101052D
:1043E00005DDB9F1390FEAD009F10109C4E7029BF3
:1043F000049A05F8019CEB1A9342A8463FF44BAF90
:10440000514600230A22204600F0CBFA039B039971
:10441000BB4282464FF000034FF00A02204604D10F
:1044200000F0BFFA0390074676E700F0BAFA0023DF
:1044300003900A223946204600F0B3FAF3E75146CA
:1044400000230A22204600F0ACFA82460DE7029BC8
:10445000934205D1029A0BF1010B31231370E2E66E
:104460001546B2E7094BFFF7AEBA219B002B7FF44C
:1044700088AA074BFFF7A7BA049B002B3FF7F4AEBF
:10448000079B022B7FF7F0AEB8E600BFA2560008EC
:10449000C4560008044B1B68186A044B002808BF68
:1044A0001846F030704700BF0400002008050020C7
:1044B000024B0146186800F003B800BF040000205A
:1044C0002DE9F74F01F10B04162C814607D934F082
:1044D000070405D50C23C9F80030002631E110246B
:1044E0008C42F7D3484600F005FAB4F5FC7F9C4DAA
:1044F00036D204F108022A44A2F1080156688E421D
:104500004FEAD40302D1D668B24210D07368F26881
:10451000B16823F00303CA60334491605A6842F0E3
:1045200001025A60484600F0EBF9083609E102330F
:104530008C4A2E69964211466DD0706820F00300B7
:10454000071B0F2F47DD331944F0010474606B61C2
:104550002B61DA609A6047F001025A603750E1E758
:10456000630A2AD0042B12D8A30938335A1C05EB4E
:10457000C202A2F108005668864206D0726822F094
:104580000302111B0F291CDD013B0133D0E7142B63
:1045900001D85B33EAE7542B02D8230B6E33E5E7EF
:1045A000B3F5AA7F02D8E30B7733DFE740F254522A
:1045B000934204D8A30C7C33D8E73F23D6E77E236D
:1045C000D4E70029F16804DBB368D9608B60B318C5
:1045D000A4E70E46D0E7002F6A612A6105DB30446C
:1045E000436843F0010343609CE7B0F5007F44D289
:1045F000C0088710012202FA07F76A6801303A43BF
:104600006A6005EBC00255F83070B760083AF26096
:1046100045F83060FE6001209A1000FA02F26868E6
:10462000824200F2A180024206D123F0030352002D
:10463000024203F10403FAD005EBC30CE0469E46A8
:10464000D8F80C60464553D10EF1010E1EF0030F51
:1046500008F10808F4D1980779D16B6823EA0203BE
:104660006B606868520082427ED8002A7CD0734614
:104670000242E1D104335200FAE7420A042A15D873
:1046800082093832571C05EBC20E55F83770BE450B
:1046900026D10120921000FA02F268681043686087
:1046A000C6F80CE0B760CEF80860B3E7142A01D86A
:1046B0005B32E7E7542A02D8020B6E32E2E7B2F52A
:1046C000AA7F02D8C20B7732DCE740F25457BA42D5
:1046D0009ABF820C7C327E22D4E7BF68BE4504D0EC
:1046E0007A6822F003029042F7D3D7F80CE0D7E7BC
:1046F0007068F76820F00300A0EB040ABAF10F0F0E
:1047000010DDB268331944F001047460D760BA60F8
:104710004AF001026B612B61D96099605A6046F8DA
:1047200000A0FFE6BAF1000F0FDB3044436843F00E
:104730000103436056F8083F4846DF60BB6000F065
:10474000DFF8304603B0BDE8F08F3E467AE75CF80C
:104750000809844503F1FF333FF47DAF81E700BFD3
:10476000F800002000010020D5F808B0DBF8046054
:1047700026F00306B44203D8331B0F2B00F39680B8
:104780004F4A17684F4A1168103701310BEB060387
:10479000274405D04C4901390F44013149420F40AB
:1047A000394648460192009300F080FBB0F1FF3F8C
:1047B000804656D0009B019A834201D9AB4550D127
:1047C00042480168434507EB010EC0F800E040494C
:1047D000824613D10B4211D1AB683E4446F001062C
:1047E0005E603C4ADAF8003011688B4288BF136083
:1047F000394A11688B4288BF136032E0106801307B
:104800001BBFA8EB03037344C2F80080CAF8003052
:1048100018F007001CBFC0F1080080442A4B474431
:1048200018440F40C71B3946484600F03FFB431C65
:1048300008BF4046DAF80030C5F8088008BF0027F6
:10484000A0EB08003B44074447F00107AB45CAF81A
:104850000030C8F80470C4D00F2E10D80123C8F857
:104860000430AB685A6822F003029442A2EB0403BE
:1048700001D80F2B1ADC484600F042F82DE6DBF891
:1048800004300C3E26F0070603F001033343CBF857
:1048900004300BEB060305220F2E5A609A60A0D954
:1048A0000BF10801484600F00FFC9AE7AE6844F0AF
:1048B0000102344443F001037260AC60636031E68E
:1048C000C0060020000500208000000090060020A7
:1048D0007F000000B8060020BC06002010B5431E73
:1048E0000A44914200D110BD11F8014B03F8014F69
:1048F000F7E70000014800F0A3BC00BFC00700209C
:10490000014800F09EBC00BFC007002070B5456A9A
:1049100004460E463DB91020FFF7CAFD60624560AF
:1049200085600560C560656AEB6883B1636ADB68B2
:1049300053F82600B8B9012101FA06F56A1D920064
:10494000204600F03DFB60B1466085600EE021220C
:104950000421204600F034FB636AE860DB68002B2A
:10496000E4D1002070BD026843F8262000230361D3
:10497000C36070BD70B5446A06460D463CB9102050
:10498000FFF796FD7062446084600460C4603DB1CE
:10499000736A6A68DB6853F82210296043F8225072
:1049A00070BD2DE9F0410D691F4606460C4601F128
:1049B000140E0023DEF8000081B202FB01710F0C1F
:1049C000000C02FB007089B2013301EB00419D42F3
:1049D0004FEA10474EF8041BECDCD7B1A3689D42A8
:1049E00012DB616830460131FFF790FF2269023225
:1049F00004F10C01804692000C30FFF76FFF214656
:104A00003046FFF7B7FF444604EB850301355F618D
:104A100025612046BDE8F081020C12040346B2B9BC
:104A20000304102013F07F4F04BF1B02083013F063
:104A3000704F04BF1B01043013F0404F04BF9B00B4
:104A40000230002B06DB5B0003D5013070470020ED
:104A5000E8E720207047036813F0070201460BD0F7
:104A6000DA0723D4980749BF5B089B0801200B6035
:104A70005CBF0B600220704798B2A8B91B0C1020D5
:104A800013F0FF0F04BF1B0A08301A0704BF1B09ED
:104A900004309A0704BF9B080230DA0702D45B088F
:104AA00006D001300B6070471046E9E700207047E0
:104AB0002020704710B50C460121FFF727FF012287
:104AC0004461026110BD2DE9F74F14460A6923695C
:104AD0009A42B8BF0B468946BCBFA1461C46D9F8CE
:104AE0001070D4F810A0D9F80830D9F8041007EBEA
:104AF0000A069E42C8BF0131FFF708FF00F1140506
:104B000005EB86082B460022434516D304F1140218
:104B100009F1140102EB8A0301EB87070193019C61
:104B2000944213460CD8002E03DD58F8043D002BA8
:104B300054D0066103B0BDE8F08F43F8042BE3E7DF
:104B4000B3F800A00432BAF1000F20D0AE46894677
:104B50004FF0000C59F8044BBEF800B0A3B20AFBAA
:104B600003B34FEA144BDEF8004063444FEA144CA1
:104B70000AFB0BC404EB13449BB243EA04434F45C6
:104B80004FEA144C4EF8043BE4D8CEF800C032F89B
:104B9000029CB9F1000F1FD02B68AE468C464FF037
:104BA000000ABCF80040BEF802B009FB04B4A244FD
:104BB0009BB243EA0A434EF8043B5CF8043BBEF860
:104BC00000401B0C09FB034303EB1A4367454FEA04
:104BD000134AE6D8CEF800300435A0E7013EA2E73C
:104BE0002DE9F843154612F0030206460F4607D09A
:104BF000013A214C002354F82220FFF7D2FE074649
:104C0000AD1035D0746A3CB91020FFF751FC7062CA
:104C1000446084600460C460D6F82480D8F80840FA
:104C20004CB940F271213046FFF744FF0023C8F829
:104C30000800044603604FF00008EB070AD5394628
:104C400022463046FFF73FFF394681463046FFF7A0
:104C500091FE4F466D100BD0206838B92246214690
:104C60003046FFF730FF2060C0F800800446E4E7DC
:104C70003846BDE8F88300BFC85700082DE9F04763
:104C80000C464FEA621A236949680AEB0309A368D4
:104C90000746164609F10105AB4231DB3846FFF7FE
:104CA00035FE0022804600F11403114652452ADBEE
:104CB00020692AEAEA7A04F1140116F01F0203EBD4
:104CC0008A0301EB800E22D0C2F1200C00200E6876
:104CD0009640304343F8040B51F8040B8E4520FAFC
:104CE0000CF0F4D8186008B109F10205013D38460E
:104CF000C8F810502146FFF73DFE4046BDE8F0875A
:104D000001315B00C8E743F822100132CEE7043BD3
:104D100051F8042B43F8042F8E45F9D8E6E70369D0
:104D20000A699B1A30B50CD19200143014318418E2
:104D3000114454F8045D51F8042D954203D005D375
:104D40000123184630BDA042F3D3FAE74FF0FF33FA
:104D5000F7E72DE9F0470D46074611462846144669
:104D6000FFF7DDFF061E08D131463846FFF7CEFDBE
:104D7000012303614661BDE8F087A4BF23462C46AA
:104D800038466168A6BF1D4600260126FFF7BEFD16
:104D90002B69C660266905F1140904F1140202EBBF
:104DA000860709EB830800F114054FF0000C52F858
:104DB00004AB59F8044B1CFA8AF1A3B2C91A230CAC
:104DC000C3EB1A4303EB214389B24FEA234CC84596
:104DD00041EA0343964645F8043BE8D8BE4505D36F
:104DE00055F8043D8BB10661BDE8F0875EF8041B01
:104DF0001CFA81F31A1402EB11429BB243EA0243FC
:104E00004FEA224C45F8043BE8E7013EE8E72DE98C
:104E1000F7430E46012159EC108B1546FFF776FD3E
:104E2000C9F30A540746C9F3130334BB0193B8F11D
:104E3000000F27D002A840F8088DFFF70CFE00995C
:104E4000F0B1019AC0F1200302FA03F30B43C24010
:104E50007B610192019BBB61002B14BF02210121E8
:104E60003961C4B1A4F2334404443460C0F1350064
:104E70002860384603B0BDE8F08343F48013D5E7DB
:104E80007961E7E701A8FFF7E6FD019B7B6101215E
:104E900039612030E5E707EB8103A0F23240306052
:104EA0001869FFF7B9FDC0EB4110E1E738B5064CD2
:104EB000002305460846236000F086FB431C02D110
:104EC000236803B12B6038BDC807002093682DE923
:104ED000F74F81460C461746002B60D04FF0000B71
:104EE000D2F800A05E4656B3A3689E4244D3A2897E
:104EF00012F4906F3ED025682169A5EB0108656921
:104F0000022305EB450595FBF3F508F10103334456
:104F10009D4238BF1D46530546D529464846FFF7F2
:104F2000CFFA98B90C23C9F80030A38943F04003A5
:104F3000A3810023BB607B604FF0FF3031E0DAF8E3
:104F400000B0DAF804600AF1080ACCE742462169A9
:104F50000190FFF7C3FCA289019B22F4906242F00A
:104F60008002A281236165614344A5EB08052360AB
:104F7000A56033469E4200D233461A465946206801
:104F8000019300F071F9A268019BD21AA260226815
:104F900013442360BB689E1BBE60002ECFD100204F
:104FA000786003B0BDE8F08F2A46484600F07EF9ED
:104FB00003460028D6D12169484600F085F8B1E7BC
:104FC00010B55143FFF77CFA044698B150F8042C11
:104FD00022F00302043A242A1BD8132A17D90021ED
:104FE0001B2A0160416007D800F1080300221A6003
:104FF0005A609A60204610BD242A8160C16011BFAA
:1050000000F11003016100F118034161EEE703466E
:10501000ECE7002100F042F9ECE700002DE9F8434D
:10502000254FDFF8A08089460646FFF763FCBB6882
:105030005D68A8F1110425F00305A4EB09042C44D4
:10504000B4FBF8F4013C08FB04F4444505DA3046AF
:10505000FFF756FC0020BDE8F88300213046FFF73B
:1050600025FFBB682B449842F1D161423046FFF7DF
:105070001DFF013010D100213046FFF717FFBA683D
:10508000831A0F2BE3DD0D490968401A0C4943F0E0
:10509000010308605360DAE7BB68094A2D1B45F03D
:1050A00001055D60136830461C1B1460FFF728FC87
:1050B0000120BDE8F88300BFF800002000050020B3
:1050C00090060020800000002DE9F041044688464B
:1050D000002900F0AB80FFF70DFC58F8042C544D6C
:1050E00022F00100A8F108031F18A9687E688F420A
:1050F00026F0030602F001021BD130443AB958F8F9
:10510000082C9B1A10449968DA68CA60916040F0D4
:1051100001025A60AB60474B1B68984204D3464B70
:1051200020461968FFF77AFF2046BDE8F041FFF7F7
:10513000E7BB7E60002A39D158F8081C5B1A084486
:10514000996805F1080E714532D0D3F80CE0C1F82A
:105150000CE0CEF80810B9194968C9070AD43044E0
:10516000B9683ABB354EB14224D16B612B61012243
:10517000D960996040F0010159601850002AD3D1DC
:10518000B0F5007F1AD2C008811001228A406968F8
:1051900001300A436A6005EBC00255F8301099608F
:1051A000083ADA6045F83030CB60BDE70022D2E73C
:1051B0000122D0E7FE68CE60B160DBE7420A042A34
:1051C00013D882093832511C05EBC20655F831104C
:1051D0008E4224D10120921000FA02F26868024344
:1051E0006A60DE609960B360DEE7142A01D85B3242
:1051F000E9E7542A02D8020B6E32E4E7B2F5AA7F3F
:1052000002D8C20B7732DEE740F254518A429ABF8D
:10521000820C7C327E22D6E789688E4204D04A68AE
:1052200022F003029042F7D3CE68DAE7BDE8F081BE
:10523000F800002004050020C00600200001002026
:105240007047704782B001B901A942B14BB11378E0
:105250000B601278101C18BF012002B07047104676
:10526000FBE76FF00100F8E7884210B501EB02039D
:1052700003D8421E99420CD110BD9842F9D2811830
:10528000D21AD34200D110BD13F8014D01F8014DDF
:10529000F7E711F8014B02F8014FEBE70244034630
:1052A000934200D1704703F8011BF9E72DE9F74F4E
:1052B00082460C4629B9114603B0BDE8F04FFFF70E
:1052C000FFB80192FFF716FB019A54F8045C02F153
:1052D0000B08B8F1160FA4F1080925F003060AD946
:1052E00038F0070809D50C23CAF8003000273846E3
:1052F00003B0BDE8F08F4FF010089045F3D3B045F0
:1053000040F34581A84BD3F808E009EB060171454D
:105310009B464B6805D023F0010008444068C7074E
:1053200047D423F00303714506EB030719D108F1B5
:10533000100087423FDB09EB0803A7EB080747F0A3
:105340000107CBF808305F6054F8043C03F0010318
:1053500043EA080344F8043C5046FFF7D1FA2746D5
:10536000C5E7B84527DCCB688A68D3609A60A7EBAD
:1053700008000F28D9F8043009EB070240F2098130
:1053800009EB080103F0010343EA080340F00100C0
:10539000C9F804304860536843F001035360083192
:1053A0005046FFF791FE5046FFF7AAFA09F10807A9
:1053B0009DE700231946E80700F1848054F8085C53
:1053C000A9EB0505686820F003003044002976D079
:1053D000714550D1034408F110018B426FDB2F4619
:1053E000EA6857F8081FCA609160321F242A3BD828
:1053F000132A36D92168A9606168E9601B2A1CD884
:1054000005F1100204F10801086810604868506056
:105410008968916005EB0802A3EB080343F00103E0
:10542000CBF8082053606B6803F0010343EA0803DC
:105430006B605046FFF764FA59E7A1682961E1689B
:105440006961242A01BF2269AA616069E86119BF04
:1054500005F1180204F1100105F1200204F1180110
:10546000D2E73A462146CFE7214638460193FFF777
:10547000FBFE019BCEE7C718B84520DCCB688A68E5
:10548000D3609A602846EB6850F8082FD3609A6082
:10549000321F242A42D8132A3ED92368AB6063689E
:1054A000EB601B2A24D805F1100004F108031A68E8
:1054B00002605A6842609B688360A94657E780454E
:1054C0000746DFDD11465046FEF7FAFF0746002883
:1054D000AFD054F8043C23F00103A0F108024B4480
:1054E0009A421FD150F8047C27F0030737443EE767
:1054F000A3682B61E3686B61242A01BF2369AB6158
:105500006269EA6119BF05F1180004F1100305F1A1
:10551000200004F11803CAE72346C8E72146FFF735
:10552000A3FECAE7321F242A2DD8132A28D92368BC
:105530000360636843601B2A0ED800F1080304F17E
:105540000802116819605168596092689A60214692
:105550005046FFF7B9FD6CE7A3688360E368C3605A
:10556000242A01BF236903616169416119BF00F108
:10557000100304F1100200F1180304F11802E0E72F
:1055800003462246DDE72146FFF76EFEDFE737469A
:10559000EDE603F001031F43C9F80470536843F0BC
:1055A00001035360FFE600BFF800002049B1FF2A65
:1055B00085BF8A2303600A704FF0FF3098BF012037
:1055C0007047084670470000044B1968024609B945
:1055D00003491960186802441A607047C406002025
:1055E000CC070020F8B500BFF8BC08BC9E46704749
:0C55F000F8B500BFF8BC08BC9E46704730
:1056000000061016000610162E2E5C5372635C61A5
:1056100064632E630043616E616C313D25332E322D
:105620006620560A0D0043616E616C323D25332EB3
:10563000326620560A0D0043616E616C333D25339E
:105640002E326620560A0D0A0000000000000000FD
:10565000000102030406070809000000000102031C
:10566000042E2E5C5372635C75736172742E63003A
:10567000494E4600696E66004E414E006E616E00F6
:105680003031323334353637383941424344454678
:10569000003031323334353637383961626364650E
:1056A00066003000202020202020202020202020E4
:1056B000202020203030303030303030303030302A
:1056C00030303030496E66696E697479004E614ED3
:1056D00000000000000000000080E03779C3414373
:1056E000176E05B5B5B89346F5F93FE9034F384D48
:1056F000321D30F94877825A3CBF737FDD4F1575F4
:10570000000000000000F03F000000000000244006
:1057100000000000000059400000000000408F40E1
:10572000000000000088C34000000000006AF8404C
:105730000000000080842E4100000000D012634170
:105740000000000084D797410000000065CDCD41E6
:10575000000000205FA00242000000E876483742C7
:10576000000000A2941A6D42000040E59C30A24265
:105770000000901EC4BCD64200003426F56B0C43DA
:105780000080E03779C3414300A0D8855734764381
:1057900000C84E676DC1AB43003D9160E458E143E2
:1057A000408CB5781DAF154450EFE2D6E41A4B4457
:1057B00092D54D06CFF08044F64AE1C7022DB5449C
:1057C000B49DD9794378EA4405000000190000002F
:1057D0007D0000004300504F534958002E00002028
:1057E0002020202020202020282828282820202091
:1057F0002020202020202020202020202020208841
:1058000010101010101010101010101010101004A4
:1058100004040404040404040410101010101010F4
:1058200041414141414101010101010101010101E8
:1058300001010101010101010101101010101010FE
:1058400042424242424202020202020202020202B8
:1058500002020202020202020202101010102000D4
:105860000000000000000000000000000000000038
:105870000000000000000000000000000000000028
:105880000000000000000000000000000000000018
:105890000000000000000000000000000000000008
:1058A00000000000000000000000000000000000F8
:1058B00000000000000000000000000000000000E8
:1058C00000000000000000000000000000000000D8
:1058D00000000000000000000000000000000000C8
:0858E000F0B2FF7F010000009F
:0458E800B5010008FE
:0458EC00910100081E
:1058F0000024F40008000020000000000000000068
:105900000000000000000000000000000000000097
:105910000000000000000000000000000000000087
:105920000000000000000000000000000000000077
:105930000000000000000000000000000000000067
:105940000000000000000000000000000000000057
:105950000000000000000000000000000000000047
:105960000000000000000000000000000000000037
:105970000000000000000000000000000000000027
:105980000000000000000000000000000000000017
:105990000000000000000000000000000000000007
:1059A00000000000000000000000000000000000F7
:1059B00000000000000000000000000000000000E7
:1059C00000000000000000000000000000000000D7
:1059D00000000000000000000000000000000000C7
:1059E00000000000000000000000000000000000B7
:1059F000F8000020F8000020000100200001002035
:105A000008010020080100201001002010010020E2
:105A10001801002018010020200100202001002092
:105A20002801002028010020300100203001002042
:105A300038010020380100204001002040010020F2
:105A400048010020480100205001002050010020A2
:105A50005801002058010020600100206001002052
:105A60006801002068010020700100207001002002
:105A700078010020780100208001002080010020B2
:105A80008801002088010020900100209001002062
:105A90009801002098010020A0010020A001002012
:105AA000A8010020A8010020B0010020B0010020C2
:105AB000B8010020B8010020C0010020C001002072
:105AC000C8010020C8010020D0010020D001002022
:105AD000D8010020D8010020E0010020E0010020D2
