:020000040800F2
:1000000000000220A10C0008350C0008370C000885
:10001000390C00083B0C00083D0C000800000000F3
:100020000000000000000000000000003F0C00087D
:10003000410C000800000000430C0008450C0008BB
:10004000F10C0008F10C0008F10C0008F10C00089C
:10005000F10C0008F10C0008F10C0008F10C00088C
:10006000F10C0008F10C0008F10C0008F10C00087C
:10007000F10C0008F10C0008F10C0008F10C00086C
:10008000F10C0008F10C0008F10C0008F10C00085C
:10009000F10C0008F10C0008F10C0008F10C00084C
:1000A000F10C0008F10C0008F10C0008F10C00083C
:1000B000F10C0008F10C0008F10C0008F10C00082C
:1000C000F10C0008F10C0008F10C0008F10C00081C
:1000D000F10C0008F10C0008F10C0008F10C00080C
:1000E000F10C0008F10C0008F10C0008F10C0008FC
:1000F000F10C0008F10C0008F10C0008F10C0008EC
:10010000F10C0008F10C0008F10C0008F10C0008DB
:10011000F10C0008F10C0008F10C0008F10C0008CB
:10012000F10C0008F10C0008F10C0008F10C0008BB
:10013000F10C0008F10C0008F10C0008F10C0008AB
:10014000F10C0008F10C0008F10C0008F10C00089B
:10015000F10C0008F10C0008F10C0008F10C00088B
:10016000F10C0008F10C0008F10C0008F10C00087B
:10017000F10C0008F10C0008F10C00080000000070
:08018000F10C0008F10C00086D
:1001880010B5054C237833B9044B13B10448AFF3C9
:1001980000800123237010BD04000020000000002F
:1001A8003C0D000808B5034B1BB103490348AFF3E6
:1001B800008008BD00000000080000203C0D000879
:1001C80010B5084B044618684FF47A73B0FBF3F087
:1001D80000F078F8002221464FF0FF3000F03EF89A
:1001E800002010BD0000002008B50B4B1A6842F42F
:1001F80000721A601A6842F480621A601A6842F43F
:1002080080721A60032000F017F80020FFF7D8FF6B
:1002180000F0DCFC002008BD003C0240024A1368E4
:1002280001331360704700BF20000020014B18689D
:10023800704700BF20000020074AD36823F4E0631A
:100248001B041B0C43F0BF63000243F4003300F4AB
:10025800E0600343D360704700ED00E0174B30B512
:10026800DC68C4F30224C4F10703251D042B28BF4E
:100278000423062D4FF0010505FA03F303F1FF33BC
:100288008CBF033C00241940A14005FA04F4013C4A
:100298002240002842EA01024FEA0212AFBF00F1F1
:1002A800604000F00F00064BD2B2A5BF00F56140D8
:1002B800D2B21A5480F8002330BD00BF00ED00E030
:1002C80014ED00E00138B0F1807F0AD2064B074AEE
:1002D8005860F02182F823100020072298601A60E5
:1002E80070470120704700BF10E000E000ED00E01B
:1002F800044B1A6804280CBF42F0040222F00402DE
:100308001A60704710E000E0704708B5FFF7FCFF7F
:1003180008BD00002DE9F04F85B00B68DFF8AC810F
:10032800684ADFF8AC91019300234FF0010E019C5D
:100338000EFA03FE0EEA0406B64540F0AE804C689D
:1003480024F01007022F16D14FEAD30A00EB8A0ACD
:1003580003F0070BDAF820504FEA8B0B4FF00F0C25
:100368000CFA0BFC25EA0C0C0D6905FA0BF545EAAD
:100378000C05CAF820504FEA430A0325D0F800B00C
:1003880005FA0AF5ED4304F0030C0BEA050B0CFA29
:100398000AFC013F4CEA0B0C012FC0F800C011D831
:1003A800876807EA050BCF6807FA0AFC4CEA0B07CF
:1003B8008760476827EA0E0EC4F300179F4047EA94
:1003C8000E074760C7683D408F6807FA0AF73D4344
:1003D800C560E50061D54FF0000BCDF80CB0D8F83A
:1003E8004470394D47F48047C8F84470D8F84470D1
:1003F80007F480470397039F23F0030707F180471B
:1004080007F59C3703F0030CD7F808A04FEA8C0CCB
:100418004FF00F0E0EFA0CFEA8422AEA0E0E43D039
:1004280005F58065A84241D005F58065A8423FD012
:1004380005F58065A8423DD005F58065A8423BD00A
:1004480048453BD005F50065A84239D005F58065DB
:10045800A84214BF0825072505FA0CF545EA0E053C
:10046800BD601568F74314F4803F0CBF3D40354329
:100478001560556814F4003F0CBF3D403543556086
:10048800956814F4801F0CBF3D4035439560D568CE
:10049800A40254BF3D403543D5600133102B7FF48F
:1004A80044AF05B0BDE8F08F5D46D5E70125D3E739
:1004B8000225D1E70325CFE70425CDE70525CBE7BE
:1004C8000625C9E7003C0140000002400038024010
:1004D800001402400369194214BF0120002070472C
:1004E8000AB1816170470904FBE700000368F7B5AA
:1004F8000446D8073BD42368990700F1868023680F
:100508001E0700F1D18023685D072AD500230193D7
:100518008E4B8F4D1A6C42F080521A641B6C03F09C
:1005280080530193019B2B6843F480732B60FFF782
:100538007DFE06462B68DA0540F1D880A368834D16
:10054800012B40F0DA802B6F43F001032B67FFF794
:100558006DFE7E4D064641F288372B6F9B0740F1B2
:10056800ED80A269002A40F0F980002015E0774B61
:100578009A6802F00C02042A07D09A6802F00C026A
:10058800082A0CD15B685A0209D5704B1B689B037B
:10059800B1D56368002BAED1012003B0F0BD63680C
:1005A8006A4DB3F5803F11D12B6843F480332B603B
:1005B800FFF73CFE654D06462B689F039BD4FFF76B
:1005C80035FE801B6428F7D90320E6E7B3F5A02F92
:1005D80004D12B6843F480232B60E5E72A6822F4D2
:1005E80080322A602A6822F480222A60002BDFD118
:1005F800FFF71CFE06462B6898037FF57CAFFFF7D4
:1006080015FE801B6428F6D9DEE7504B9A6812F075
:100618000C0F07D09A6802F00C02082A16D15B6802
:10062800590213D4494B1A68920702D5E268012A85
:10063800B2D11868F82292FAA2F2B2FA82F12269CB
:100648008A4020F0F8010A431A6058E7E268414BF3
:10065800DAB101221A60FFF7E9FD3C4D06462B6826
:100668009B070CD52968F82393FAA3F3B3FA83F20E
:100678002369934021F0F80213432B603FE7FFF70B
:10068800D5FD801B0228EAD99EE71A60FFF7CEFD48
:100698002E4D06462B689F077FF531AFFFF7C6FD45
:1006A800801B0228F6D98FE762692B4B7AB10122A9
:1006B8001A60FFF7BBFD254D06466B6F98073FF59F
:1006C80022AFFFF7B3FD801B0228F6D97CE71A603A
:1006D800FFF7ACFD1D4D06466B6F99077FF513AF0D
:1006E800FFF7A4FD801B0228F6D96DE7FFF79EFDF2
:1006F800801B02287FF61EAF66E7052B04D12B6FFF
:1007080043F004032B671EE72A6F22F001022A67D1
:100718002A6F22F004022A67002B7FF418AFFFF734
:1007280085FD41F2883706462B6F98077FF519AF8C
:10073800FFF77CFD801BB842F6D945E7FFF776FD49
:10074800801BB8427FF609AF3EE700BF0038024081
:100758000070004000004742800E47422B4DAB68B6
:1007680003F00C03082B3FF417AF294E0023022A8D
:1007780033603ED1FFF75AFD07462B68990132D402
:1007880047F6C07797FAA7F74FF44032B7FA87F7DA
:1007980092FAA2F24FF07061B2FA82F091FAA1F1E6
:1007A800226AE3691343626A02FA07F7A26A5208E7
:1007B800013A82403B431343E26A144CB1FA81F197
:1007C80002FA01F10B436B6001233360FFF72EFD42
:1007D800054623689A013FF5C8AEFFF727FD401B81
:1007E8000228F6D9F0E6FFF721FDC01B0228C4D97C
:1007F800EAE6FFF71BFD04462B689B017FF5B5AEC3
:10080800FFF714FD001B0228F6D9DDE60038024088
:1008180060004742194A936803F00C03042B10B593
:1008280003D0082B03D0164810BD164810BD5168D8
:10083800536801F03F0113F4800F47F6C074536802
:1008480094FAA4F0B0FA80F003EA040323FA00F360
:1008580014BF0C480A48B0FBF1F05843074B4FF45B
:1008680040325B6892FAA2F2B2FA82F203F44033A1
:10087800D34001335B00B0FBF3F010BD00380240F9
:100888000024F40040787D01564B1A6802F00F02EC
:100898008A422DE9F04105460E4630D32A6894076E
:1008A80037D4D0073DD44F4B1A6802F00F02964256
:1008B800C0F088802A68510700F18C80130707D59B
:1008C800494A2969936823F4604343EAC103936062
:1008D800FFF7A0FF444BF0229B6892FAA2F2B2FA0B
:1008E80082F203F0F003D340404AD35CD840404B37
:1008F80018600020FFF764FC0020BDE8F081CAB250
:100908001A701B6803F00F039942C7D00120BDE895
:10091800F0813549A8688B6823F0F00303438B60A6
:10092800BFE76A68304B012A1ED11B6813F4003FE9
:10093800ECD02D4CA36823F003031343A360FFF707
:1009480075FC6B68012B074641F2883816D1A368FD
:1009580003F00C03042BA6D0FFF768FCC01B40452E
:10096800F5D90320BDE8F081911E01291B6802D842
:1009780013F0007FDCE713F0020FD9E7022B0AD14E
:10098800A36803F00C03082B8DD0FFF74FFCC01BA6
:100998004045F5D9E5E7032B0FD1A36803F00C0315
:1009A8000C2B80D0FFF742FCC01B4045F5D9D8E797
:1009B800FFF73CFCC01B4045D3D8A36813F00C0FCD
:1009C800F6D170E7F2B21A701B6803F00F039E426B
:1009D8009CD16FE70449E8688B6823F4E05303432C
:1009E8008B606BE7003C024000380240540D000861
:1009F80000000020014B1868704700BF000000206D
:100A080010B594B00023214A0193116C41F0805134
:100A18001164126C02F080520192019A1C4A0293EE
:100A2800116841F48041116012680E9302F480420B
:100A38000292029A0222089201220B9208A810221E
:100A48000C92FFF753FD014600B1FEE70F23049017
:100A580005900690079003A80393FFF715FF044637
:100A680000B1FEE7FFF7C6FF4FF47A73B0FBF3F06F
:100A7800FFF728FC0420FFF73BFC224621464FF0F5
:100A8800FF30FFF7EBFB14B010BD00BF0038024089
:100A98000070004080B588B00024FFF7A5FBFFF781
:100AA800AFFF464B00941A6B4548464F42F0100280
:100AB8001A631A6B02F010020092009A01941A6BE2
:100AC80042F004021A631A6B02F004020192019ABE
:100AD80002941A6B42F008021A631B6B03F00803B6
:100AE8000122029307210125029BFFF7F9FC062347
:100AF80003A933480393059406940495FFF70AFC69
:100B0800042303A92F48039304940595FFF702FCD7
:100B1800382303A92C48039304940595FFF7FAFB9F
:100B2800022303A926480694039504950593FFF725
:100B3800F1FB04F1804404F50434234E20480122DB
:100B48001146FFF7CDFC012204211D48FFF7C8FC20
:100B5800012202211A48FFF7C3FC04213846FFF797
:100B6800B9FC024618B901212046FFF7B9FC20213B
:100B78003046FFF7AFFC024618B904212046FFF7BC
:100B8800AFFC10213046FFF7A5FC024618B9022138
:100B98002046FFF7A5FC08213046FFF79BFC0546D9
:100BA8000028CBD1024601212046FFF799FC2A46AE
:100BB80002212046FFF794FCBFE700BF003802403F
:100BC8000010024000080240000C024008B5032053
:100BD800FFF732FB002211466FF00B00FFF73EFBD8
:100BE800002211466FF00A00FFF738FB0022114679
:100BF8006FF00900FFF732FB002211466FF0040086
:100C0800FFF72CFB002211466FF00300FFF726FBCD
:100C1800002211466FF00100FFF720FB0022114669
:100C28004FF0FF30BDE80840FFF718BB7047FEE7FC
:100C3800FEE7FEE7FEE770477047704708B5FFF725
:100C4800EDFABDE80840FFF760BB00000F49D1F896
:100C5800883043F47003C1F888300D4B1A680020BF
:100C680042F001021A6098601A6822F0847222F435
:100C780080321A60074A5A601A6822F480221A6081
:100C8800D8604FF000638B60704700BF00ED00E054
:100C98000038024010300024DFF834D0002103E08F
:100CA8000C4B5B58435004310B480C4B42189A428A
:100CB800F6D30B4A02E0002342F8043B094B9A4260
:100CC800F9D3FFF7C3FF00F011F8FFF7E3FE704711
:100CD800000002206C0D0008000000200400002025
:100CE8000400002024000020FEE7000070B50D4E2F
:100CF8000D4CA41BA4100025A54209D10B4E0C4C89
:100D080000F018F8A41BA4100025A54205D170BD59
:100D180056F8253098470135EEE756F825309847BC
:100D28000135F2E7640D0008640D0008640D000841
:100D3800680D0008F8B500BFF8BC08BC9E467047AF
:0C0D4800F8B500BFF8BC08BC9E46704720
:100D54000000000000000000010203040607080967
:040D6400AD010008D5
:040D680089010008F5
:040D6C000024F4006B
:0400000508000CA142
:00000001FF
