:020000040800F2
:1000000000000220E51E0008131D0008151D000851
:10001000171D0008191D00081B1D00080000000026
:100020000000000000000000000000001D1D00088E
:100030001F1D000800000000211D0008231D0008EE
:10004000351F0008351F0008351F0008351F000840
:10005000351F0008351F0008351F0008351F000830
:10006000351F0008351F0008351F0008351F000820
:10007000351F0008351F0008351F0008351F000810
:10008000351F0008351F0008351F0008351F000800
:10009000351F0008351F0008351F0008351F0008F0
:1000A000351F0008351F0008351F0008351F0008E0
:1000B000351F0008351F0008351F0008351F0008D0
:1000C000351F0008351F0008351F0008351F0008C0
:1000D000351F0008351F0008351F0008351F0008B0
:1000E000351F0008351F0008351F0008351F0008A0
:1000F000351F0008351F0008351F0008351F000890
:10010000351F0008351F0008351F0008351F00087F
:10011000351F0008351F0008351F0008351F00086F
:10012000311D0008351F0008351F0008351F000865
:10013000351F0008351F0008351F0008351F00084F
:10014000351F0008351F0008351F0008351F00083F
:10015000351F0008351F0008351F0008351F00082F
:10016000351F0008351F0008351F0008351F00081F
:10017000351F0008351F0008351F0008000000006B
:08018000351F0008351F0008BF
:1001880010B5054C237833B9044B13B10448AFF3C9
:1001980000800123237010BD04000020000000002F
:1001A800801F000808B5034B1BB103490348AFF390
:1001B800008008BD0000000008000020801F000823
:1001C80053B94AB9002908BF00281CBF4FF0FF31B6
:1001D8004FF0FF3000F07AB9ADF1080C6DE904CEAC
:1001E80000F006F8DDF804E0DDE9022304B070470A
:1001F8002DE9F0478C460D460446089E002B51D148
:100208008A4217466DD9B2FA82FEBEF1000F0BD0B2
:10021800CEF1200C01FA0EF520FA0CFC02FA0EF7CA
:100228004CEA050C00FA0EF44FEA174A250CBCFB01
:10023800FAF81FFA87F90AFB18CC45EA0C4508FBBF
:1002480009F3AB420AD9ED1908F1FF3280F0238196
:10025800AB4240F22081A8F102083D44ED1AA4B255
:10026800B5FBFAF00AFB105544EA054400FB09F90E
:10027800A14509D9E41900F1FF3380F00A81A145AD
:1002880040F2078102383C44A4EB090440EA0840E4
:100298000021002E61D024FA0EF40023346073602C
:1002A800BDE8F0878B4207D9002E54D0002186E89C
:1002B80021000846BDE8F087B3FA83F1002940F031
:1002C8008E80AB4202D3824200F2FA80841A65EB38
:1002D80003050120AC46002E3FD086E81010BDE88B
:1002E800F08712B90127B7FBF2F7B7FA87FEBEF11C
:1002F800000F34D1EB1B3A0C1FFA87FC0121B3FB2A
:10030800F2F8250C02FB183345EA03450CFB08F309
:10031800AB4207D9ED1908F1FF3002D2AB4200F227
:10032800D1808046ED1AA3B2B5FBF2F002FB10555E
:1003380043EA05440CFB00FCA44507D9E41900F185
:10034800FF3302D2A44500F2B8801846A4EB0C048F
:1003580040EA08409DE731463046BDE8F087CEF1D7
:10036800200405FA0EF307FA0EF720FA04F83A0CFF
:1003780025FA04F448EA0308B4FBF2F14FEA1845F9
:1003880002FB11441FFA87FC45EA044501FB0CF304
:10039800AB4200FA0EF409D9ED1901F1FF3080F0F3
:1003A8008A80AB4240F2878002393D44EB1A1FFA3B
:1003B80088F5B3FBF2F002FB103345EA034500FB76
:1003C8000CF3AB4207D9ED1900F1FF386FD2AB42FD
:1003D8006DD902383D44EB1A40EA01418FE7C1F17B
:1003E800200722FA07F88B4005FA01F448EA0303CC
:1003F80020FA07FE4FEA134CFD404EEA040EB5FB07
:10040800FCF94FEA1E440CFB19551FFA83F844EA1D
:10041800054509FB08F4AC4202FA01F200FA01FAB8
:1004280008D9ED1809F1FF3043D2AC4241D9A9F1FE
:1004380002091D442D1B1FFA8EFEB5FBFCF00CFBB8
:1004480010554EEA054400FB08F8A04507D9E41802
:1004580000F1FF3529D2A04527D902381C4440EACB
:100468000940A4EB0804A0FB02894C45C6464D464A
:1004780015D312D056B1BAEB0E0364EB050404FA97
:1004880007F7CB401F43CC40376074600021BDE8BC
:10049800F0871846F8E69046E0E6C245EAD2B8EB9F
:1004A800020E69EB03050138E4E72846D7E7404622
:1004B80091E78146BEE7014678E702383C4445E7C4
:1004C800084608E7A8F102083D442BE7704700BF3B
:1004D80010B5084B044618684FF47A73B0FBF3F074
:1004E80000F0E2FA002221464FF0FF3000F09CFABB
:1004F800002010BD0000002008B50B4B1A6842F41C
:1005080000721A601A6842F480621A601A6842F42B
:1005180080721A60032000F075FA0020FFF7D8FFF8
:1005280001F0C3FB002008BD003C0240024A1368EA
:1005380001331360704700BF20000020014B18688A
:10054800704700BF2000002010B50446002800F0C6
:100558009980036C23B9436480F83C3001F09CFA1D
:10056800236CDB0600F18C80236C23F4885323F082
:10057800020343F002032364434B5A6822F44032D7
:100588005A605A6861680A435A60236821695A6840
:1005980022F480725A605A6842EA01225A605A6804
:1005A800A16822F040725A605A680A435A609A68F1
:1005B800E16822F400629A609A680A439A603349B3
:1005C800A26A8A4250D0996821F07061996099684E
:1005D8000A439A609A68E16A22F040529A609A68DF
:1005E8000A439A609A68A16922F002029A609A689E
:1005F80042EA41029A60226A002A3DD05A68616A3A
:1006080042F400625A605A6822F460425A605A689A
:10061800013942EA41325A60DA6AE16922F4700229
:10062800DA62DA6A013942EA0152DA629A68216BBF
:1006380022F400729A609A6842EA41229A609A68A3
:10064800616922F480629A609A68002042EA8122F5
:100658009A606064236C23F0030343F0010323646E
:10066800002384F83C3010BD9A6822F070629A60CA
:100678009A6822F04052B4E75A6822F40062CAE746
:100688000120EDE7012010BD002301400100000F0B
:1006980082B00023019390F83C30012B4ED0012307
:1006A80080F83C3003689A68D10705D59A68D20764
:1006B80014D4002002B070479A68214942F0010220
:1006C8009A60204A1268B2FBF1F202EB42020192F0
:1006D800019A002AEAD0019A013AF8E7026C22F45A
:1006E800E06222F0010242F4807202645A68510505
:1006F80041BF026C22F4405242F480520264026C00
:1007080012F480521CBF426C22F00602426400229E
:1007180080F83C206FF022021A600B4A5268D20619
:1007280008D1986810F04050C3D19A6842F08042CE
:100738009A60BFE7054A9342BBD1F2E70220B9E7C6
:1007480040420F000000002000230140002001402B
:1007580037B513460022019290F83C20012A04463E
:1007680065D00568012280F83C20AA68D20705D523
:10077800AA68D00715D4002003B030BDAA6842F09B
:100788000102AA602B4A10682B4AB0FBF2F000EB7A
:1007980040000190019A002AEAD0019A013A019298
:1007A800F8E7206C20F4E06020F0010040F480704D
:1007B80020646A68520541BF206C20F4405040F420
:1007C80080502064226CA06B12F480521CBF626CB3
:1007D80022F006026264002284F83C20174AC263B1
:1007E800174A0264174AC2646FF022022A606A68D4
:1007F80042F080626A60AA6842F48072AA600A467F
:1008080005F14C0100F00CFA0F4B5B6813F01F0F59
:10081800236808D1986810F04050ACD19A6842F02B
:1008280080429A60A8E7094A9342A4D1F2E70220DD
:10083800A2E700BF0000002040420F005B0800084C
:10084800BD080008C9080008002301400020014035
:100858007047836B1A6C12F0500F10B524D11A6CC4
:1008680042F400721A641A68916811F0405F17D157
:100878009969A9B9D16A11F4700F02D09168490534
:100888000ED4516821F0200151601A6C22F4807254
:100898001A641A6CD2045EBF1A6C42F001021A6420
:1008A8001846FFF7D5FF10BD9B6BBDE81040DB6C09
:1008B8001847704708B5806BFFF7FBFF08BD704706
:1008C800806B08B540230364436C43F0040343641E
:1008D800FFF7F5FF08BD0000F7B50023019390F876
:1008E8003C30012B00F083800D6804688A6801237E
:1008F800092D80F83C30AEB22AD906EB4603E768EA
:100908001E3B4FF0070E0EFA03FE27EA0E07E760BC
:10091800E76802FA03F33B43E3604A68062A4FEAB2
:10092800820325D81344676B591F1F238B4027EA7E
:1009380003036363626B06FA01F1114361632D4B94
:100948009C4234D0002380F83C30184603B0F0BDF8
:10095800276905EB45034FF0070E0EFA03FE27EA59
:100968000E072761276902FA03F33B432361D4E7A3
:100978000C2A0ED81344216BA3F123021F239340A2
:1009880021EA03032363236B06FA02F21A43226364
:10099800D5E71344E16A413B1F229A4021EA02024B
:1009A800E262E26A06FA03F11143E162C7E7122D37
:1009B80004D1114A536843F480035360A5F110032E
:1009C800012BBFD80C4A5368102D43F40003536021
:1009D800B8D10A4B0A4A1B68B3FBF2F20A23534305
:1009E8000193019B002BADD0019B013BF8E702204E
:1009F800ACE700BF002001400023014000000020B8
:100A080040420F00074AD36823F4E0631B041B0C21
:100A180043F0BF63000243F4003300F4E060034393
:100A2800D360704700ED00E0174B30B5DC68C4F3C5
:100A38000224C4F10703251D042B28BF0423062D17
:100A48004FF0010505FA03F303F1FF338CBF033CB4
:100A580000241940A14005FA04F4013C2240002872
:100A680042EA01024FEA0212AFBF00F1604000F013
:100A78000F00064BD2B2A5BF00F56140D2B21A549E
:100A880080F8002330BD00BF00ED00E014ED00E069
:100A98004209012300F01F0003FA00F0014B43F85C
:100AA8002200704700E100E00138B0F1807F0AD2EF
:100AB800064B074A5860F02182F8231000200722CD
:100AC80098601A6070470120704700BF10E000E08E
:100AD80000ED00E0044B1A6804280CBF42F0040241
:100AE80022F004021A60704710E000E0704708B571
:100AF800FFF7FCFF08BD00000368DAB223F47F7338
:100B080023F003031821103AB2FBF1F20449032A37
:100B180088BF0433895C8365C165806D704700BFF9
:100B2800981F000870B50446FFF708FD0546002C1D
:100B380071D0002384F834302268022384F83530D9
:100B4800136823F00103136021680B68D8073CD4AD
:100B58000B68324D6268A0691D40A3681343E268C0
:100B680013432269134362691343E269034313433E
:100B7800226A1343626A042A43EA050301BF266B0B
:100B8800E56A35432B430B604B69042A23F00703BE
:100B980043EA02030BD1A26AE56A13433DB1F8B9EF
:100BA800012A2DD001D3022A01D1EA012BD44B61AD
:100BB8002046FFF7A1FFE26D3F23934083600020AA
:100BC8000123606584F8353070BDFFF7B7FC401B22
:100BD8000528B9D920236365032084F8350070BD42
:100BE800B0F5005F13D1032AE1D801A050F822F034
:100BF8000F0C0008B30B00080F0C0008090C0008C4
:100C0800B5F1C07FD3D1402363650120E5E7022A0F
:100C1800F9D9032AC8E7012070BD00BF3F8010F052
:100C280070B590F83440012C36D0012480F8344057
:100C380090F83540866D012C4FF000054FF0020406
:100C480028D180F8354004684565256825F4802555
:100C5800256063608368402B0EBFA260A160E260DC
:100C6800C26D08BFE1603F239340B360236843F03F
:100C780016032360636943F080036361036C1BB14F
:100C8800236843F008032360236843F001032360CB
:100C9800002070BD80F83450022070BDF7B50023E5
:100CA80001935A4B856D1F68C36D2E6808229A40C0
:100CB800164204460CD001680868400708D5086841
:100CC80020F004000860AA60626D42F001026265CB
:100CD80001229A40164208D021684969090641BF95
:100CE800AA60626D42F00202626504229A401642CE
:100CF80008D021680968880741BFAA60626D42F080
:100D08000402626510229A40164210D023681968BE
:100D180009070CD5AA601A68500335D51B68190352
:100D280001D4236C00E0A36C0BB120469847E16D19
:100D380020228A40164238D023681868C60634D55F
:100D4800AA6094F83520052A1A6825D122F01602DF
:100D58001A605A6922F080025A61226C0AB9A26CA0
:100D68001AB11A6822F008021A603F238B40AB6060
:100D7800002384F83430012384F83530236D0BB117
:100D88002046984703B0F0BD1A68D2055EBF1A68BE
:100D980022F008021A60C4E7500328D51B6819031B
:100DA80032D4636C0BB120469847636D002BE9D0B1
:100DB800636DDA0719D50523226884F8353013687E
:100DC80023F0010313604FF41653B7FBF3F7019BAD
:100DD80001339F42019302D31368DB07F7D4002342
:100DE80084F83430012384F83530E36CC7E71A6897
:100DF80012F4807208D1196821F0100119600123DA
:100E080084F8342084F83530E36BCBE70000002009
:100E18002DE9F04F85B00B68DFF8AC81684ADFF840
:100E2800AC91019300234FF0010E019C0EFA03FED2
:100E38000EEA0406B64540F0AE804C6824F0100770
:100E4800022F16D14FEAD30A00EB8A0A03F0070BE8
:100E5800DAF820504FEA8B0B4FF00F0C0CFA0BFC12
:100E680025EA0C0C0D6905FA0BF545EA0C05CAF8DC
:100E780020504FEA430A0325D0F800B005FA0AF5D6
:100E8800ED4304F0030C0BEA050B0CFA0AFC013FD6
:100E98004CEA0B0C012FC0F800C011D8876807EA8C
:100EA800050BCF6807FA0AFC4CEA0B07876047680E
:100EB80027EA0E0EC4F300179F4047EA0E07476063
:100EC800C7683D408F6807FA0AF73D43C560E500EB
:100ED80061D54FF0000BCDF80CB0D8F84470394DFF
:100EE80047F48047C8F84470D8F8447007F480473E
:100EF8000397039F23F0030707F1804707F59C3703
:100F080003F0030CD7F808A04FEA8C0C4FF00F0E33
:100F18000EFA0CFEA8422AEA0E0E43D005F58065AB
:100F2800A84241D005F58065A8423FD005F5806507
:100F3800A8423DD005F58065A8423BD048453BD046
:100F480005F50065A84239D005F58065A84214BFAB
:100F58000825072505FA0CF545EA0E05BD60156854
:100F6800F74314F4803F0CBF3D4035431560556886
:100F780014F4003F0CBF3D4035435560956814F4A8
:100F8800801F0CBF3D4035439560D568A40254BF0F
:100F98003D403543D5600133102B7FF444AF05B095
:100FA800BDE8F08F5D46D5E70125D3E70225D1E7F7
:100FB8000325CFE70425CDE70525CBE70625C9E7B7
:100FC800003C01400000024000380240001402408A
:100FD800F7B5044610B9012003B0F0BD0368D8077F
:100FE8003BD42368990700F1848023681E0700F129
:100FF800C68023685D072AD500230193AA4BAB4D11
:101008001A6C42F080521A641B6C03F080530193EF
:10101800019B2B6843F480732B60FFF78FFA064619
:101028002B68DA0540F1CD80A3689F4D012B40F075
:10103800CF802B6F43F001032B67FFF77FFA9A4DA0
:10104800064641F288372B6F9B0740F1E280A26980
:10105800002A40F0E5800020BEE7934B9A6802F032
:101068000C02042A07D09A6802F00C02082A0AD156
:101078005B685A0207D58C4B1B689B03B1D5636824
:10108800002BAED1A7E76368874DB3F5803F11D138
:101098002B6843F480332B60FFF750FA824D0646E5
:1010A8002B689F039DD4FFF749FA801B6428F7D962
:1010B800032091E7B3F5A02F04D12B6843F48023D4
:1010C8002B60E5E72A6822F480322A602A6822F435
:1010D80080222A60002BDFD1FFF730FA06462B6802
:1010E80098037FF57EAFFFF729FA801B6428F6D9AD
:1010F800DEE76D4B9A6812F00C0F07D09A6802F081
:101108000C02082A12D15B6859020FD4664B1A6880
:10111800920703D5E268012A7FF45DAF1A68216956
:1011280022F0F80242EAC1021A605EE7E268604B08
:10113800B2B101221A60FFF701FA5B4D06462B682F
:101148009B0707D52B68226923F0F80343EAC203FB
:101158002B604AE7FFF7F2F9801B0228EFD9A7E7CF
:101168001A60FFF7EBF9504D06462B689F077FF58D
:101178003CAFFFF7E3F9801B0228F6D998E76269CC
:101188004C4B7AB101221A60FFF7D8F9464D064652
:101198006B6F98073FF52DAFFFF7D0F9801B02283A
:1011A800F6D985E71A60FFF7C9F93F4D06466B6F18
:1011B80099077FF51EAFFFF7C1F9801B0228F6D902
:1011C80076E7FFF7BBF9801B02287FF629AF6FE7A8
:1011D800052B04D12B6F43F004032B6729E72A6FF3
:1011E80022F001022A672A6F22F004022A67002BE4
:1011F8007FF423AFFFF7A2F941F2883706462B6F39
:1012080098077FF524AFFFF799F9801BB842F6D904
:101218004EE7FFF793F9801BB8427FF614AF47E714
:10122800214DAB6803F00C03082B3FF4D4AE224EDB
:101238000023022A33602AD1FFF780F907462B687A
:1012480099011ED4226AE3691343626A43EA82134E
:10125800E26A43EA0263A26A134C5208013A43EA7B
:1012680002436B6001233360FFF768F90546236882
:101278009A013FF5F0AEFFF761F9401B0228F6D955
:1012880016E7FFF75BF9C01B0228D8D910E7FFF76C
:1012980055F904462B689B017FF5DDAEFFF74EF943
:1012A800001B0228F6D903E700380240007000400E
:1012B80000004742800E474260004742134908B584
:1012C8008B6803F00C03042B03D0082B03D01048C1
:1012D80008BD104808BD4A684B68496813F4800384
:1012E80014BF0C480A48C1F3881118BF002302F044
:1012F8003F02A1FB0001FEF763FF044B5B68C3F3E9
:10130800014301335B00B0FBF3F008BD0038024035
:101318000024F40040787D012DE9F0410D46044693
:1013280010B90120BDE8F081444B1A6802F00F02A1
:101338008A4228D321688F072DD4C80740D43F4B51
:101348001A6802F00F02954266D3226851076CD4DE
:10135800130707D53A4A2169936823F4604343EA9F
:10136800C1039360FFF7AAFF354B364A9B68C3F366
:101378000313D35CD840344B18600020FFF7A8F85B
:101388000020BDE8F081CAB21A701B6803F00F0391
:101398009942C6D1CEE72A4B11F0040F1EBF9A68B6
:1013A80042F4E0529A600E0742BF9A6842F46042E3
:1013B8009A609A68A06822F0F00202439A60BCE73B
:1013C80062681F4B012A1DD11B6813F4003FA8D087
:1013D8001B4EB36823F003031343B360FFF7AEF863
:1013E80041F288380746B368626803F00C03B3EB30
:1013F800820FA4D0FFF7A2F8C01B4045F3D9032001
:10140800BDE8F081911E01291B6802D813F0007F06
:10141800DDE713F0020FDAE7EAB21A701B6803F08F
:101428000F039D427FF47DAF8FE70549E0688B6825
:1014380023F4E05303438B608AE700BF003C02407B
:1014480000380240AD1F000800000020014B18685A
:10145800704700BF00000020036A23F00103036205
:10146800036A426870B584690D6824F073042543E3
:101478008C6823F0020323430C4CA04209D004F5E6
:101488008064A04205D042604A6885614263036275
:1014980070BDCC688E6923F0080323434C6922F49D
:1014A8004072344323F004032243ECE70000014078
:1014B800036A23F480730362036A426870B5C469DF
:1014C8000D6824F0730425438C6823F4007343EA01
:1014D80004230E4CA04209D004F58064A04205D034
:1014E80042604A68C561C263036270BDCC688E6998
:1014F80023F4006343EA04234C6922F44052344342
:1015080023F4806342EA0412EAE700BF00000140C6
:10151800036A23F48053036230B5046A4368C269DE
:101528000D6822F4E64242EA05228D6824F400544C
:1015380044EA0534094DA84209D005F58065A8425A
:1015480005D043604B68C2610364046230BD4D69D5
:1015580023F4804343EA8513F3E700BF000001400A
:10156800704790F83830012B70B54FF002031CD04B
:1015780080F839300368012280F838209A6822F40C
:101588007F4222F077029A600A68402A79D019D8F7
:10159800102A00F093800AD8002A00F089800123DD
:1015A80080F83930002380F83830184670BD202A7A
:1015B80000F08A80302AF2D19A6822F0700242F054
:1015C800370236E0702A36D01BD8502A42D0602A1B
:1015D800E5D11C6A4D68CE6824F010041C62996934
:1015E8001A6A21F4704122F0A00242EA051241EA87
:1015F800063199611A629A6822F0700242F0670215
:1016080017E0B2F5805F11D0B2F5005FC7D18A68E4
:101618004D689C68C9682A4324F47F4442EA012241
:1016280022439A609A6842F4804202E09A6822F063
:1016380007029A60B3E78A684D689C68C9682A43BC
:1016480024F47F4442EA012222439A609A6842F0D5
:101658007702EEE74C68CE68196A1D6A25F0010525
:101668001D629A6921F00A0122F0F00242EA06128C
:1016780021439A6119629A6822F0700242F0570277
:10168800D7E74C68CE68196A1D6A25F001051D6206
:101698009A6921F00A0122F0F00242EA0612214377
:1016A8009A6119629A6822F0700242F04702C0E714
:1016B8009A6822F0700242F00702BAE79A6822F0AC
:1016C800700242F01702B4E79A6822F0700242F002
:1016D8002702AEE72E4A0368904212D0B0F1804F3D
:1016E8000FD0A2F57C4290420BD002F58062904266
:1016F80007D002F58062904203D002F5784290420A
:101708001DD14A6823F070031343214A904204D143
:10171800CA6823F44073134328E0B0F1804FF7D030
:101728001C4A9042F4D002F580629042F0D002F553
:1017380080629042ECD002F578429042E8D0164A96
:101748009042E5D002F580629042E1D002F58062D5
:101758009042DDD0A2F598329042D9D002F580624D
:101768009042D5D002F580629042D1D003608B6858
:10177800C3620B688362064B984206D003F5806308
:10178800984202D00123436170470B690363F9E76C
:1017980000000140000400400040014010B504462C
:1017A800A0B190F8393003F0FF021BB980F8382057
:1017B80000F0E6FA022384F839302068211DFFF78B
:1017C80089FF012384F83930002010BD012010BDA5
:1017D80010B50446A0B190F8393003F0FF021BB9E8
:1017E80080F83820FFF7BCFE022384F839302068DF
:1017F800211DFFF76FFF012384F83930002010BD49
:10180800012010BD036A23F010030362036A4268D3
:1018180070B584690D6824F4E64444EA05258C68AB
:1018280023F0200343EA04130D4CA04209D004F529
:101838008064A04205D042604A6885618263036281
:1018480070BDCC688E6923F0800343EA04134C69A9
:1018580022F44062344323F0400342EA8402EAE778
:101868000000014038B590F83830012B04464FF09D
:10187800020025D0012384F8383084F839000C2A76
:1018880018D8DFE802F0071717171E1717172F17B2
:10189800171740002068FFF7DFFD236809699A6978
:1018A80042F008029A619A6922F004029A619A69E0
:1018B8000A439A610123002084F8393084F83800FB
:1018C80038BD2068FFF79EFF236809699A6942F4CA
:1018D80000629A619A6922F480629A619A6942EA7E
:1018E8000122E6E72068FFF7E3FD23680969DA6962
:1018F80042F00802DA61DA6922F00402DA61DA6990
:101908000A43DA61D6E72068FFF702FE236809690F
:10191800DA6942F40062DA61DA6922F48062DA6133
:10192800DA6942EA0122ECE7036A10B501248C4027
:1019380023EA04030362036A8A401A43026210BD61
:1019480010B5044601220068FFF7EEFF2368084A35
:10195800934203D002F58062934203D15A6C42F459
:1019680000425A641A6842F001021A60002010BD51
:101978000000014090F83830012B10B54FF00203F9
:1019880018D080F8393003680C685A68496822F022
:1019980070025A605A6822435A609A6822F080029C
:1019A8009A609A680A439A60012380F839300023C4
:1019B80080F83830184610BD90F83830012B1FD009
:1019C800CB688A6823F4407313434A6823F480631E
:1019D80013430A6823F4006313430A6923F480530A
:1019E80013434A6923F4005313438A6923F4404399
:1019F800134302685364002380F838301846704750
:101A0800022070471FB52048204B214A82620024DB
:101A180080E8180003220123846003618361046263
:101A2800C462C460C26103634361FEF78DFD18B1EF
:101A38004A21184800F038F9009407230124694620
:101A4800114801940293FEF747FF18B15421114839
:101A580000F02AF90094694602240B480194FEF725
:101A68003BFF18B15D210B4800F01EF903236946BE
:101A7800054800940193FEF72FFF18B16621054829
:101A880000F012F904B010BD24000020002001402D
:101A98000100000FA01F000870B502681D4B9A4294
:101AA80086B0064633D1002503F58C3300955A6C71
:101AB80019481A4C42F480725A645B6C039503F41B
:101AC80080730093009B0723019301A903230293CA
:101AD800FFF79EF9124BA56084E828004FF4806355
:101AE80023614FF4006363614FF40053A361204600
:101AF8004FF48073E560E36125626562FFF712F8D1
:101B080018B18F21074800F0CFF8B463A66306B078
:101B180070BD00BF00200140000002406C000020A2
:101B280010640240A01F000807B50B4B0022019269
:101B3800196B41F4800119631B6B03F48003019353
:101B480011463820019BFEF76FFF3820FEF7A0FFF3
:101B580003B05DF804FB00BF0038024082B00C4BB4
:101B6800002100911A6B42F001021A631A6B02F00D
:101B780001020092009A01911A6B42F010021A6356
:101B88001B6B03F010030193019B02B0704700BF69
:101B98000038024010B594B00023214A0193116C1B
:101BA80041F080511164126C02F080520192019A46
:101BB8001C4A0293116841F48041116012680E9327
:101BC80002F480420292029A0222089201220B92A7
:101BD80008A810220C92FFF7FBF9014600B1FEE7B6
:101BE8000F23049005900690079003A80393FFF72E
:101BF80093FB044600B1FEE7FFF728FC4FF47A7325
:101C0800B0FBF3F0FEF750FF0420FEF763FF224617
:101C180021464FF0FF30FEF707FF14B010BD00BF9C
:101C28000038024000700040F8B5FEF765FCFFF789
:101C3800B1FFFFF793FFFFF777FFFFF7E3FE00F031
:101C4800D1F804211548164E164C144DFFF778FEAE
:101C580008211248FFF774FE0C211048FFF770FEA8
:101C6800032210490E48FEF773FD3046FEF710FDBB
:101C78006288A388218828685B2792009B0092FBD2
:101C8800F7F293FBF7F32D322D33890091FBF7F12F
:101C98002D318163C2630364E7E700BFD4000020ED
:101CA80024000020CC000020FEE708B50320FEF742
:101CB800A9FE002211466FF00B00FEF7B5FE0022C8
:101CC80011466FF00A00FEF7AFFE002211466FF0D2
:101CD8000900FEF7A9FE002211466FF00400FEF786
:101CE800A3FE002211466FF00300FEF79DFE0022BE
:101CF80011466FF00100FEF797FE002211464FF0E3
:101D0800FF30BDE80840FEF78FBE7047FEE7FEE7EC
:101D1800FEE7FEE770477047704708B5FEF706FC18
:101D2800BDE80840FEF7E3BE0148FEF7B7BF00BFB5
:101D38006C0000200F49D1F8883043F47003C1F8D3
:101D480088300D4B1A68002042F001021A60986032
:101D58001A6822F0847222F480321A60074A5A60A4
:101D68001A6822F480221A60D8604FF000638B60F2
:101D7800704700BF00ED00E000380240103000243A
:101D88000268094B9A4282B00BD100230193074B9A
:101D98005A6C42F001025A645B6C03F00103019330
:101DA800019B02B0704700BF0000014000380240AC
:101DB8007FB50268094B9A420DD14FF4D043019385
:101DC8000223029300230393049301A901230448E7
:101DD8000593FFF71DF807B05DF804FB000001400C
:101DE8000010024000B53A483A49B12395B080E85E
:101DF8000A004FF4E16200238360C260036143611B
:101E0800FFF7CCFC18B141213348FFF74DFF14A967
:101E18004FF4805341F8483D2D48FFF7A2FB18B115
:101E280047212D48FFF740FF2948FFF7D1FC18B19B
:101E38004C212948FFF738FF0023694624480093BE
:101E48000193FFF797FD18B153212348FFF72CFFA3
:101E5800602306930422002306A91D4807930893CC
:101E680009930A930B930C93FFF7FCFC18B15F21BD
:101E78001948FFF719FF082206A91548FFF7F2FCD1
:101E880018B164211448FFF70FFF0C2206A9104867
:101E9800FFF7E8FC18B169210F48FFF705FF002399
:101EA8004FF400520DA90A480D930E930F93109307
:101EB800119312921393FFF77FFD18B1752106480D
:101EC800FFF7F2FE0248FFF773FF15B05DF804FB59
:101ED800D400002000000140BD1F0008DFF834D006
:101EE800002103E00C4B5B58435004310B480C4B6A
:101EF80042189A42F6D30B4A02E0002342F8043B08
:101F0800094B9A42F9D3FFF715FF00F011F8FFF7D4
:101F18008BFE704700000220DC1F00080000002034
:101F2800040000200400002010010020FEE700004B
:101F380070B50D4E0D4CA41BA4100025A54209D167
:101F48000B4E0C4C00F018F8A41BA4100025A54259
:101F580005D170BD56F8253098470135EEE756F89B
:101F6800253098470135F2E7D41F0008D41F000830
:101F7800D41F0008D81F0008F8B500BFF8BC08BC7B
:101F88009E467047F8B500BFF8BC08BC9E4670472F
:101F980000061016000610162E2E5C5372635C6144
:101FA80064632E63000000000000000000010203CB
:101FB80004060708092E2E5C5372635C74696D2E43
:041FC80063000000B2
:081FCC002CE2FF7F0100000080
:041FD400AD01000853
:041FD8008901000873
:041FDC000024F400E9
:0400000508001EE5EC
:00000001FF
