:020000040800F2
:10000000000002204D1200084F1100085111000895
:100010005311000855110008571100080000000096
:10002000000000000000000000000000591100085E
:100030005B110008000000005D1100085F1100085E
:100040009D1200089D1200089D1200089D120008D4
:100050009D1200089D1200089D1200089D120008C4
:100060009D1200089D1200089D1200089D120008B4
:100070009D1200089D1200089D1200089D120008A4
:100080009D1200089D1200089D1200089D12000894
:100090009D1200089D1200089D1200089D12000884
:1000A0009D1200089D1200089D1200089D12000874
:1000B0009D1200089D1200089D1200089D12000864
:1000C0009D1200089D1200089D1200089D12000854
:1000D0009D1200089D1200089D1200089D12000844
:1000E0009D1200089D1200089D1200089D12000834
:1000F0009D1200089D1200089D1200089D12000824
:100100009D1200089D1200089D1200089D12000813
:100110009D1200089D1200089D1200089D12000803
:100120009D1200089D1200089D1200089D120008F3
:100130009D1200089D1200089D1200089D120008E3
:100140009D1200089D1200089D1200089D120008D3
:100150009D1200089D1200089D1200089D120008C3
:100160009D1200089D1200089D1200089D120008B3
:100170009D1200089D1200089D120008000000005A
:080180009D1200089D12000809
:1001900010B5054C237833B9044B13B10448AFF3C1
:1001A00000800123237010BD6800002000000000C3
:1001B000401B000808B5034B1BB103490348AFF3CC
:1001C000008008BD000000006C000020401B0008FB
:1001D000034613F8012B002AFBD1181A0138704787
:1001E00001F0FF01102A2BDB10F0070F08D010F8E8
:1001F000013B013A8B422DD010F0070F42B3F6D1EC
:10020000F0B441EA012141EA014122F007047FF004
:1002100000070023F0E80256083C85EA010586EA5B
:10022000010685FA47F5A3FA87F586FA47F6A5FA97
:1002300087F68EB9EED1F0BC01F0FF0102F00702A3
:1002400032B110F8013B013A83EA010313B1F8D14E
:100250000020704701387047002D06BF354603382F
:10026000073815F0010F07D1013015F4807F02BF68
:10027000013015F4C03F0130F0BC0138704700BFB9
:1002800010B5084B044618684FF47A73B0FBF3F0CE
:1002900000F078F8002221464FF0FF3000F03EF8E1
:1002A000002010BD0000002008B50B4B1A6842F476
:1002B00000721A601A6842F480621A601A6842F486
:1002C00080721A60032000F017F80020FFF7D8FFB3
:1002D00000F00DFF002008BD003C0240024A1368F8
:1002E00001331360704700BF90000020014B186875
:1002F000704700BF90000020074AD36823F4E063F2
:100300001B041B0C43F0BF63000243F4003300F4F2
:10031000E0600343D360704700ED00E0174B30B559
:10032000DC68C4F30224C4F10703251D042B28BF95
:100330000423062D4FF0010505FA03F303F1FF3303
:100340008CBF033C00241940A14005FA04F4013C91
:100350002240002842EA01024FEA0212AFBF00F138
:10036000604000F00F00064BD2B2A5BF00F561401F
:10037000D2B21A5480F8002330BD00BF00ED00E077
:1003800014ED00E00138B0F1807F0AD2064B074A35
:100390005860F02182F823100020072298601A602C
:1003A00070470120704700BF10E000E000ED00E062
:1003B000044B1A6804280CBF42F0040222F0040225
:1003C0001A60704710E000E0704708B5FFF7FCFFC7
:1003D00008BD00002DE9F04F85B00B68DFF8AC8157
:1003E000684ADFF8AC91019300234FF0010E019CA5
:1003F0000EFA03FE0EEA0406B64540F0AE804C68E5
:1004000024F01007022F16D14FEAD30A00EB8A0A14
:1004100003F0070BDAF820504FEA8B0B4FF00F0C6C
:100420000CFA0BFC25EA0C0C0D6905FA0BF545EAF4
:100430000C05CAF820504FEA430A0325D0F800B053
:1004400005FA0AF5ED4304F0030C0BEA050B0CFA70
:100450000AFC013F4CEA0B0C012FC0F800C011D878
:10046000876807EA050BCF6807FA0AFC4CEA0B0716
:100470008760476827EA0E0EC4F300179F4047EADB
:100480000E074760C7683D408F6807FA0AF73D438B
:10049000C560E50061D54FF0000BCDF80CB0D8F881
:1004A0004470394D47F48047C8F84470D8F8447018
:1004B00007F480470397039F23F0030707F1804762
:1004C00007F59C3703F0030CD7F808A04FEA8C0C13
:1004D0004FF00F0E0EFA0CFEA8422AEA0E0E43D081
:1004E00005F58065A84241D005F58065A8423FD05A
:1004F00005F58065A8423DD005F58065A8423BD052
:1005000048453BD005F50065A84239D005F5806522
:10051000A84214BF0825072505FA0CF545EA0E0583
:10052000BD601568F74314F4803F0CBF3D40354370
:100530001560556814F4003F0CBF3D4035435560CD
:10054000956814F4801F0CBF3D4035439560D56815
:10055000A40254BF3D403543D5600133102B7FF4D6
:1005600044AF05B0BDE8F08F5D46D5E70125D3E780
:100570000225D1E70325CFE70425CDE70525CBE705
:100580000625C9E7003C0140000002400038024057
:10059000001402400AB1816170470904FBE70000C2
:1005A0000368F7B50446D8073BD42368990700F1E0
:1005B000868023681E0700F1D18023685D072AD555
:1005C000002301938E4B8F4D1A6C42F080521A64B7
:1005D0001B6C03F080530193019B2B6843F48073E1
:1005E0002B60FFF783FE06462B68DA0540F1D880C2
:1005F000A368834D012B40F0DA802B6F43F0010399
:100600002B67FFF773FE7E4D064641F288372B6F4E
:100610009B0740F1ED80A269002A40F0F98000209C
:1006200015E0774B9A6802F00C02042A07D09A680A
:1006300002F00C02082A0CD15B685A0209D5704BF3
:100640001B689B03B1D56368002BAED1012003B0BA
:10065000F0BD63686A4DB3F5803F11D12B6843F458
:1006600080332B60FFF742FE654D06462B689F03E3
:100670009BD4FFF73BFE801B6428F7D90320E6E7F5
:10068000B3F5A02F04D12B6843F480232B60E5E75A
:100690002A6822F480322A602A6822F480222A60A2
:1006A000002BDFD1FFF722FE06462B6898037FF56B
:1006B0007CAFFFF71BFE801B6428F6D9DEE7504BAA
:1006C0009A6812F00C0F07D09A6802F00C02082A00
:1006D00016D15B68590213D4494B1A68920702D5A8
:1006E000E268012AB2D11868F82292FAA2F2B2FAAC
:1006F00082F122698A4020F0F8010A431A6058E723
:10070000E268414BDAB101221A60FFF7EFFD3C4D80
:1007100006462B689B070CD52968F82393FAA3F3A8
:10072000B3FA83F22369934021F0F80213432B605C
:100730003FE7FFF7DBFD801B0228EAD99EE71A603E
:10074000FFF7D4FD2E4D06462B689F077FF531AF8E
:10075000FFF7CCFD801B0228F6D98FE762692B4B8F
:100760007AB101221A60FFF7C1FD254D06466B6F75
:1007700098073FF522AFFFF7B9FD801B0228F6D995
:100780007CE71A60FFF7B2FD1D4D06466B6F9907B7
:100790007FF513AFFFF7AAFD801B0228F6D96DE79E
:1007A000FFF7A4FD801B02287FF61EAF66E7052B2E
:1007B00004D12B6F43F004032B671EE72A6F22F04E
:1007C00001022A672A6F22F004022A67002B7FF4B5
:1007D00018AFFFF78BFD41F2883706462B6F98075D
:1007E0007FF519AFFFF782FD801BB842F6D945E7C8
:1007F000FFF77CFD801BB8427FF609AF3EE700BFE4
:10080000003802400070004000004742800E47421E
:100810002B4DAB6803F00C03082B3FF417AF294EA8
:100820000023022A33603ED1FFF760FD07462B68A4
:10083000990132D447F6C07797FAA7F74FF44032C0
:10084000B7FA87F792FAA2F24FF07061B2FA82F02B
:1008500091FAA1F1226AE3691343626A02FA07F787
:10086000A26A5208013A82403B431343E26A144CA5
:10087000B1FA81F102FA01F10B436B60012333609D
:10088000FFF734FD054623689A013FF5C8AEFFF730
:100890002DFD401B0228F6D9F0E6FFF727FDC01B0F
:1008A0000228C4D9EAE6FFF721FD04462B689B0124
:1008B0007FF5B5AEFFF71AFD001B0228F6D9DDE67D
:1008C0000038024060004742194A936803F00C0365
:1008D000042B10B503D0082B03D0164810BD1648C2
:1008E00010BD5168536801F03F0113F4800F47F6C3
:1008F000C074536894FAA4F0B0FA80F003EA0403D9
:1009000023FA00F314BF0C480A48B0FBF1F0584337
:10091000074B4FF440325B6892FAA2F2B2FA82F2CD
:1009200003F44033D34001335B00B0FBF3F010BD60
:10093000003802400024F40040787D01564B1A68CC
:1009400002F00F028A422DE9F04105460E4630D3EF
:100950002A68940737D4D0073DD44F4B1A6802F069
:100960000F029642C0F088802A68510700F18C80FF
:10097000130707D5494A2969936823F4604343EA7A
:10098000C1039360FFF7A0FF444BF0229B6892FAEB
:10099000A2F2B2FA82F203F0F003D340404AD35CF1
:1009A000D840404B18600020FFF76AFC0020BDE8EB
:1009B000F081CAB21A701B6803F00F039942C7D0C6
:1009C0000120BDE8F0813549A8688B6823F0F00369
:1009D00003438B60BFE76A68304B012A1ED11B6856
:1009E00013F4003FECD02D4CA36823F00303134312
:1009F000A360FFF77BFC6B68012B074641F2883848
:100A000016D1A36803F00C03042BA6D0FFF76EFCED
:100A1000C01B4045F5D90320BDE8F081911E012996
:100A20001B6802D813F0007FDCE713F0020FD9E750
:100A3000022B0AD1A36803F00C03082B8DD0FFF71B
:100A400055FCC01B4045F5D9E5E7032B0FD1A36842
:100A500003F00C030C2B80D0FFF748FCC01B404573
:100A6000F5D9D8E7FFF742FCC01B4045D3D8A368AF
:100A700013F00C0FF6D170E7F2B21A701B6803F096
:100A80000F039E429CD16FE70449E8688B6823F40A
:100A9000E05303438B606BE7003C024000380240A8
:100AA000661B000800000020014B1868704700BF5B
:100AB00000000020084B4FF4E0529B6892FAA2F22B
:100AC000B2FA82F203F4E053D340044AD35C044AFE
:100AD0001068D840704700BF00380240761B0008FD
:100AE00000000020084B4FF460429B6892FAA2F28B
:100AF000B2FA82F203F46043D340044AD35C044A5E
:100B00001068D840704700BF00380240761B0008CC
:100B1000000000202DE9F0470668C2683369C1690A
:100B200023F4405313433361044683680069F26839
:100B30000343606922F41642034322F00C020B4384
:100B40001343F3607369A26923F440731343B1F54F
:100B5000004F73617A4B7CD19E4203D003F58063D2
:100B60009E4244D1FFF7BEFF192505FB00F36068E4
:100B70004FF064094000B3FBF0F3B3FBF9F34FEA25
:100B80000318FFF7AFFF636868435B00B0FBF3F740
:100B9000FFF7A8FF636868435B00B0FBF3F3B3FBA8
:100BA000F9F309FB1373DB003233B3FBF9F35B009A
:100BB00003F4F877FFF796FF626868435200B0FBD2
:100BC000F2FAFFF78FFF636868435B00B0FBF3F353
:100BD000B3FBF9F309FB13A3DB003233B3FBF9F3E7
:100BE00003F0070343443B44B360BDE8F087FFF7DD
:100BF00061FF192505FB00F360684FF064094000B0
:100C0000B3FBF0F3B3FBF9F34FEA0318FFF752FF1E
:100C1000636868435B00B0FBF3F7FFF74BFF636863
:100C200068435B00B0FBF3F3B3FBF9F309FB137309
:100C3000DB003233B3FBF9F35B0003F4F877FFF723
:100C400039FF626868435200B0FBF2FAFFF732FFE7
:100C5000B9E79E4202D03B4B9E4240D1FFF742FF94
:100C6000676819254FF0640905FB00F3BF00B3FB6B
:100C7000F7F3B3FBF9F31F01FFF734FF6368684331
:100C80009B00B0FBF3F8FFF72DFF636868439B0000
:100C9000B0FBF3F3B3FBF9F309FB13831B0132330E
:100CA000B3FBF9F303F0F008FFF71CFF6268684339
:100CB0009200B0FBF2FAFFF715FF636868439B00F0
:100CC000B0FBF3F3B3FBF9F309FB13A31B013233BE
:100CD000B3FBF9F303F00F0343EA080383E7FFF7DD
:100CE000E9FE676819254FF0640905FB00F3BF00B2
:100CF000B3FBF7F3B3FBF9F31F01FFF7DBFE636808
:100D000068439B00B0FBF3F8FFF7D4FE63686843C9
:100D10009B00B0FBF3F3B3FBF9F309FB13831B0157
:100D20003233B3FBF9F303F0F008FFF7C3FE626858
:100D300068439200B0FBF2FAFFF7BCFEBDE700BFCC
:100D40000010014000140140F8B504460E46174655
:100D50001D4621680B6836EA030301D10020F8BD67
:100D60006B1CF7D095B92368DA6822F4D072DA6088
:100D70005A6922F001025A61202384F8393084F83C
:100D80003A30002384F838300320F8BDFFF7AEFA7C
:100D9000C01B8542DDD2E6E710B5044640B390F8AB
:100DA000393003F0FF021BB980F8382000F024FA34
:100DB0002268242384F83930D36823F40053D360A5
:100DC0002046FFF7A7FE23681A6922F490421A61B1
:100DD0005A6922F02A025A61DA6842F40052DA6053
:100DE00000202023E06384F8393084F83A3010BDC5
:100DF000012010BD2DE9F0411F4690F83930202B1D
:100E000004460D4690464FD100294AD0002A48D0CA
:100E100090F83830012B47D0012380F83830002378
:100E2000C363212380F83930FFF760FAA4F82480E7
:100E30000646A4F82680E38C9BB26BB93B4632464B
:100E400040212046FFF780FFB0B9202384F83930D5
:100E500084F83800BDE8F081E38C013B9BB2E38469
:100E6000A368B3F5805F32463B464FF080012046D1
:100E70000ED1FFF769FF10B10320BDE8F0812B8888
:100E80002268C3F308035360236943B90235D2E7EC
:100E9000FFF75AFF0028EFD123682A785A600135FE
:100EA000C9E70120BDE8F0810220BDE8F0812DE90D
:100EB000F0411F4690F83A30202B04460D469046EC
:100EC00052D100294DD0002A4BD090F83830012B58
:100ED0004AD0012380F838300023C363222380F8EE
:100EE0003A30FFF703FAA4F82C800646A4F82E80C7
:100EF000E08D80B230B9202384F83A3084F838008D
:100F0000BDE8F081E38D013B9BB2E385A368B3F5B7
:100F1000805F32463B464FF02001204612D1FFF75A
:100F200013FF10B10320BDE8F081236822695B68DC
:100F300022B9C3F3080325F8023BD9E7DBB225F851
:100F4000013BD5E7FFF700FF0028EBD123682169BB
:100F50005B686A1C11B92B701546C9E703F07F0363
:100F6000F9E70120BDE8F0810220BDE8F081000032
:100F700030B589B0134B144D002401941A6B42F024
:100F800010021A631A6B02F010020192019A029485
:100F90001A6B42F002021A631B6B03F00203029306
:100FA000012228460521029BFFF7F4FA052303934B
:100FB00003A901232846049305940694FFF70AFA2F
:100FC00009B030BD003802400010024010B594B0A6
:100FD0000023214A0193116C41F080511164126C7D
:100FE00002F080520192019A1C4A0293116841F466
:100FF0008041116012680E9302F480420292029ABC
:101000000222089201220B9208A810220C92FFF7EC
:10101000C7FA014600B1FEE70F2304900590069041
:10102000079003A80393FFF789FC044600B1FEE78D
:10103000FFF73AFD4FF47A73B0FBF3F0FFF7A2F934
:101040000420FFF7B5F9224621464FF0FF30FFF7A5
:1010500065F914B010BD00BF0038024000700040B8
:10106000F0B58BB0FFF720F91EA7D7E90067FFF7AF
:10107000ADFFFFF77DFF00F09FF8174D174C64237D
:10108000012201A92846FFF712FF9DF80430412BE9
:1010900019D1002204212046FFF77CFA0122012108
:1010A0002046FFF777FA32463B460D4902A800F08A
:1010B0001BF902A8FFF78CF8642382B202A9284624
:1010C000FFF798FEDBE7522BEDD1012204212046E9
:1010D000FFF760FA0022E2E79400002000100240CF
:1010E000581B000800000040EA210940FEE708B54F
:1010F0000320FFF701F9002211466FF00B00FFF704
:101100000DF9002211466FF00A00FFF707F90022DF
:1011100011466FF00900FFF701F9002211466FF048
:101120000400FFF7FBF8002211466FF00300FFF701
:10113000F5F8002211466FF00100FFF7EFF80022EA
:1011400011464FF0FF30BDE80840FFF7E7B87047A1
:10115000FEE7FEE7FEE7FEE770477047704708B519
:10116000FFF7BCF8BDE80840FFF72FB90F49D1F8E9
:10117000883043F47003C1F888300D4B1A680020A2
:1011800042F001021A6098601A6822F0847222F418
:1011900080321A60074A5A601A6822F480221A6064
:1011A000D8604FF000638B60704700BF00ED00E037
:1011B000003802401030002408B50C480C4B4FF4A6
:1011C000E13E80E808400C2200238360C360036195
:1011D00042618361C361FFF7DFFD28B14221054809
:1011E000BDE80840FFF782BF08BD00BF94000020A3
:1011F000004800407E1B00087FB50268104B9A42F1
:101200001AD1002300930F4B0F481A6C42F480222E
:101210001A641B6C03F480230093009B4FF440631B
:10122000019302230293012303930323049301A94F
:1012300007230593FFF7CEF807B05DF804FB00BF66
:10124000004800400038024000040240DFF834D07B
:10125000002103E00C4B5B58435004310B480C4B0E
:1012600042189A42F6D30B4A02E0002342F8043BAC
:10127000094B9A42F9D3FFF779FF00F011F8FFF715
:10128000EFFE704700000220C81B0008000000208D
:101290006800002068000020D8000020FEE7000061
:1012A00070B50D4E0D4CA41BA4100025A54209D10C
:1012B0000B4E0C4C00F044FCA41BA4100025A542CE
:1012C00005D170BD56F8253098470135EEE756F840
:1012D000253098470135F2E7C01B0008C01B000805
:1012E000C01B0008C41B00080EB400B59CB04FF42E
:1012F00002711DABADF81410029006906FF0004122
:101300000A48049107914FF6FF7153F8042BADF88A
:1013100016100068019302A900F066F8029B0022F3
:101320001A701CB05DF804EB03B070470400002095
:101330002DE9F0478E689E4282460C4691469846BB
:1013400035D88A8912F4906F31D0256809696F1AEF
:101350006569022305EB450595FBF3F508F10103EB
:101360003B449D4238BF1D46530531D5294600F008
:1013700039FB064650B90C23CAF80030A38943F064
:101380004003A3814FF0FF30BDE8F0873A46216962
:1013900000F0B4FAA38923F4906343F08003A3819F
:1013A000266165613E44ED1B2660A56046464645C4
:1013B00028BF464632464946206800F0AAFAA3688C
:1013C0009B1BA36023681E4426600020BDE8F087B5
:1013D0002A4600F065FB06460028E1D12169504607
:1013E00000F0B2FAC7E700002DE9F04F9DB080464B
:1013F00003938B891C060D4616460FD50B696BB9F6
:10140000402100F0EFFA2860286128B90C23C8F8C1
:1014100000304FF0FF30C5E040236B61002309939B
:1014200020238DF8293030238DF82A304FF0010B1E
:1014300037463C4614F8013B002B3CD1B7EB060A7B
:101440000BD05346324629464046FFF771FF013024
:1014500000F0A380099B534409933B78002B00F0D4
:101460009C8000234FF0FF3204930793059206936C
:101470008DF853301A93052221785048FEF7B0FEBC
:10148000671C049BD8B9D90644BF20228DF853208D
:101490001A0744BF2B228DF8532022782A2A16D00F
:1014A000079A00210A20274601343B78303B092B5C
:1014B00051D9C9B111E0252BC0D02746B9E73F4A21
:1014C000801A0BFA00F0184304903C46D3E7039AC5
:1014D000111D12680391002A01DB079204E05242B9
:1014E00043F00203079204933B782E2B0ED17B78B6
:1014F0002A2B07F1010132D1039B1A1D1B680392AD
:10150000002BB8BF4FF0FF33023705932C4C3978CE
:1015100003222046FEF764FE38B14023001B03FA85
:1015200000F0049B034304930137397825488DF874
:10153000281006227E1CFEF753FE002835D0224BD1
:10154000FBB9039B073323F0070308330393099B7D
:101550004B4409936CE700FB02320121A3E700230F
:10156000059318460A240F4601313A78303A092A81
:1015700003D9002BCAD00590C8E704FB0020012343
:10158000F1E703AB00932A46104B04A94046AFF3A2
:101590000080B0F1FF3F8146D9D1AB895B063FF5B2
:1015A00038AF09981DB0BDE8F08F03AB00932A4611
:1015B000064B04A9404600F081F8EAE78D1B0008BD
:1015C000931B0008971B000800000000311300085F
:1015D0002DE9F04791461F468A680B69DDF82080A7
:1015E0009342B8BF1346C9F8003091F8432006462D
:1015F0000C4612B10133C9F800302368990642BF86
:10160000D9F800300233C9F80030256815F0060516
:1016100007D104F1190AE368D9F800209B1A9D420A
:1016200029DB94F843302268003318BF0123920667
:101630002ED404F1430239463046C047013021D050
:101640002368E568D9F8002003F00603042B08BFDF
:10165000AD1AA36822690CBF25EAE57500259342FF
:10166000C4BF9B1AED184FF000091A344D451BD129
:101670000020BDE8F0870123524639463046C04776
:10168000013003D14FF0FF30BDE8F0870135C2E7EC
:10169000E1185A1C302081F84300224494F8451088
:1016A00082F843100233C4E701232246394630460C
:1016B000C0470130E6D009F10109D7E72DE9F04331
:1016C00017460A7E85B06E2A984606460C460C9B45
:1016D00001F1430E00F0BC801AD8632A2ED00AD83C
:1016E000002A00F0C880582A00F08A8004F14205E0
:1016F00084F842202AE0642A01D0692AF6D12168C0
:101700001A6811F0800F23D0111D1960136827E0AB
:10171000732A00F0B48008D86F2A2AD0702AE5D145
:101720000A6842F020020A6003E0752A21D0782A74
:10173000DCD1782284F845206E4964E01A6801F112
:101740004205111D1960136884F842300123A3E09B
:1017500011F0400F02F104011960D7D0B2F9003046
:10176000002B03DA2D225B4284F8432062490A22CF
:1017700017E02068196810F0800F03D0081D18606A
:101780000B6806E010F0400F01F104001860F7D07C
:101790000B8859496F2A14BF0A220822002084F8B6
:1017A00043006568A560002DC0F29C80206820F091
:1017B00004002060002B3FD1002D40F0958075463D
:1017C000082A0BD12368DA0708D5236962689A4290
:1017D000DEBF302305F8013C05F1FF35AEEB050314
:1017E0002361CDF800803B4603AA21463046FFF72F
:1017F000EFFE013055D14FF0FF3005B0BDE8F0836A
:1018000081F845203C492268186812F0800F00F1E9
:1018100004051D6001D0036802E05506FBD503886E
:10182000D00744BF42F0200222601BB9226822F098
:10183000200222601022B1E77546B3FBF2F002FBF2
:101840001033CB5C05F8013D03460028F5D1B7E71E
:1018500008681A68496910F0800F04D0101D1860DC
:101860001368196007E010F0400F02F104001860DF
:101870001368F6D01980002323617546B1E71A6812
:10188000111D19601568626800212846FEF7A8FC42
:1018900008B1401B606063682361002384F8433013
:1018A0009FE723692A4639463046C0470130A2D017
:1018B00023689B0707D5002504F11909E368039AFB
:1018C0009B1A9D4205DBE068039B9842B8BF18460F
:1018D00093E701234A4639463046C04701308AD053
:1018E0000135EBE7002BA7D10B7884F8423004F1E7
:1018F000420565E7AF1B00089E1B000810B5431E9C
:101900000A44914200D110BD11F8014B03F8014F78
:10191000F7E7884210B501EB020303D8421E994253
:101920000CD110BD9842F9D28118D21AD34200D1FD
:1019300010BD13F8014D01F8014DF7E711F8014B07
:1019400002F8014FEBE7000038B50546002945D005
:1019500051F8043C0C1F002BB8BFE41800F0D6F877
:101960001F4A1368104633B9636014602846BDE807
:10197000384000F0CCB8A3420CD9216862189342D9
:1019800004BF1A685B68636004BF52182260046079
:10199000ECE713465A680AB1A242FAD919685818F6
:1019A000A0420BD120680144581882421960DDD151
:1019B000106852685A6001441960D7E702D90C23B5
:1019C0002B60D3E7206821188A4204BF116852684F
:1019D000626004BF091821605C60C7E738BD00BFC2
:1019E0008400002070B5CD1C25F0030508350C2DB2
:1019F00038BF0C25002D064601DBA94203D90C2374
:101A00003360002070BD00F081F8234A146821463D
:101A100091B9224C23681BB9304600F067F820606A
:101A20002946304600F062F8431C26D10C2333606F
:101A3000304600F06CF8E4E70B685B1B1AD40B2B04
:101A40000FD90B60CD50CC18304600F060F804F18F
:101A50000B00231D20F00700C31A1BD05A42E2508E
:101A600070BD8C420DBF63684B686360136018BF24
:101A70000C46E9E70C464968CAE7C41C24F0030495
:101A8000A04205D0211A304600F030F80130CDD008
:101A90002560D9E770BD00BF8400002088000020C9
:101AA000F8B5074614460E4621B91146BDE8F84080
:101AB000FFF798BF22B9FFF747FF25462846F8BD34
:101AC00000F026F884420FD921463846FFF78AFFF6
:101AD00005460028F2D031462246FFF70FFF314677
:101AE0003846FFF731FFE9E73546E7E738B5064CFA
:101AF000002305460846236000F014F8431C02D179
:101B0000236803B12B6038BDD400002070477047B4
:101B100051F8040C0028A0F10400BCBF0B58C018F9
:101B200070470000044B1968024609B9034919605F
:101B3000186802441A6070478C000020D80000200A
:101B4000F8B500BFF8BC08BC9E467047F8B500BFAA
:081B5000F8BC08BC9E4670477A
:101B580076616C6F723D25332E35660A0D000000E4
:101B68000000000000000102030406070809000045
:101B78000000010203042E2E5C5372635C757361CE
:101B880072742E6300232D302B2000686C4C006586
:101B98006667454647003031323334353637383991
:101BA80041424344454600303132333435363738C4
:081BB800396162636465660097
:041BC000B501000863
:041BC4009101000883
:101BC8000024F400080000200000000000000000CD
:101BD80000000000000000000000000000000000FD
:101BE80000000000000000000000000000000000ED
:101BF80000000000000000000000000000000000DD
:101C080000000000000000000000000000000000CC
:101C180000000000000000000000000000000000BC
:081C28000000000000000000B4
:040000050800124D90
:00000001FF
